{
	"StudentSavingsWallet.sol": {
		"StudentSavingsWallet": {
			"abi": [
				{
					"inputs": [
						{
							"internalType": "uint256",
							"name": "_minDeposit",
							"type": "uint256"
						},
						{
							"internalType": "uint256",
							"name": "_lockTime",
							"type": "uint256"
						}
					],
					"stateMutability": "nonpayable",
					"type": "constructor"
				},
				{
					"anonymous": false,
					"inputs": [
						{
							"indexed": true,
							"internalType": "address",
							"name": "user",
							"type": "address"
						},
						{
							"indexed": false,
							"internalType": "uint256",
							"name": "amount",
							"type": "uint256"
						},
						{
							"indexed": false,
							"internalType": "uint256",
							"name": "timestamp",
							"type": "uint256"
						}
					],
					"name": "Deposited",
					"type": "event"
				},
				{
					"anonymous": false,
					"inputs": [
						{
							"indexed": false,
							"internalType": "uint256",
							"name": "oldMin",
							"type": "uint256"
						},
						{
							"indexed": false,
							"internalType": "uint256",
							"name": "newMin",
							"type": "uint256"
						}
					],
					"name": "MinDepositChanged",
					"type": "event"
				},
				{
					"anonymous": false,
					"inputs": [
						{
							"indexed": true,
							"internalType": "address",
							"name": "user",
							"type": "address"
						},
						{
							"indexed": false,
							"internalType": "uint256",
							"name": "amount",
							"type": "uint256"
						},
						{
							"indexed": false,
							"internalType": "uint256",
							"name": "timestamp",
							"type": "uint256"
						}
					],
					"name": "Withdrawn",
					"type": "event"
				},
				{
					"inputs": [
						{
							"internalType": "address",
							"name": "",
							"type": "address"
						}
					],
					"name": "balances",
					"outputs": [
						{
							"internalType": "uint256",
							"name": "",
							"type": "uint256"
						}
					],
					"stateMutability": "view",
					"type": "function"
				},
				{
					"inputs": [],
					"name": "deposit",
					"outputs": [],
					"stateMutability": "payable",
					"type": "function"
				},
				{
					"inputs": [],
					"name": "getBalance",
					"outputs": [
						{
							"internalType": "uint256",
							"name": "",
							"type": "uint256"
						}
					],
					"stateMutability": "view",
					"type": "function"
				},
				{
					"inputs": [],
					"name": "getTransactionHistory",
					"outputs": [
						{
							"components": [
								{
									"internalType": "address",
									"name": "user",
									"type": "address"
								},
								{
									"internalType": "uint256",
									"name": "amount",
									"type": "uint256"
								},
								{
									"internalType": "uint256",
									"name": "timestamp",
									"type": "uint256"
								},
								{
									"internalType": "string",
									"name": "txType",
									"type": "string"
								}
							],
							"internalType": "struct StudentSavingsWallet.Transaction[]",
							"name": "",
							"type": "tuple[]"
						}
					],
					"stateMutability": "view",
					"type": "function"
				},
				{
					"inputs": [
						{
							"internalType": "address",
							"name": "",
							"type": "address"
						}
					],
					"name": "lastWithdrawalTime",
					"outputs": [
						{
							"internalType": "uint256",
							"name": "",
							"type": "uint256"
						}
					],
					"stateMutability": "view",
					"type": "function"
				},
				{
					"inputs": [],
					"name": "lockTime",
					"outputs": [
						{
							"internalType": "uint256",
							"name": "",
							"type": "uint256"
						}
					],
					"stateMutability": "view",
					"type": "function"
				},
				{
					"inputs": [],
					"name": "minDeposit",
					"outputs": [
						{
							"internalType": "uint256",
							"name": "",
							"type": "uint256"
						}
					],
					"stateMutability": "view",
					"type": "function"
				},
				{
					"inputs": [],
					"name": "owner",
					"outputs": [
						{
							"internalType": "address",
							"name": "",
							"type": "address"
						}
					],
					"stateMutability": "view",
					"type": "function"
				},
				{
					"inputs": [
						{
							"internalType": "uint256",
							"name": "_newLockTime",
							"type": "uint256"
						}
					],
					"name": "setLockTime",
					"outputs": [],
					"stateMutability": "nonpayable",
					"type": "function"
				},
				{
					"inputs": [
						{
							"internalType": "uint256",
							"name": "_newMin",
							"type": "uint256"
						}
					],
					"name": "setMinDeposit",
					"outputs": [],
					"stateMutability": "nonpayable",
					"type": "function"
				},
				{
					"inputs": [
						{
							"internalType": "uint256",
							"name": "",
							"type": "uint256"
						}
					],
					"name": "transactions",
					"outputs": [
						{
							"internalType": "address",
							"name": "user",
							"type": "address"
						},
						{
							"internalType": "uint256",
							"name": "amount",
							"type": "uint256"
						},
						{
							"internalType": "uint256",
							"name": "timestamp",
							"type": "uint256"
						},
						{
							"internalType": "string",
							"name": "txType",
							"type": "string"
						}
					],
					"stateMutability": "view",
					"type": "function"
				},
				{
					"inputs": [
						{
							"internalType": "uint256",
							"name": "_amount",
							"type": "uint256"
						}
					],
					"name": "withdraw",
					"outputs": [],
					"stateMutability": "nonpayable",
					"type": "function"
				}
			],
			"devdoc": {
				"kind": "dev",
				"methods": {},
				"version": 1
			},
			"evm": {
				"assembly": "    /* \"StudentSavingsWallet.sol\":61:3344  contract StudentSavingsWallet {... */\n  mstore(0x40, 0x80)\n    /* \"StudentSavingsWallet.sol\":782:937  constructor(uint256 _minDeposit, uint256 _lockTime) {... */\n  callvalue\n  dup1\n  iszero\n  tag_1\n  jumpi\n  revert(0x00, 0x00)\ntag_1:\n  pop\n  mload(0x40)\n  sub(codesize, bytecodeSize)\n  dup1\n  bytecodeSize\n  dup4\n  codecopy\n  dup2\n  dup2\n  add\n  0x40\n  mstore\n  dup2\n  add\n  swap1\n  tag_2\n  swap2\n  swap1\n  tag_3\n  jump\t// in\ntag_2:\n    /* \"StudentSavingsWallet.sol\":853:863  msg.sender */\n  caller\n    /* \"StudentSavingsWallet.sol\":845:850  owner */\n  0x01\n  0x00\n    /* \"StudentSavingsWallet.sol\":845:863  owner = msg.sender */\n  0x0100\n  exp\n  dup2\n  sload\n  dup2\n  0xffffffffffffffffffffffffffffffffffffffff\n  mul\n  not\n  and\n  swap1\n  dup4\n  0xffffffffffffffffffffffffffffffffffffffff\n  and\n  mul\n  or\n  swap1\n  sstore\n  pop\n    /* \"StudentSavingsWallet.sol\":887:898  _minDeposit */\n  dup2\n    /* \"StudentSavingsWallet.sol\":874:884  minDeposit */\n  0x02\n    /* \"StudentSavingsWallet.sol\":874:898  minDeposit = _minDeposit */\n  dup2\n  swap1\n  sstore\n  pop\n    /* \"StudentSavingsWallet.sol\":920:929  _lockTime */\n  dup1\n    /* \"StudentSavingsWallet.sol\":909:917  lockTime */\n  0x03\n    /* \"StudentSavingsWallet.sol\":909:929  lockTime = _lockTime */\n  dup2\n  swap1\n  sstore\n  pop\n    /* \"StudentSavingsWallet.sol\":782:937  constructor(uint256 _minDeposit, uint256 _lockTime) {... */\n  pop\n  pop\n    /* \"StudentSavingsWallet.sol\":61:3344  contract StudentSavingsWallet {... */\n  jump(tag_6)\n    /* \"#utility.yul\":88:205   */\ntag_8:\n    /* \"#utility.yul\":197:198   */\n  0x00\n    /* \"#utility.yul\":194:195   */\n  0x00\n    /* \"#utility.yul\":187:199   */\n  revert\n    /* \"#utility.yul\":334:411   */\ntag_10:\n    /* \"#utility.yul\":371:378   */\n  0x00\n    /* \"#utility.yul\":400:405   */\n  dup2\n    /* \"#utility.yul\":389:405   */\n  swap1\n  pop\n    /* \"#utility.yul\":334:411   */\n  swap2\n  swap1\n  pop\n  jump\t// out\n    /* \"#utility.yul\":417:539   */\ntag_11:\n    /* \"#utility.yul\":490:514   */\n  tag_19\n    /* \"#utility.yul\":508:513   */\n  dup2\n    /* \"#utility.yul\":490:514   */\n  tag_10\n  jump\t// in\ntag_19:\n    /* \"#utility.yul\":483:488   */\n  dup2\n    /* \"#utility.yul\":480:515   */\n  eq\n    /* \"#utility.yul\":470:533   */\n  tag_20\n  jumpi\n    /* \"#utility.yul\":529:530   */\n  0x00\n    /* \"#utility.yul\":526:527   */\n  0x00\n    /* \"#utility.yul\":519:531   */\n  revert\n    /* \"#utility.yul\":470:533   */\ntag_20:\n    /* \"#utility.yul\":417:539   */\n  pop\n  jump\t// out\n    /* \"#utility.yul\":545:688   */\ntag_12:\n    /* \"#utility.yul\":602:607   */\n  0x00\n    /* \"#utility.yul\":633:639   */\n  dup2\n    /* \"#utility.yul\":627:640   */\n  mload\n    /* \"#utility.yul\":618:640   */\n  swap1\n  pop\n    /* \"#utility.yul\":649:682   */\n  tag_22\n    /* \"#utility.yul\":676:681   */\n  dup2\n    /* \"#utility.yul\":649:682   */\n  tag_11\n  jump\t// in\ntag_22:\n    /* \"#utility.yul\":545:688   */\n  swap3\n  swap2\n  pop\n  pop\n  jump\t// out\n    /* \"#utility.yul\":694:1201   */\ntag_3:\n    /* \"#utility.yul\":773:779   */\n  0x00\n    /* \"#utility.yul\":781:787   */\n  0x00\n    /* \"#utility.yul\":830:832   */\n  0x40\n    /* \"#utility.yul\":818:827   */\n  dup4\n    /* \"#utility.yul\":809:816   */\n  dup6\n    /* \"#utility.yul\":805:828   */\n  sub\n    /* \"#utility.yul\":801:833   */\n  slt\n    /* \"#utility.yul\":798:917   */\n  iszero\n  tag_24\n  jumpi\n    /* \"#utility.yul\":836:915   */\n  tag_25\n  tag_8\n  jump\t// in\ntag_25:\n    /* \"#utility.yul\":798:917   */\ntag_24:\n    /* \"#utility.yul\":956:957   */\n  0x00\n    /* \"#utility.yul\":981:1045   */\n  tag_26\n    /* \"#utility.yul\":1037:1044   */\n  dup6\n    /* \"#utility.yul\":1028:1034   */\n  dup3\n    /* \"#utility.yul\":1017:1026   */\n  dup7\n    /* \"#utility.yul\":1013:1035   */\n  add\n    /* \"#utility.yul\":981:1045   */\n  tag_12\n  jump\t// in\ntag_26:\n    /* \"#utility.yul\":971:1045   */\n  swap3\n  pop\n    /* \"#utility.yul\":927:1055   */\n  pop\n    /* \"#utility.yul\":1094:1096   */\n  0x20\n    /* \"#utility.yul\":1120:1184   */\n  tag_27\n    /* \"#utility.yul\":1176:1183   */\n  dup6\n    /* \"#utility.yul\":1167:1173   */\n  dup3\n    /* \"#utility.yul\":1156:1165   */\n  dup7\n    /* \"#utility.yul\":1152:1174   */\n  add\n    /* \"#utility.yul\":1120:1184   */\n  tag_12\n  jump\t// in\ntag_27:\n    /* \"#utility.yul\":1110:1184   */\n  swap2\n  pop\n    /* \"#utility.yul\":1065:1194   */\n  pop\n    /* \"#utility.yul\":694:1201   */\n  swap3\n  pop\n  swap3\n  swap1\n  pop\n  jump\t// out\n    /* \"StudentSavingsWallet.sol\":61:3344  contract StudentSavingsWallet {... */\ntag_6:\n  dataSize(sub_0)\n  dup1\n  dataOffset(sub_0)\n  0x00\n  codecopy\n  0x00\n  return\nstop\n\nsub_0: assembly {\n        /* \"StudentSavingsWallet.sol\":61:3344  contract StudentSavingsWallet {... */\n      mstore(0x40, 0x80)\n      jumpi(tag_1, lt(calldatasize, 0x04))\n      shr(0xe0, calldataload(0x00))\n      dup1\n      0x8da5cb5b\n      gt\n      tag_14\n      jumpi\n      dup1\n      0x8da5cb5b\n      eq\n      tag_8\n      jumpi\n      dup1\n      0x8fcc9cfb\n      eq\n      tag_9\n      jumpi\n      dup1\n      0x9ace38c2\n      eq\n      tag_10\n      jumpi\n      dup1\n      0xae04d45d\n      eq\n      tag_11\n      jumpi\n      dup1\n      0xb76d4fc3\n      eq\n      tag_12\n      jumpi\n      dup1\n      0xd0e30db0\n      eq\n      tag_13\n      jumpi\n      jump(tag_1)\n    tag_14:\n      dup1\n      0x0d668087\n      eq\n      tag_2\n      jumpi\n      dup1\n      0x12065fe0\n      eq\n      tag_3\n      jumpi\n      dup1\n      0x27e235e3\n      eq\n      tag_4\n      jumpi\n      dup1\n      0x2e1a7d4d\n      eq\n      tag_5\n      jumpi\n      dup1\n      0x41b3d185\n      eq\n      tag_6\n      jumpi\n      dup1\n      0x4de5120e\n      eq\n      tag_7\n      jumpi\n    tag_1:\n      revert(0x00, 0x00)\n        /* \"StudentSavingsWallet.sol\":231:254  uint256 public lockTime */\n    tag_2:\n      callvalue\n      dup1\n      iszero\n      tag_15\n      jumpi\n      revert(0x00, 0x00)\n    tag_15:\n      pop\n      tag_16\n      tag_17\n      jump\t// in\n    tag_16:\n      mload(0x40)\n      tag_18\n      swap2\n      swap1\n      tag_19\n      jump\t// in\n    tag_18:\n      mload(0x40)\n      dup1\n      swap2\n      sub\n      swap1\n      return\n        /* \"StudentSavingsWallet.sol\":2266:2364  function getBalance() public view returns (uint256) {... */\n    tag_3:\n      callvalue\n      dup1\n      iszero\n      tag_20\n      jumpi\n      revert(0x00, 0x00)\n    tag_20:\n      pop\n      tag_21\n      tag_22\n      jump\t// in\n    tag_21:\n      mload(0x40)\n      tag_23\n      swap2\n      swap1\n      tag_19\n      jump\t// in\n    tag_23:\n      mload(0x40)\n      dup1\n      swap2\n      sub\n      swap1\n      return\n        /* \"StudentSavingsWallet.sol\":122:165  mapping(address => uint256) public balances */\n    tag_4:\n      callvalue\n      dup1\n      iszero\n      tag_24\n      jumpi\n      revert(0x00, 0x00)\n    tag_24:\n      pop\n      tag_25\n      0x04\n      dup1\n      calldatasize\n      sub\n      dup2\n      add\n      swap1\n      tag_26\n      swap2\n      swap1\n      tag_27\n      jump\t// in\n    tag_26:\n      tag_28\n      jump\t// in\n    tag_25:\n      mload(0x40)\n      tag_29\n      swap2\n      swap1\n      tag_19\n      jump\t// in\n    tag_29:\n      mload(0x40)\n      dup1\n      swap2\n      sub\n      swap1\n      return\n        /* \"StudentSavingsWallet.sol\":1572:2231  function withdraw(uint256 _amount) public {... */\n    tag_5:\n      callvalue\n      dup1\n      iszero\n      tag_30\n      jumpi\n      revert(0x00, 0x00)\n    tag_30:\n      pop\n      tag_31\n      0x04\n      dup1\n      calldatasize\n      sub\n      dup2\n      add\n      swap1\n      tag_32\n      swap2\n      swap1\n      tag_33\n      jump\t// in\n    tag_32:\n      tag_34\n      jump\t// in\n    tag_31:\n      stop\n        /* \"StudentSavingsWallet.sol\":199:224  uint256 public minDeposit */\n    tag_6:\n      callvalue\n      dup1\n      iszero\n      tag_35\n      jumpi\n      revert(0x00, 0x00)\n    tag_35:\n      pop\n      tag_36\n      tag_37\n      jump\t// in\n    tag_36:\n      mload(0x40)\n      tag_38\n      swap2\n      swap1\n      tag_19\n      jump\t// in\n    tag_38:\n      mload(0x40)\n      dup1\n      swap2\n      sub\n      swap1\n      return\n        /* \"StudentSavingsWallet.sol\":261:314  mapping(address => uint256) public lastWithdrawalTime */\n    tag_7:\n      callvalue\n      dup1\n      iszero\n      tag_39\n      jumpi\n      revert(0x00, 0x00)\n    tag_39:\n      pop\n      tag_40\n      0x04\n      dup1\n      calldatasize\n      sub\n      dup2\n      add\n      swap1\n      tag_41\n      swap2\n      swap1\n      tag_27\n      jump\t// in\n    tag_41:\n      tag_42\n      jump\t// in\n    tag_40:\n      mload(0x40)\n      tag_43\n      swap2\n      swap1\n      tag_19\n      jump\t// in\n    tag_43:\n      mload(0x40)\n      dup1\n      swap2\n      sub\n      swap1\n      return\n        /* \"StudentSavingsWallet.sol\":172:192  address public owner */\n    tag_8:\n      callvalue\n      dup1\n      iszero\n      tag_44\n      jumpi\n      revert(0x00, 0x00)\n    tag_44:\n      pop\n      tag_45\n      tag_46\n      jump\t// in\n    tag_45:\n      mload(0x40)\n      tag_47\n      swap2\n      swap1\n      tag_48\n      jump\t// in\n    tag_47:\n      mload(0x40)\n      dup1\n      swap2\n      sub\n      swap1\n      return\n        /* \"StudentSavingsWallet.sol\":3077:3227  function setMinDeposit(uint256 _newMin) public onlyOwner {... */\n    tag_9:\n      callvalue\n      dup1\n      iszero\n      tag_49\n      jumpi\n      revert(0x00, 0x00)\n    tag_49:\n      pop\n      tag_50\n      0x04\n      dup1\n      calldatasize\n      sub\n      dup2\n      add\n      swap1\n      tag_51\n      swap2\n      swap1\n      tag_33\n      jump\t// in\n    tag_51:\n      tag_52\n      jump\t// in\n    tag_50:\n      stop\n        /* \"StudentSavingsWallet.sol\":496:529  Transaction[] public transactions */\n    tag_10:\n      callvalue\n      dup1\n      iszero\n      tag_53\n      jumpi\n      revert(0x00, 0x00)\n    tag_53:\n      pop\n      tag_54\n      0x04\n      dup1\n      calldatasize\n      sub\n      dup2\n      add\n      swap1\n      tag_55\n      swap2\n      swap1\n      tag_33\n      jump\t// in\n    tag_55:\n      tag_56\n      jump\t// in\n    tag_54:\n      mload(0x40)\n      tag_57\n      swap5\n      swap4\n      swap3\n      swap2\n      swap1\n      tag_58\n      jump\t// in\n    tag_57:\n      mload(0x40)\n      dup1\n      swap2\n      sub\n      swap1\n      return\n        /* \"StudentSavingsWallet.sol\":3239:3341  function setLockTime(uint256 _newLockTime) public onlyOwner {... */\n    tag_11:\n      callvalue\n      dup1\n      iszero\n      tag_59\n      jumpi\n      revert(0x00, 0x00)\n    tag_59:\n      pop\n      tag_60\n      0x04\n      dup1\n      calldatasize\n      sub\n      dup2\n      add\n      swap1\n      tag_61\n      swap2\n      swap1\n      tag_33\n      jump\t// in\n    tag_61:\n      tag_62\n      jump\t// in\n    tag_60:\n      stop\n        /* \"StudentSavingsWallet.sol\":2376:3041  function getTransactionHistory() public view returns (Transaction[] memory) {... */\n    tag_12:\n      callvalue\n      dup1\n      iszero\n      tag_63\n      jumpi\n      revert(0x00, 0x00)\n    tag_63:\n      pop\n      tag_64\n      tag_65\n      jump\t// in\n    tag_64:\n      mload(0x40)\n      tag_66\n      swap2\n      swap1\n      tag_67\n      jump\t// in\n    tag_66:\n      mload(0x40)\n      dup1\n      swap2\n      sub\n      swap1\n      return\n        /* \"StudentSavingsWallet.sol\":1094:1534  function deposit() public payable {... */\n    tag_13:\n      tag_68\n      tag_69\n      jump\t// in\n    tag_68:\n      stop\n        /* \"StudentSavingsWallet.sol\":231:254  uint256 public lockTime */\n    tag_17:\n      sload(0x03)\n      dup2\n      jump\t// out\n        /* \"StudentSavingsWallet.sol\":2266:2364  function getBalance() public view returns (uint256) {... */\n    tag_22:\n        /* \"StudentSavingsWallet.sol\":2309:2316  uint256 */\n      0x00\n        /* \"StudentSavingsWallet.sol\":2336:2344  balances */\n      0x00\n        /* \"StudentSavingsWallet.sol\":2336:2356  balances[msg.sender] */\n      0x00\n        /* \"StudentSavingsWallet.sol\":2345:2355  msg.sender */\n      caller\n        /* \"StudentSavingsWallet.sol\":2336:2356  balances[msg.sender] */\n      0xffffffffffffffffffffffffffffffffffffffff\n      and\n      0xffffffffffffffffffffffffffffffffffffffff\n      and\n      dup2\n      mstore\n      0x20\n      add\n      swap1\n      dup2\n      mstore\n      0x20\n      add\n      0x00\n      keccak256\n      sload\n        /* \"StudentSavingsWallet.sol\":2329:2356  return balances[msg.sender] */\n      swap1\n      pop\n        /* \"StudentSavingsWallet.sol\":2266:2364  function getBalance() public view returns (uint256) {... */\n      swap1\n      jump\t// out\n        /* \"StudentSavingsWallet.sol\":122:165  mapping(address => uint256) public balances */\n    tag_28:\n      mstore(0x20, 0x00)\n      dup1\n      0x00\n      mstore\n      keccak256(0x00, 0x40)\n      0x00\n      swap2\n      pop\n      swap1\n      pop\n      sload\n      dup2\n      jump\t// out\n        /* \"StudentSavingsWallet.sol\":1572:2231  function withdraw(uint256 _amount) public {... */\n    tag_34:\n        /* \"StudentSavingsWallet.sol\":1657:1664  _amount */\n      dup1\n        /* \"StudentSavingsWallet.sol\":1633:1641  balances */\n      0x00\n        /* \"StudentSavingsWallet.sol\":1633:1653  balances[msg.sender] */\n      0x00\n        /* \"StudentSavingsWallet.sol\":1642:1652  msg.sender */\n      caller\n        /* \"StudentSavingsWallet.sol\":1633:1653  balances[msg.sender] */\n      0xffffffffffffffffffffffffffffffffffffffff\n      and\n      0xffffffffffffffffffffffffffffffffffffffff\n      and\n      dup2\n      mstore\n      0x20\n      add\n      swap1\n      dup2\n      mstore\n      0x20\n      add\n      0x00\n      keccak256\n      sload\n        /* \"StudentSavingsWallet.sol\":1633:1664  balances[msg.sender] >= _amount */\n      lt\n      iszero\n        /* \"StudentSavingsWallet.sol\":1625:1689  require(balances[msg.sender] >= _amount, \"Insufficient balance\") */\n      tag_72\n      jumpi\n      mload(0x40)\n      0x08c379a000000000000000000000000000000000000000000000000000000000\n      dup2\n      mstore\n      0x04\n      add\n      tag_73\n      swap1\n      tag_74\n      jump\t// in\n    tag_73:\n      mload(0x40)\n      dup1\n      swap2\n      sub\n      swap1\n      revert\n    tag_72:\n        /* \"StudentSavingsWallet.sol\":1760:1768  lockTime */\n      sload(0x03)\n        /* \"StudentSavingsWallet.sol\":1727:1745  lastWithdrawalTime */\n      0x04\n        /* \"StudentSavingsWallet.sol\":1727:1757  lastWithdrawalTime[msg.sender] */\n      0x00\n        /* \"StudentSavingsWallet.sol\":1746:1756  msg.sender */\n      caller\n        /* \"StudentSavingsWallet.sol\":1727:1757  lastWithdrawalTime[msg.sender] */\n      0xffffffffffffffffffffffffffffffffffffffff\n      and\n      0xffffffffffffffffffffffffffffffffffffffff\n      and\n      dup2\n      mstore\n      0x20\n      add\n      swap1\n      dup2\n      mstore\n      0x20\n      add\n      0x00\n      keccak256\n      sload\n        /* \"StudentSavingsWallet.sol\":1727:1768  lastWithdrawalTime[msg.sender] + lockTime */\n      tag_75\n      swap2\n      swap1\n      tag_76\n      jump\t// in\n    tag_75:\n        /* \"StudentSavingsWallet.sol\":1708:1723  block.timestamp */\n      timestamp\n        /* \"StudentSavingsWallet.sol\":1708:1768  block.timestamp >= lastWithdrawalTime[msg.sender] + lockTime */\n      lt\n      iszero\n        /* \"StudentSavingsWallet.sol\":1700:1792  require(block.timestamp >= lastWithdrawalTime[msg.sender] + lockTime, \"Withdrawal too soon\") */\n      tag_77\n      jumpi\n      mload(0x40)\n      0x08c379a000000000000000000000000000000000000000000000000000000000\n      dup2\n      mstore\n      0x04\n      add\n      tag_78\n      swap1\n      tag_79\n      jump\t// in\n    tag_78:\n      mload(0x40)\n      dup1\n      swap2\n      sub\n      swap1\n      revert\n    tag_77:\n        /* \"StudentSavingsWallet.sol\":1837:1844  _amount */\n      dup1\n        /* \"StudentSavingsWallet.sol\":1813:1821  balances */\n      0x00\n        /* \"StudentSavingsWallet.sol\":1813:1833  balances[msg.sender] */\n      0x00\n        /* \"StudentSavingsWallet.sol\":1822:1832  msg.sender */\n      caller\n        /* \"StudentSavingsWallet.sol\":1813:1833  balances[msg.sender] */\n      0xffffffffffffffffffffffffffffffffffffffff\n      and\n      0xffffffffffffffffffffffffffffffffffffffff\n      and\n      dup2\n      mstore\n      0x20\n      add\n      swap1\n      dup2\n      mstore\n      0x20\n      add\n      0x00\n      keccak256\n      0x00\n        /* \"StudentSavingsWallet.sol\":1813:1844  balances[msg.sender] -= _amount */\n      dup3\n      dup3\n      sload\n      tag_80\n      swap2\n      swap1\n      tag_81\n      jump\t// in\n    tag_80:\n      swap3\n      pop\n      pop\n      dup2\n      swap1\n      sstore\n      pop\n        /* \"StudentSavingsWallet.sol\":1888:1903  block.timestamp */\n      timestamp\n        /* \"StudentSavingsWallet.sol\":1855:1873  lastWithdrawalTime */\n      0x04\n        /* \"StudentSavingsWallet.sol\":1855:1885  lastWithdrawalTime[msg.sender] */\n      0x00\n        /* \"StudentSavingsWallet.sol\":1874:1884  msg.sender */\n      caller\n        /* \"StudentSavingsWallet.sol\":1855:1885  lastWithdrawalTime[msg.sender] */\n      0xffffffffffffffffffffffffffffffffffffffff\n      and\n      0xffffffffffffffffffffffffffffffffffffffff\n      and\n      dup2\n      mstore\n      0x20\n      add\n      swap1\n      dup2\n      mstore\n      0x20\n      add\n      0x00\n      keccak256\n        /* \"StudentSavingsWallet.sol\":1855:1903  lastWithdrawalTime[msg.sender] = block.timestamp */\n      dup2\n      swap1\n      sstore\n      pop\n        /* \"StudentSavingsWallet.sol\":1922:1932  msg.sender */\n      caller\n        /* \"StudentSavingsWallet.sol\":1914:1942  payable(msg.sender).transfer */\n      0xffffffffffffffffffffffffffffffffffffffff\n      and\n        /* \"StudentSavingsWallet.sol\":1914:1951  payable(msg.sender).transfer(_amount) */\n      0x08fc\n        /* \"StudentSavingsWallet.sol\":1943:1950  _amount */\n      dup3\n        /* \"StudentSavingsWallet.sol\":1914:1951  payable(msg.sender).transfer(_amount) */\n      swap1\n      dup2\n      iszero\n      mul\n      swap1\n      mload(0x40)\n      0x00\n      mload(0x40)\n      dup1\n      dup4\n      sub\n      dup2\n      dup6\n      dup9\n      dup9\n      call\n      swap4\n      pop\n      pop\n      pop\n      pop\n      iszero\n      dup1\n      iszero\n      tag_83\n      jumpi\n      returndatacopy(0x00, 0x00, returndatasize)\n      revert(0x00, returndatasize)\n    tag_83:\n      pop\n        /* \"StudentSavingsWallet.sol\":1972:1984  transactions */\n      0x05\n        /* \"StudentSavingsWallet.sol\":1990:2149  Transaction({... */\n      mload(0x40)\n      dup1\n      0x80\n      add\n      0x40\n      mstore\n      dup1\n        /* \"StudentSavingsWallet.sol\":2023:2033  msg.sender */\n      caller\n        /* \"StudentSavingsWallet.sol\":1990:2149  Transaction({... */\n      0xffffffffffffffffffffffffffffffffffffffff\n      and\n      dup2\n      mstore\n      0x20\n      add\n        /* \"StudentSavingsWallet.sol\":2056:2063  _amount */\n      dup4\n        /* \"StudentSavingsWallet.sol\":1990:2149  Transaction({... */\n      dup2\n      mstore\n      0x20\n      add\n        /* \"StudentSavingsWallet.sol\":2089:2104  block.timestamp */\n      timestamp\n        /* \"StudentSavingsWallet.sol\":1990:2149  Transaction({... */\n      dup2\n      mstore\n      0x20\n      add\n      mload(0x40)\n      dup1\n      0x40\n      add\n      0x40\n      mstore\n      dup1\n      0x08\n      dup2\n      mstore\n      0x20\n      add\n      0x7769746864726177000000000000000000000000000000000000000000000000\n      dup2\n      mstore\n      pop\n      dup2\n      mstore\n      pop\n        /* \"StudentSavingsWallet.sol\":1972:2150  transactions.push(Transaction({... */\n      swap1\n      dup1\n      0x01\n      dup2\n      sload\n      add\n      dup1\n      dup3\n      sstore\n      dup1\n      swap2\n      pop\n      pop\n      0x01\n      swap1\n      sub\n      swap1\n      0x00\n      mstore\n      keccak256(0x00, 0x20)\n      swap1\n      0x04\n      mul\n      add\n      0x00\n      swap1\n      swap2\n      swap1\n      swap2\n      swap1\n      swap2\n      pop\n      0x00\n      dup3\n      add\n      mload\n      dup2\n      0x00\n      add\n      exp(0x0100, 0x00)\n      dup2\n      sload\n      dup2\n      0xffffffffffffffffffffffffffffffffffffffff\n      mul\n      not\n      and\n      swap1\n      dup4\n      0xffffffffffffffffffffffffffffffffffffffff\n      and\n      mul\n      or\n      swap1\n      sstore\n      pop\n      0x20\n      dup3\n      add\n      mload\n      dup2\n      0x01\n      add\n      sstore\n      0x40\n      dup3\n      add\n      mload\n      dup2\n      0x02\n      add\n      sstore\n      0x60\n      dup3\n      add\n      mload\n      dup2\n      0x03\n      add\n      swap1\n      dup2\n      tag_85\n      swap2\n      swap1\n      tag_86\n      jump\t// in\n    tag_85:\n      pop\n      pop\n      pop\n        /* \"StudentSavingsWallet.sol\":2186:2196  msg.sender */\n      caller\n        /* \"StudentSavingsWallet.sol\":2176:2223  Withdrawn(msg.sender, _amount, block.timestamp) */\n      0xffffffffffffffffffffffffffffffffffffffff\n      and\n      0x92ccf450a286a957af52509bc1c9939d1a6a481783e142e41e2499f0bb66ebc6\n        /* \"StudentSavingsWallet.sol\":2198:2205  _amount */\n      dup3\n        /* \"StudentSavingsWallet.sol\":2207:2222  block.timestamp */\n      timestamp\n        /* \"StudentSavingsWallet.sol\":2176:2223  Withdrawn(msg.sender, _amount, block.timestamp) */\n      mload(0x40)\n      tag_87\n      swap3\n      swap2\n      swap1\n      tag_88\n      jump\t// in\n    tag_87:\n      mload(0x40)\n      dup1\n      swap2\n      sub\n      swap1\n      log2\n        /* \"StudentSavingsWallet.sol\":1572:2231  function withdraw(uint256 _amount) public {... */\n      pop\n      jump\t// out\n        /* \"StudentSavingsWallet.sol\":199:224  uint256 public minDeposit */\n    tag_37:\n      sload(0x02)\n      dup2\n      jump\t// out\n        /* \"StudentSavingsWallet.sol\":261:314  mapping(address => uint256) public lastWithdrawalTime */\n    tag_42:\n      mstore(0x20, 0x04)\n      dup1\n      0x00\n      mstore\n      keccak256(0x00, 0x40)\n      0x00\n      swap2\n      pop\n      swap1\n      pop\n      sload\n      dup2\n      jump\t// out\n        /* \"StudentSavingsWallet.sol\":172:192  address public owner */\n    tag_46:\n      0x01\n      0x00\n      swap1\n      sload\n      swap1\n      0x0100\n      exp\n      swap1\n      div\n      0xffffffffffffffffffffffffffffffffffffffff\n      and\n      dup2\n      jump\t// out\n        /* \"StudentSavingsWallet.sol\":3077:3227  function setMinDeposit(uint256 _newMin) public onlyOwner {... */\n    tag_52:\n        /* \"StudentSavingsWallet.sol\":1003:1008  owner */\n      0x01\n      0x00\n      swap1\n      sload\n      swap1\n      0x0100\n      exp\n      swap1\n      div\n      0xffffffffffffffffffffffffffffffffffffffff\n      and\n        /* \"StudentSavingsWallet.sol\":989:1008  msg.sender == owner */\n      0xffffffffffffffffffffffffffffffffffffffff\n      and\n        /* \"StudentSavingsWallet.sol\":989:999  msg.sender */\n      caller\n        /* \"StudentSavingsWallet.sol\":989:1008  msg.sender == owner */\n      0xffffffffffffffffffffffffffffffffffffffff\n      and\n      eq\n        /* \"StudentSavingsWallet.sol\":981:1037  require(msg.sender == owner, \"Only owner can call this\") */\n      tag_90\n      jumpi\n      mload(0x40)\n      0x08c379a000000000000000000000000000000000000000000000000000000000\n      dup2\n      mstore\n      0x04\n      add\n      tag_91\n      swap1\n      tag_92\n      jump\t// in\n    tag_91:\n      mload(0x40)\n      dup1\n      swap2\n      sub\n      swap1\n      revert\n    tag_90:\n        /* \"StudentSavingsWallet.sol\":3150:3188  MinDepositChanged(minDeposit, _newMin) */\n      0xcacd94bd1e7bb1185c816a740d9439bc8eff8159f6f4ffad8d306b5aca2ebd92\n        /* \"StudentSavingsWallet.sol\":3168:3178  minDeposit */\n      sload(0x02)\n        /* \"StudentSavingsWallet.sol\":3180:3187  _newMin */\n      dup3\n        /* \"StudentSavingsWallet.sol\":3150:3188  MinDepositChanged(minDeposit, _newMin) */\n      mload(0x40)\n      tag_94\n      swap3\n      swap2\n      swap1\n      tag_88\n      jump\t// in\n    tag_94:\n      mload(0x40)\n      dup1\n      swap2\n      sub\n      swap1\n      log1\n        /* \"StudentSavingsWallet.sol\":3212:3219  _newMin */\n      dup1\n        /* \"StudentSavingsWallet.sol\":3199:3209  minDeposit */\n      0x02\n        /* \"StudentSavingsWallet.sol\":3199:3219  minDeposit = _newMin */\n      dup2\n      swap1\n      sstore\n      pop\n        /* \"StudentSavingsWallet.sol\":3077:3227  function setMinDeposit(uint256 _newMin) public onlyOwner {... */\n      pop\n      jump\t// out\n        /* \"StudentSavingsWallet.sol\":496:529  Transaction[] public transactions */\n    tag_56:\n      0x05\n      dup2\n      dup2\n      sload\n      dup2\n      lt\n      tag_95\n      jumpi\n      0x00\n      dup1\n      revert\n    tag_95:\n      swap1\n      0x00\n      mstore\n      keccak256(0x00, 0x20)\n      swap1\n      0x04\n      mul\n      add\n      0x00\n      swap2\n      pop\n      swap1\n      pop\n      dup1\n      0x00\n      add\n      0x00\n      swap1\n      sload\n      swap1\n      0x0100\n      exp\n      swap1\n      div\n      0xffffffffffffffffffffffffffffffffffffffff\n      and\n      swap1\n      dup1\n      0x01\n      add\n      sload\n      swap1\n      dup1\n      0x02\n      add\n      sload\n      swap1\n      dup1\n      0x03\n      add\n      dup1\n      sload\n      tag_97\n      swap1\n      tag_98\n      jump\t// in\n    tag_97:\n      dup1\n      0x1f\n      add\n      0x20\n      dup1\n      swap2\n      div\n      mul\n      0x20\n      add\n      mload(0x40)\n      swap1\n      dup2\n      add\n      0x40\n      mstore\n      dup1\n      swap3\n      swap2\n      swap1\n      dup2\n      dup2\n      mstore\n      0x20\n      add\n      dup3\n      dup1\n      sload\n      tag_99\n      swap1\n      tag_98\n      jump\t// in\n    tag_99:\n      dup1\n      iszero\n      tag_100\n      jumpi\n      dup1\n      0x1f\n      lt\n      tag_101\n      jumpi\n      0x0100\n      dup1\n      dup4\n      sload\n      div\n      mul\n      dup4\n      mstore\n      swap2\n      0x20\n      add\n      swap2\n      jump(tag_100)\n    tag_101:\n      dup3\n      add\n      swap2\n      swap1\n      0x00\n      mstore\n      keccak256(0x00, 0x20)\n      swap1\n    tag_102:\n      dup2\n      sload\n      dup2\n      mstore\n      swap1\n      0x01\n      add\n      swap1\n      0x20\n      add\n      dup1\n      dup4\n      gt\n      tag_102\n      jumpi\n      dup3\n      swap1\n      sub\n      0x1f\n      and\n      dup3\n      add\n      swap2\n    tag_100:\n      pop\n      pop\n      pop\n      pop\n      pop\n      swap1\n      pop\n      dup5\n      jump\t// out\n        /* \"StudentSavingsWallet.sol\":3239:3341  function setLockTime(uint256 _newLockTime) public onlyOwner {... */\n    tag_62:\n        /* \"StudentSavingsWallet.sol\":1003:1008  owner */\n      0x01\n      0x00\n      swap1\n      sload\n      swap1\n      0x0100\n      exp\n      swap1\n      div\n      0xffffffffffffffffffffffffffffffffffffffff\n      and\n        /* \"StudentSavingsWallet.sol\":989:1008  msg.sender == owner */\n      0xffffffffffffffffffffffffffffffffffffffff\n      and\n        /* \"StudentSavingsWallet.sol\":989:999  msg.sender */\n      caller\n        /* \"StudentSavingsWallet.sol\":989:1008  msg.sender == owner */\n      0xffffffffffffffffffffffffffffffffffffffff\n      and\n      eq\n        /* \"StudentSavingsWallet.sol\":981:1037  require(msg.sender == owner, \"Only owner can call this\") */\n      tag_104\n      jumpi\n      mload(0x40)\n      0x08c379a000000000000000000000000000000000000000000000000000000000\n      dup2\n      mstore\n      0x04\n      add\n      tag_105\n      swap1\n      tag_92\n      jump\t// in\n    tag_105:\n      mload(0x40)\n      dup1\n      swap2\n      sub\n      swap1\n      revert\n    tag_104:\n        /* \"StudentSavingsWallet.sol\":3321:3333  _newLockTime */\n      dup1\n        /* \"StudentSavingsWallet.sol\":3310:3318  lockTime */\n      0x03\n        /* \"StudentSavingsWallet.sol\":3310:3333  lockTime = _newLockTime */\n      dup2\n      swap1\n      sstore\n      pop\n        /* \"StudentSavingsWallet.sol\":3239:3341  function setLockTime(uint256 _newLockTime) public onlyOwner {... */\n      pop\n      jump\t// out\n        /* \"StudentSavingsWallet.sol\":2376:3041  function getTransactionHistory() public view returns (Transaction[] memory) {... */\n    tag_65:\n        /* \"StudentSavingsWallet.sol\":2430:2450  Transaction[] memory */\n      0x60\n        /* \"StudentSavingsWallet.sol\":2463:2476  uint256 count */\n      0x00\n        /* \"StudentSavingsWallet.sol\":2479:2480  0 */\n      0x00\n        /* \"StudentSavingsWallet.sol\":2463:2480  uint256 count = 0 */\n      swap1\n      pop\n        /* \"StudentSavingsWallet.sol\":2495:2501  uint i */\n      0x00\n        /* \"StudentSavingsWallet.sol\":2504:2505  0 */\n      0x00\n        /* \"StudentSavingsWallet.sol\":2495:2505  uint i = 0 */\n      swap1\n      pop\n        /* \"StudentSavingsWallet.sol\":2491:2644  for(uint i = 0; i < transactions.length; i++) {... */\n    tag_108:\n        /* \"StudentSavingsWallet.sol\":2511:2523  transactions */\n      0x05\n        /* \"StudentSavingsWallet.sol\":2511:2530  transactions.length */\n      dup1\n      sload\n      swap1\n      pop\n        /* \"StudentSavingsWallet.sol\":2507:2508  i */\n      dup2\n        /* \"StudentSavingsWallet.sol\":2507:2530  i < transactions.length */\n      lt\n        /* \"StudentSavingsWallet.sol\":2491:2644  for(uint i = 0; i < transactions.length; i++) {... */\n      iszero\n      tag_109\n      jumpi\n        /* \"StudentSavingsWallet.sol\":2579:2589  msg.sender */\n      caller\n        /* \"StudentSavingsWallet.sol\":2555:2589  transactions[i].user == msg.sender */\n      0xffffffffffffffffffffffffffffffffffffffff\n      and\n        /* \"StudentSavingsWallet.sol\":2555:2567  transactions */\n      0x05\n        /* \"StudentSavingsWallet.sol\":2568:2569  i */\n      dup3\n        /* \"StudentSavingsWallet.sol\":2555:2570  transactions[i] */\n      dup2\n      sload\n      dup2\n      lt\n      tag_111\n      jumpi\n      tag_112\n      tag_113\n      jump\t// in\n    tag_112:\n    tag_111:\n      swap1\n      0x00\n      mstore\n      keccak256(0x00, 0x20)\n      swap1\n      0x04\n      mul\n      add\n        /* \"StudentSavingsWallet.sol\":2555:2575  transactions[i].user */\n      0x00\n      add\n      0x00\n      swap1\n      sload\n      swap1\n      0x0100\n      exp\n      swap1\n      div\n      0xffffffffffffffffffffffffffffffffffffffff\n      and\n        /* \"StudentSavingsWallet.sol\":2555:2589  transactions[i].user == msg.sender */\n      0xffffffffffffffffffffffffffffffffffffffff\n      and\n      sub\n        /* \"StudentSavingsWallet.sol\":2552:2633  if(transactions[i].user == msg.sender) {... */\n      tag_115\n      jumpi\n        /* \"StudentSavingsWallet.sol\":2610:2617  count++ */\n      dup2\n      dup1\n      tag_116\n      swap1\n      tag_117\n      jump\t// in\n    tag_116:\n      swap3\n      pop\n      pop\n        /* \"StudentSavingsWallet.sol\":2552:2633  if(transactions[i].user == msg.sender) {... */\n    tag_115:\n        /* \"StudentSavingsWallet.sol\":2532:2535  i++ */\n      dup1\n      dup1\n      0x01\n      add\n      swap2\n      pop\n      pop\n        /* \"StudentSavingsWallet.sol\":2491:2644  for(uint i = 0; i < transactions.length; i++) {... */\n      jump(tag_108)\n    tag_109:\n      pop\n        /* \"StudentSavingsWallet.sol\":2664:2701  Transaction[] memory userTransactions */\n      0x00\n        /* \"StudentSavingsWallet.sol\":2722:2727  count */\n      dup2\n        /* \"StudentSavingsWallet.sol\":2704:2728  new Transaction[](count) */\n      0xffffffffffffffff\n      dup2\n      gt\n      iszero\n      tag_118\n      jumpi\n      tag_119\n      tag_120\n      jump\t// in\n    tag_119:\n    tag_118:\n      mload(0x40)\n      swap1\n      dup1\n      dup3\n      mstore\n      dup1\n      0x20\n      mul\n      0x20\n      add\n      dup3\n      add\n      0x40\n      mstore\n      dup1\n      iszero\n      tag_121\n      jumpi\n      dup2\n      0x20\n      add\n    tag_122:\n      tag_123\n      tag_124\n      jump\t// in\n    tag_123:\n      dup2\n      mstore\n      0x20\n      add\n      swap1\n      0x01\n      swap1\n      sub\n      swap1\n      dup2\n      tag_122\n      jumpi\n      swap1\n      pop\n    tag_121:\n      pop\n        /* \"StudentSavingsWallet.sol\":2664:2728  Transaction[] memory userTransactions = new Transaction[](count) */\n      swap1\n      pop\n        /* \"StudentSavingsWallet.sol\":2739:2752  uint256 index */\n      0x00\n        /* \"StudentSavingsWallet.sol\":2755:2756  0 */\n      0x00\n        /* \"StudentSavingsWallet.sol\":2739:2756  uint256 index = 0 */\n      swap1\n      pop\n        /* \"StudentSavingsWallet.sol\":2781:2787  uint i */\n      0x00\n        /* \"StudentSavingsWallet.sol\":2790:2791  0 */\n      0x00\n        /* \"StudentSavingsWallet.sol\":2781:2791  uint i = 0 */\n      swap1\n      pop\n        /* \"StudentSavingsWallet.sol\":2777:2990  for(uint i = 0; i < transactions.length; i++) {... */\n    tag_125:\n        /* \"StudentSavingsWallet.sol\":2797:2809  transactions */\n      0x05\n        /* \"StudentSavingsWallet.sol\":2797:2816  transactions.length */\n      dup1\n      sload\n      swap1\n      pop\n        /* \"StudentSavingsWallet.sol\":2793:2794  i */\n      dup2\n        /* \"StudentSavingsWallet.sol\":2793:2816  i < transactions.length */\n      lt\n        /* \"StudentSavingsWallet.sol\":2777:2990  for(uint i = 0; i < transactions.length; i++) {... */\n      iszero\n      tag_126\n      jumpi\n        /* \"StudentSavingsWallet.sol\":2865:2875  msg.sender */\n      caller\n        /* \"StudentSavingsWallet.sol\":2841:2875  transactions[i].user == msg.sender */\n      0xffffffffffffffffffffffffffffffffffffffff\n      and\n        /* \"StudentSavingsWallet.sol\":2841:2853  transactions */\n      0x05\n        /* \"StudentSavingsWallet.sol\":2854:2855  i */\n      dup3\n        /* \"StudentSavingsWallet.sol\":2841:2856  transactions[i] */\n      dup2\n      sload\n      dup2\n      lt\n      tag_128\n      jumpi\n      tag_129\n      tag_113\n      jump\t// in\n    tag_129:\n    tag_128:\n      swap1\n      0x00\n      mstore\n      keccak256(0x00, 0x20)\n      swap1\n      0x04\n      mul\n      add\n        /* \"StudentSavingsWallet.sol\":2841:2861  transactions[i].user */\n      0x00\n      add\n      0x00\n      swap1\n      sload\n      swap1\n      0x0100\n      exp\n      swap1\n      div\n      0xffffffffffffffffffffffffffffffffffffffff\n      and\n        /* \"StudentSavingsWallet.sol\":2841:2875  transactions[i].user == msg.sender */\n      0xffffffffffffffffffffffffffffffffffffffff\n      and\n      sub\n        /* \"StudentSavingsWallet.sol\":2838:2979  if(transactions[i].user == msg.sender) {... */\n      tag_131\n      jumpi\n        /* \"StudentSavingsWallet.sol\":2922:2934  transactions */\n      0x05\n        /* \"StudentSavingsWallet.sol\":2935:2936  i */\n      dup2\n        /* \"StudentSavingsWallet.sol\":2922:2937  transactions[i] */\n      dup2\n      sload\n      dup2\n      lt\n      tag_132\n      jumpi\n      tag_133\n      tag_113\n      jump\t// in\n    tag_133:\n    tag_132:\n      swap1\n      0x00\n      mstore\n      keccak256(0x00, 0x20)\n      swap1\n      0x04\n      mul\n      add\n        /* \"StudentSavingsWallet.sol\":2896:2937  userTransactions[index] = transactions[i] */\n      mload(0x40)\n      dup1\n      0x80\n      add\n      0x40\n      mstore\n      swap1\n      dup2\n      0x00\n      dup3\n      add\n      0x00\n      swap1\n      sload\n      swap1\n      0x0100\n      exp\n      swap1\n      div\n      0xffffffffffffffffffffffffffffffffffffffff\n      and\n      0xffffffffffffffffffffffffffffffffffffffff\n      and\n      0xffffffffffffffffffffffffffffffffffffffff\n      and\n      dup2\n      mstore\n      0x20\n      add\n      0x01\n      dup3\n      add\n      sload\n      dup2\n      mstore\n      0x20\n      add\n      0x02\n      dup3\n      add\n      sload\n      dup2\n      mstore\n      0x20\n      add\n      0x03\n      dup3\n      add\n      dup1\n      sload\n      tag_135\n      swap1\n      tag_98\n      jump\t// in\n    tag_135:\n      dup1\n      0x1f\n      add\n      0x20\n      dup1\n      swap2\n      div\n      mul\n      0x20\n      add\n      mload(0x40)\n      swap1\n      dup2\n      add\n      0x40\n      mstore\n      dup1\n      swap3\n      swap2\n      swap1\n      dup2\n      dup2\n      mstore\n      0x20\n      add\n      dup3\n      dup1\n      sload\n      tag_136\n      swap1\n      tag_98\n      jump\t// in\n    tag_136:\n      dup1\n      iszero\n      tag_137\n      jumpi\n      dup1\n      0x1f\n      lt\n      tag_138\n      jumpi\n      0x0100\n      dup1\n      dup4\n      sload\n      div\n      mul\n      dup4\n      mstore\n      swap2\n      0x20\n      add\n      swap2\n      jump(tag_137)\n    tag_138:\n      dup3\n      add\n      swap2\n      swap1\n      0x00\n      mstore\n      keccak256(0x00, 0x20)\n      swap1\n    tag_139:\n      dup2\n      sload\n      dup2\n      mstore\n      swap1\n      0x01\n      add\n      swap1\n      0x20\n      add\n      dup1\n      dup4\n      gt\n      tag_139\n      jumpi\n      dup3\n      swap1\n      sub\n      0x1f\n      and\n      dup3\n      add\n      swap2\n    tag_137:\n      pop\n      pop\n      pop\n      pop\n      pop\n      dup2\n      mstore\n      pop\n      pop\n        /* \"StudentSavingsWallet.sol\":2896:2912  userTransactions */\n      dup4\n        /* \"StudentSavingsWallet.sol\":2913:2918  index */\n      dup4\n        /* \"StudentSavingsWallet.sol\":2896:2919  userTransactions[index] */\n      dup2\n      mload\n      dup2\n      lt\n      tag_140\n      jumpi\n      tag_141\n      tag_113\n      jump\t// in\n    tag_141:\n    tag_140:\n      0x20\n      mul\n      0x20\n      add\n      add\n        /* \"StudentSavingsWallet.sol\":2896:2937  userTransactions[index] = transactions[i] */\n      dup2\n      swap1\n      mstore\n      pop\n        /* \"StudentSavingsWallet.sol\":2956:2963  index++ */\n      dup2\n      dup1\n      tag_142\n      swap1\n      tag_117\n      jump\t// in\n    tag_142:\n      swap3\n      pop\n      pop\n        /* \"StudentSavingsWallet.sol\":2838:2979  if(transactions[i].user == msg.sender) {... */\n    tag_131:\n        /* \"StudentSavingsWallet.sol\":2818:2821  i++ */\n      dup1\n      dup1\n      0x01\n      add\n      swap2\n      pop\n      pop\n        /* \"StudentSavingsWallet.sol\":2777:2990  for(uint i = 0; i < transactions.length; i++) {... */\n      jump(tag_125)\n    tag_126:\n      pop\n        /* \"StudentSavingsWallet.sol\":3017:3033  userTransactions */\n      dup2\n        /* \"StudentSavingsWallet.sol\":3010:3033  return userTransactions */\n      swap4\n      pop\n      pop\n      pop\n      pop\n        /* \"StudentSavingsWallet.sol\":2376:3041  function getTransactionHistory() public view returns (Transaction[] memory) {... */\n      swap1\n      jump\t// out\n        /* \"StudentSavingsWallet.sol\":1094:1534  function deposit() public payable {... */\n    tag_69:\n        /* \"StudentSavingsWallet.sol\":1160:1170  minDeposit */\n      sload(0x02)\n        /* \"StudentSavingsWallet.sol\":1147:1156  msg.value */\n      callvalue\n        /* \"StudentSavingsWallet.sol\":1147:1170  msg.value >= minDeposit */\n      lt\n      iszero\n        /* \"StudentSavingsWallet.sol\":1139:1197  require(msg.value >= minDeposit, \"Deposit amount too low\") */\n      tag_144\n      jumpi\n      mload(0x40)\n      0x08c379a000000000000000000000000000000000000000000000000000000000\n      dup2\n      mstore\n      0x04\n      add\n      tag_145\n      swap1\n      tag_146\n      jump\t// in\n    tag_145:\n      mload(0x40)\n      dup1\n      swap2\n      sub\n      swap1\n      revert\n    tag_144:\n        /* \"StudentSavingsWallet.sol\":1242:1251  msg.value */\n      callvalue\n        /* \"StudentSavingsWallet.sol\":1218:1226  balances */\n      0x00\n        /* \"StudentSavingsWallet.sol\":1218:1238  balances[msg.sender] */\n      0x00\n        /* \"StudentSavingsWallet.sol\":1227:1237  msg.sender */\n      caller\n        /* \"StudentSavingsWallet.sol\":1218:1238  balances[msg.sender] */\n      0xffffffffffffffffffffffffffffffffffffffff\n      and\n      0xffffffffffffffffffffffffffffffffffffffff\n      and\n      dup2\n      mstore\n      0x20\n      add\n      swap1\n      dup2\n      mstore\n      0x20\n      add\n      0x00\n      keccak256\n      0x00\n        /* \"StudentSavingsWallet.sol\":1218:1251  balances[msg.sender] += msg.value */\n      dup3\n      dup3\n      sload\n      tag_147\n      swap2\n      swap1\n      tag_76\n      jump\t// in\n    tag_147:\n      swap3\n      pop\n      pop\n      dup2\n      swap1\n      sstore\n      pop\n        /* \"StudentSavingsWallet.sol\":1272:1284  transactions */\n      0x05\n        /* \"StudentSavingsWallet.sol\":1290:1450  Transaction({... */\n      mload(0x40)\n      dup1\n      0x80\n      add\n      0x40\n      mstore\n      dup1\n        /* \"StudentSavingsWallet.sol\":1323:1333  msg.sender */\n      caller\n        /* \"StudentSavingsWallet.sol\":1290:1450  Transaction({... */\n      0xffffffffffffffffffffffffffffffffffffffff\n      and\n      dup2\n      mstore\n      0x20\n      add\n        /* \"StudentSavingsWallet.sol\":1356:1365  msg.value */\n      callvalue\n        /* \"StudentSavingsWallet.sol\":1290:1450  Transaction({... */\n      dup2\n      mstore\n      0x20\n      add\n        /* \"StudentSavingsWallet.sol\":1391:1406  block.timestamp */\n      timestamp\n        /* \"StudentSavingsWallet.sol\":1290:1450  Transaction({... */\n      dup2\n      mstore\n      0x20\n      add\n      mload(0x40)\n      dup1\n      0x40\n      add\n      0x40\n      mstore\n      dup1\n      0x07\n      dup2\n      mstore\n      0x20\n      add\n      0x6465706f73697400000000000000000000000000000000000000000000000000\n      dup2\n      mstore\n      pop\n      dup2\n      mstore\n      pop\n        /* \"StudentSavingsWallet.sol\":1272:1451  transactions.push(Transaction({... */\n      swap1\n      dup1\n      0x01\n      dup2\n      sload\n      add\n      dup1\n      dup3\n      sstore\n      dup1\n      swap2\n      pop\n      pop\n      0x01\n      swap1\n      sub\n      swap1\n      0x00\n      mstore\n      keccak256(0x00, 0x20)\n      swap1\n      0x04\n      mul\n      add\n      0x00\n      swap1\n      swap2\n      swap1\n      swap2\n      swap1\n      swap2\n      pop\n      0x00\n      dup3\n      add\n      mload\n      dup2\n      0x00\n      add\n      exp(0x0100, 0x00)\n      dup2\n      sload\n      dup2\n      0xffffffffffffffffffffffffffffffffffffffff\n      mul\n      not\n      and\n      swap1\n      dup4\n      0xffffffffffffffffffffffffffffffffffffffff\n      and\n      mul\n      or\n      swap1\n      sstore\n      pop\n      0x20\n      dup3\n      add\n      mload\n      dup2\n      0x01\n      add\n      sstore\n      0x40\n      dup3\n      add\n      mload\n      dup2\n      0x02\n      add\n      sstore\n      0x60\n      dup3\n      add\n      mload\n      dup2\n      0x03\n      add\n      swap1\n      dup2\n      tag_149\n      swap2\n      swap1\n      tag_86\n      jump\t// in\n    tag_149:\n      pop\n      pop\n      pop\n        /* \"StudentSavingsWallet.sol\":1487:1497  msg.sender */\n      caller\n        /* \"StudentSavingsWallet.sol\":1477:1526  Deposited(msg.sender, msg.value, block.timestamp) */\n      0xffffffffffffffffffffffffffffffffffffffff\n      and\n      0x73a19dd210f1a7f902193214c0ee91dd35ee5b4d920cba8d519eca65a7b488ca\n        /* \"StudentSavingsWallet.sol\":1499:1508  msg.value */\n      callvalue\n        /* \"StudentSavingsWallet.sol\":1510:1525  block.timestamp */\n      timestamp\n        /* \"StudentSavingsWallet.sol\":1477:1526  Deposited(msg.sender, msg.value, block.timestamp) */\n      mload(0x40)\n      tag_150\n      swap3\n      swap2\n      swap1\n      tag_88\n      jump\t// in\n    tag_150:\n      mload(0x40)\n      dup1\n      swap2\n      sub\n      swap1\n      log2\n        /* \"StudentSavingsWallet.sol\":1094:1534  function deposit() public payable {... */\n      jump\t// out\n    tag_124:\n      mload(0x40)\n      dup1\n      0x80\n      add\n      0x40\n      mstore\n      dup1\n      and(0xffffffffffffffffffffffffffffffffffffffff, 0x00)\n      dup2\n      mstore\n      0x20\n      add\n      0x00\n      dup2\n      mstore\n      0x20\n      add\n      0x00\n      dup2\n      mstore\n      0x20\n      add\n      0x60\n      dup2\n      mstore\n      pop\n      swap1\n      jump\t// out\n        /* \"#utility.yul\":7:84   */\n    tag_151:\n        /* \"#utility.yul\":44:51   */\n      0x00\n        /* \"#utility.yul\":73:78   */\n      dup2\n        /* \"#utility.yul\":62:78   */\n      swap1\n      pop\n        /* \"#utility.yul\":7:84   */\n      swap2\n      swap1\n      pop\n      jump\t// out\n        /* \"#utility.yul\":90:208   */\n    tag_152:\n        /* \"#utility.yul\":177:201   */\n      tag_207\n        /* \"#utility.yul\":195:200   */\n      dup2\n        /* \"#utility.yul\":177:201   */\n      tag_151\n      jump\t// in\n    tag_207:\n        /* \"#utility.yul\":172:175   */\n      dup3\n        /* \"#utility.yul\":165:202   */\n      mstore\n        /* \"#utility.yul\":90:208   */\n      pop\n      pop\n      jump\t// out\n        /* \"#utility.yul\":214:436   */\n    tag_19:\n        /* \"#utility.yul\":307:311   */\n      0x00\n        /* \"#utility.yul\":345:347   */\n      0x20\n        /* \"#utility.yul\":334:343   */\n      dup3\n        /* \"#utility.yul\":330:348   */\n      add\n        /* \"#utility.yul\":322:348   */\n      swap1\n      pop\n        /* \"#utility.yul\":358:429   */\n      tag_209\n        /* \"#utility.yul\":426:427   */\n      0x00\n        /* \"#utility.yul\":415:424   */\n      dup4\n        /* \"#utility.yul\":411:428   */\n      add\n        /* \"#utility.yul\":402:408   */\n      dup5\n        /* \"#utility.yul\":358:429   */\n      tag_152\n      jump\t// in\n    tag_209:\n        /* \"#utility.yul\":214:436   */\n      swap3\n      swap2\n      pop\n      pop\n      jump\t// out\n        /* \"#utility.yul\":523:640   */\n    tag_154:\n        /* \"#utility.yul\":632:633   */\n      0x00\n        /* \"#utility.yul\":629:630   */\n      0x00\n        /* \"#utility.yul\":622:634   */\n      revert\n        /* \"#utility.yul\":769:895   */\n    tag_156:\n        /* \"#utility.yul\":806:813   */\n      0x00\n        /* \"#utility.yul\":846:888   */\n      0xffffffffffffffffffffffffffffffffffffffff\n        /* \"#utility.yul\":839:844   */\n      dup3\n        /* \"#utility.yul\":835:889   */\n      and\n        /* \"#utility.yul\":824:889   */\n      swap1\n      pop\n        /* \"#utility.yul\":769:895   */\n      swap2\n      swap1\n      pop\n      jump\t// out\n        /* \"#utility.yul\":901:997   */\n    tag_157:\n        /* \"#utility.yul\":938:945   */\n      0x00\n        /* \"#utility.yul\":967:991   */\n      tag_215\n        /* \"#utility.yul\":985:990   */\n      dup3\n        /* \"#utility.yul\":967:991   */\n      tag_156\n      jump\t// in\n    tag_215:\n        /* \"#utility.yul\":956:991   */\n      swap1\n      pop\n        /* \"#utility.yul\":901:997   */\n      swap2\n      swap1\n      pop\n      jump\t// out\n        /* \"#utility.yul\":1003:1125   */\n    tag_158:\n        /* \"#utility.yul\":1076:1100   */\n      tag_217\n        /* \"#utility.yul\":1094:1099   */\n      dup2\n        /* \"#utility.yul\":1076:1100   */\n      tag_157\n      jump\t// in\n    tag_217:\n        /* \"#utility.yul\":1069:1074   */\n      dup2\n        /* \"#utility.yul\":1066:1101   */\n      eq\n        /* \"#utility.yul\":1056:1119   */\n      tag_218\n      jumpi\n        /* \"#utility.yul\":1115:1116   */\n      0x00\n        /* \"#utility.yul\":1112:1113   */\n      0x00\n        /* \"#utility.yul\":1105:1117   */\n      revert\n        /* \"#utility.yul\":1056:1119   */\n    tag_218:\n        /* \"#utility.yul\":1003:1125   */\n      pop\n      jump\t// out\n        /* \"#utility.yul\":1131:1270   */\n    tag_159:\n        /* \"#utility.yul\":1177:1182   */\n      0x00\n        /* \"#utility.yul\":1215:1221   */\n      dup2\n        /* \"#utility.yul\":1202:1222   */\n      calldataload\n        /* \"#utility.yul\":1193:1222   */\n      swap1\n      pop\n        /* \"#utility.yul\":1231:1264   */\n      tag_220\n        /* \"#utility.yul\":1258:1263   */\n      dup2\n        /* \"#utility.yul\":1231:1264   */\n      tag_158\n      jump\t// in\n    tag_220:\n        /* \"#utility.yul\":1131:1270   */\n      swap3\n      swap2\n      pop\n      pop\n      jump\t// out\n        /* \"#utility.yul\":1276:1605   */\n    tag_27:\n        /* \"#utility.yul\":1335:1341   */\n      0x00\n        /* \"#utility.yul\":1384:1386   */\n      0x20\n        /* \"#utility.yul\":1372:1381   */\n      dup3\n        /* \"#utility.yul\":1363:1370   */\n      dup5\n        /* \"#utility.yul\":1359:1382   */\n      sub\n        /* \"#utility.yul\":1355:1387   */\n      slt\n        /* \"#utility.yul\":1352:1471   */\n      iszero\n      tag_222\n      jumpi\n        /* \"#utility.yul\":1390:1469   */\n      tag_223\n      tag_154\n      jump\t// in\n    tag_223:\n        /* \"#utility.yul\":1352:1471   */\n    tag_222:\n        /* \"#utility.yul\":1510:1511   */\n      0x00\n        /* \"#utility.yul\":1535:1588   */\n      tag_224\n        /* \"#utility.yul\":1580:1587   */\n      dup5\n        /* \"#utility.yul\":1571:1577   */\n      dup3\n        /* \"#utility.yul\":1560:1569   */\n      dup6\n        /* \"#utility.yul\":1556:1578   */\n      add\n        /* \"#utility.yul\":1535:1588   */\n      tag_159\n      jump\t// in\n    tag_224:\n        /* \"#utility.yul\":1525:1588   */\n      swap2\n      pop\n        /* \"#utility.yul\":1481:1598   */\n      pop\n        /* \"#utility.yul\":1276:1605   */\n      swap3\n      swap2\n      pop\n      pop\n      jump\t// out\n        /* \"#utility.yul\":1611:1733   */\n    tag_160:\n        /* \"#utility.yul\":1684:1708   */\n      tag_226\n        /* \"#utility.yul\":1702:1707   */\n      dup2\n        /* \"#utility.yul\":1684:1708   */\n      tag_151\n      jump\t// in\n    tag_226:\n        /* \"#utility.yul\":1677:1682   */\n      dup2\n        /* \"#utility.yul\":1674:1709   */\n      eq\n        /* \"#utility.yul\":1664:1727   */\n      tag_227\n      jumpi\n        /* \"#utility.yul\":1723:1724   */\n      0x00\n        /* \"#utility.yul\":1720:1721   */\n      0x00\n        /* \"#utility.yul\":1713:1725   */\n      revert\n        /* \"#utility.yul\":1664:1727   */\n    tag_227:\n        /* \"#utility.yul\":1611:1733   */\n      pop\n      jump\t// out\n        /* \"#utility.yul\":1739:1878   */\n    tag_161:\n        /* \"#utility.yul\":1785:1790   */\n      0x00\n        /* \"#utility.yul\":1823:1829   */\n      dup2\n        /* \"#utility.yul\":1810:1830   */\n      calldataload\n        /* \"#utility.yul\":1801:1830   */\n      swap1\n      pop\n        /* \"#utility.yul\":1839:1872   */\n      tag_229\n        /* \"#utility.yul\":1866:1871   */\n      dup2\n        /* \"#utility.yul\":1839:1872   */\n      tag_160\n      jump\t// in\n    tag_229:\n        /* \"#utility.yul\":1739:1878   */\n      swap3\n      swap2\n      pop\n      pop\n      jump\t// out\n        /* \"#utility.yul\":1884:2213   */\n    tag_33:\n        /* \"#utility.yul\":1943:1949   */\n      0x00\n        /* \"#utility.yul\":1992:1994   */\n      0x20\n        /* \"#utility.yul\":1980:1989   */\n      dup3\n        /* \"#utility.yul\":1971:1978   */\n      dup5\n        /* \"#utility.yul\":1967:1990   */\n      sub\n        /* \"#utility.yul\":1963:1995   */\n      slt\n        /* \"#utility.yul\":1960:2079   */\n      iszero\n      tag_231\n      jumpi\n        /* \"#utility.yul\":1998:2077   */\n      tag_232\n      tag_154\n      jump\t// in\n    tag_232:\n        /* \"#utility.yul\":1960:2079   */\n    tag_231:\n        /* \"#utility.yul\":2118:2119   */\n      0x00\n        /* \"#utility.yul\":2143:2196   */\n      tag_233\n        /* \"#utility.yul\":2188:2195   */\n      dup5\n        /* \"#utility.yul\":2179:2185   */\n      dup3\n        /* \"#utility.yul\":2168:2177   */\n      dup6\n        /* \"#utility.yul\":2164:2186   */\n      add\n        /* \"#utility.yul\":2143:2196   */\n      tag_161\n      jump\t// in\n    tag_233:\n        /* \"#utility.yul\":2133:2196   */\n      swap2\n      pop\n        /* \"#utility.yul\":2089:2206   */\n      pop\n        /* \"#utility.yul\":1884:2213   */\n      swap3\n      swap2\n      pop\n      pop\n      jump\t// out\n        /* \"#utility.yul\":2219:2337   */\n    tag_162:\n        /* \"#utility.yul\":2306:2330   */\n      tag_235\n        /* \"#utility.yul\":2324:2329   */\n      dup2\n        /* \"#utility.yul\":2306:2330   */\n      tag_157\n      jump\t// in\n    tag_235:\n        /* \"#utility.yul\":2301:2304   */\n      dup3\n        /* \"#utility.yul\":2294:2331   */\n      mstore\n        /* \"#utility.yul\":2219:2337   */\n      pop\n      pop\n      jump\t// out\n        /* \"#utility.yul\":2343:2565   */\n    tag_48:\n        /* \"#utility.yul\":2436:2440   */\n      0x00\n        /* \"#utility.yul\":2474:2476   */\n      0x20\n        /* \"#utility.yul\":2463:2472   */\n      dup3\n        /* \"#utility.yul\":2459:2477   */\n      add\n        /* \"#utility.yul\":2451:2477   */\n      swap1\n      pop\n        /* \"#utility.yul\":2487:2558   */\n      tag_237\n        /* \"#utility.yul\":2555:2556   */\n      0x00\n        /* \"#utility.yul\":2544:2553   */\n      dup4\n        /* \"#utility.yul\":2540:2557   */\n      add\n        /* \"#utility.yul\":2531:2537   */\n      dup5\n        /* \"#utility.yul\":2487:2558   */\n      tag_162\n      jump\t// in\n    tag_237:\n        /* \"#utility.yul\":2343:2565   */\n      swap3\n      swap2\n      pop\n      pop\n      jump\t// out\n        /* \"#utility.yul\":2571:2670   */\n    tag_163:\n        /* \"#utility.yul\":2623:2629   */\n      0x00\n        /* \"#utility.yul\":2657:2662   */\n      dup2\n        /* \"#utility.yul\":2651:2663   */\n      mload\n        /* \"#utility.yul\":2641:2663   */\n      swap1\n      pop\n        /* \"#utility.yul\":2571:2670   */\n      swap2\n      swap1\n      pop\n      jump\t// out\n        /* \"#utility.yul\":2676:2845   */\n    tag_164:\n        /* \"#utility.yul\":2760:2771   */\n      0x00\n        /* \"#utility.yul\":2794:2800   */\n      dup3\n        /* \"#utility.yul\":2789:2792   */\n      dup3\n        /* \"#utility.yul\":2782:2801   */\n      mstore\n        /* \"#utility.yul\":2834:2838   */\n      0x20\n        /* \"#utility.yul\":2829:2832   */\n      dup3\n        /* \"#utility.yul\":2825:2839   */\n      add\n        /* \"#utility.yul\":2810:2839   */\n      swap1\n      pop\n        /* \"#utility.yul\":2676:2845   */\n      swap3\n      swap2\n      pop\n      pop\n      jump\t// out\n        /* \"#utility.yul\":2851:2990   */\n    tag_165:\n        /* \"#utility.yul\":2940:2946   */\n      dup3\n        /* \"#utility.yul\":2935:2938   */\n      dup2\n        /* \"#utility.yul\":2930:2933   */\n      dup4\n        /* \"#utility.yul\":2924:2947   */\n      mcopy\n        /* \"#utility.yul\":2981:2982   */\n      0x00\n        /* \"#utility.yul\":2972:2978   */\n      dup4\n        /* \"#utility.yul\":2967:2970   */\n      dup4\n        /* \"#utility.yul\":2963:2979   */\n      add\n        /* \"#utility.yul\":2956:2983   */\n      mstore\n        /* \"#utility.yul\":2851:2990   */\n      pop\n      pop\n      pop\n      jump\t// out\n        /* \"#utility.yul\":2996:3098   */\n    tag_166:\n        /* \"#utility.yul\":3037:3043   */\n      0x00\n        /* \"#utility.yul\":3088:3090   */\n      0x1f\n        /* \"#utility.yul\":3084:3091   */\n      not\n        /* \"#utility.yul\":3079:3081   */\n      0x1f\n        /* \"#utility.yul\":3072:3077   */\n      dup4\n        /* \"#utility.yul\":3068:3082   */\n      add\n        /* \"#utility.yul\":3064:3092   */\n      and\n        /* \"#utility.yul\":3054:3092   */\n      swap1\n      pop\n        /* \"#utility.yul\":2996:3098   */\n      swap2\n      swap1\n      pop\n      jump\t// out\n        /* \"#utility.yul\":3104:3481   */\n    tag_167:\n        /* \"#utility.yul\":3192:3195   */\n      0x00\n        /* \"#utility.yul\":3220:3259   */\n      tag_243\n        /* \"#utility.yul\":3253:3258   */\n      dup3\n        /* \"#utility.yul\":3220:3259   */\n      tag_163\n      jump\t// in\n    tag_243:\n        /* \"#utility.yul\":3275:3346   */\n      tag_244\n        /* \"#utility.yul\":3339:3345   */\n      dup2\n        /* \"#utility.yul\":3334:3337   */\n      dup6\n        /* \"#utility.yul\":3275:3346   */\n      tag_164\n      jump\t// in\n    tag_244:\n        /* \"#utility.yul\":3268:3346   */\n      swap4\n      pop\n        /* \"#utility.yul\":3355:3420   */\n      tag_245\n        /* \"#utility.yul\":3413:3419   */\n      dup2\n        /* \"#utility.yul\":3408:3411   */\n      dup6\n        /* \"#utility.yul\":3401:3405   */\n      0x20\n        /* \"#utility.yul\":3394:3399   */\n      dup7\n        /* \"#utility.yul\":3390:3406   */\n      add\n        /* \"#utility.yul\":3355:3420   */\n      tag_165\n      jump\t// in\n    tag_245:\n        /* \"#utility.yul\":3445:3474   */\n      tag_246\n        /* \"#utility.yul\":3467:3473   */\n      dup2\n        /* \"#utility.yul\":3445:3474   */\n      tag_166\n      jump\t// in\n    tag_246:\n        /* \"#utility.yul\":3440:3443   */\n      dup5\n        /* \"#utility.yul\":3436:3475   */\n      add\n        /* \"#utility.yul\":3429:3475   */\n      swap2\n      pop\n        /* \"#utility.yul\":3196:3481   */\n      pop\n        /* \"#utility.yul\":3104:3481   */\n      swap3\n      swap2\n      pop\n      pop\n      jump\t// out\n        /* \"#utility.yul\":3487:4131   */\n    tag_58:\n        /* \"#utility.yul\":3684:3688   */\n      0x00\n        /* \"#utility.yul\":3722:3725   */\n      0x80\n        /* \"#utility.yul\":3711:3720   */\n      dup3\n        /* \"#utility.yul\":3707:3726   */\n      add\n        /* \"#utility.yul\":3699:3726   */\n      swap1\n      pop\n        /* \"#utility.yul\":3736:3807   */\n      tag_248\n        /* \"#utility.yul\":3804:3805   */\n      0x00\n        /* \"#utility.yul\":3793:3802   */\n      dup4\n        /* \"#utility.yul\":3789:3806   */\n      add\n        /* \"#utility.yul\":3780:3786   */\n      dup8\n        /* \"#utility.yul\":3736:3807   */\n      tag_162\n      jump\t// in\n    tag_248:\n        /* \"#utility.yul\":3817:3889   */\n      tag_249\n        /* \"#utility.yul\":3885:3887   */\n      0x20\n        /* \"#utility.yul\":3874:3883   */\n      dup4\n        /* \"#utility.yul\":3870:3888   */\n      add\n        /* \"#utility.yul\":3861:3867   */\n      dup7\n        /* \"#utility.yul\":3817:3889   */\n      tag_152\n      jump\t// in\n    tag_249:\n        /* \"#utility.yul\":3899:3971   */\n      tag_250\n        /* \"#utility.yul\":3967:3969   */\n      0x40\n        /* \"#utility.yul\":3956:3965   */\n      dup4\n        /* \"#utility.yul\":3952:3970   */\n      add\n        /* \"#utility.yul\":3943:3949   */\n      dup6\n        /* \"#utility.yul\":3899:3971   */\n      tag_152\n      jump\t// in\n    tag_250:\n        /* \"#utility.yul\":4018:4027   */\n      dup2\n        /* \"#utility.yul\":4012:4016   */\n      dup2\n        /* \"#utility.yul\":4008:4028   */\n      sub\n        /* \"#utility.yul\":4003:4005   */\n      0x60\n        /* \"#utility.yul\":3992:4001   */\n      dup4\n        /* \"#utility.yul\":3988:4006   */\n      add\n        /* \"#utility.yul\":3981:4029   */\n      mstore\n        /* \"#utility.yul\":4046:4124   */\n      tag_251\n        /* \"#utility.yul\":4119:4123   */\n      dup2\n        /* \"#utility.yul\":4110:4116   */\n      dup5\n        /* \"#utility.yul\":4046:4124   */\n      tag_167\n      jump\t// in\n    tag_251:\n        /* \"#utility.yul\":4038:4124   */\n      swap1\n      pop\n        /* \"#utility.yul\":3487:4131   */\n      swap6\n      swap5\n      pop\n      pop\n      pop\n      pop\n      pop\n      jump\t// out\n        /* \"#utility.yul\":4137:4278   */\n    tag_168:\n        /* \"#utility.yul\":4231:4237   */\n      0x00\n        /* \"#utility.yul\":4265:4270   */\n      dup2\n        /* \"#utility.yul\":4259:4271   */\n      mload\n        /* \"#utility.yul\":4249:4271   */\n      swap1\n      pop\n        /* \"#utility.yul\":4137:4278   */\n      swap2\n      swap1\n      pop\n      jump\t// out\n        /* \"#utility.yul\":4284:4495   */\n    tag_169:\n        /* \"#utility.yul\":4410:4421   */\n      0x00\n        /* \"#utility.yul\":4444:4450   */\n      dup3\n        /* \"#utility.yul\":4439:4442   */\n      dup3\n        /* \"#utility.yul\":4432:4451   */\n      mstore\n        /* \"#utility.yul\":4484:4488   */\n      0x20\n        /* \"#utility.yul\":4479:4482   */\n      dup3\n        /* \"#utility.yul\":4475:4489   */\n      add\n        /* \"#utility.yul\":4460:4489   */\n      swap1\n      pop\n        /* \"#utility.yul\":4284:4495   */\n      swap3\n      swap2\n      pop\n      pop\n      jump\t// out\n        /* \"#utility.yul\":4501:4660   */\n    tag_170:\n        /* \"#utility.yul\":4595:4599   */\n      0x00\n        /* \"#utility.yul\":4618:4621   */\n      dup2\n        /* \"#utility.yul\":4610:4621   */\n      swap1\n      pop\n        /* \"#utility.yul\":4648:4652   */\n      0x20\n        /* \"#utility.yul\":4643:4646   */\n      dup3\n        /* \"#utility.yul\":4639:4653   */\n      add\n        /* \"#utility.yul\":4631:4653   */\n      swap1\n      pop\n        /* \"#utility.yul\":4501:4660   */\n      swap2\n      swap1\n      pop\n      jump\t// out\n        /* \"#utility.yul\":4666:4774   */\n    tag_171:\n        /* \"#utility.yul\":4743:4767   */\n      tag_256\n        /* \"#utility.yul\":4761:4766   */\n      dup2\n        /* \"#utility.yul\":4743:4767   */\n      tag_157\n      jump\t// in\n    tag_256:\n        /* \"#utility.yul\":4738:4741   */\n      dup3\n        /* \"#utility.yul\":4731:4768   */\n      mstore\n        /* \"#utility.yul\":4666:4774   */\n      pop\n      pop\n      jump\t// out\n        /* \"#utility.yul\":4780:4888   */\n    tag_172:\n        /* \"#utility.yul\":4857:4881   */\n      tag_258\n        /* \"#utility.yul\":4875:4880   */\n      dup2\n        /* \"#utility.yul\":4857:4881   */\n      tag_151\n      jump\t// in\n    tag_258:\n        /* \"#utility.yul\":4852:4855   */\n      dup3\n        /* \"#utility.yul\":4845:4882   */\n      mstore\n        /* \"#utility.yul\":4780:4888   */\n      pop\n      pop\n      jump\t// out\n        /* \"#utility.yul\":4894:5053   */\n    tag_173:\n        /* \"#utility.yul\":4968:4979   */\n      0x00\n        /* \"#utility.yul\":5002:5008   */\n      dup3\n        /* \"#utility.yul\":4997:5000   */\n      dup3\n        /* \"#utility.yul\":4990:5009   */\n      mstore\n        /* \"#utility.yul\":5042:5046   */\n      0x20\n        /* \"#utility.yul\":5037:5040   */\n      dup3\n        /* \"#utility.yul\":5033:5047   */\n      add\n        /* \"#utility.yul\":5018:5047   */\n      swap1\n      pop\n        /* \"#utility.yul\":4894:5053   */\n      swap3\n      swap2\n      pop\n      pop\n      jump\t// out\n        /* \"#utility.yul\":5059:5416   */\n    tag_174:\n        /* \"#utility.yul\":5137:5140   */\n      0x00\n        /* \"#utility.yul\":5165:5204   */\n      tag_261\n        /* \"#utility.yul\":5198:5203   */\n      dup3\n        /* \"#utility.yul\":5165:5204   */\n      tag_163\n      jump\t// in\n    tag_261:\n        /* \"#utility.yul\":5220:5281   */\n      tag_262\n        /* \"#utility.yul\":5274:5280   */\n      dup2\n        /* \"#utility.yul\":5269:5272   */\n      dup6\n        /* \"#utility.yul\":5220:5281   */\n      tag_173\n      jump\t// in\n    tag_262:\n        /* \"#utility.yul\":5213:5281   */\n      swap4\n      pop\n        /* \"#utility.yul\":5290:5355   */\n      tag_263\n        /* \"#utility.yul\":5348:5354   */\n      dup2\n        /* \"#utility.yul\":5343:5346   */\n      dup6\n        /* \"#utility.yul\":5336:5340   */\n      0x20\n        /* \"#utility.yul\":5329:5334   */\n      dup7\n        /* \"#utility.yul\":5325:5341   */\n      add\n        /* \"#utility.yul\":5290:5355   */\n      tag_165\n      jump\t// in\n    tag_263:\n        /* \"#utility.yul\":5380:5409   */\n      tag_264\n        /* \"#utility.yul\":5402:5408   */\n      dup2\n        /* \"#utility.yul\":5380:5409   */\n      tag_166\n      jump\t// in\n    tag_264:\n        /* \"#utility.yul\":5375:5378   */\n      dup5\n        /* \"#utility.yul\":5371:5410   */\n      add\n        /* \"#utility.yul\":5364:5410   */\n      swap2\n      pop\n        /* \"#utility.yul\":5141:5416   */\n      pop\n        /* \"#utility.yul\":5059:5416   */\n      swap3\n      swap2\n      pop\n      pop\n      jump\t// out\n        /* \"#utility.yul\":5512:6469   */\n    tag_175:\n        /* \"#utility.yul\":5625:5628   */\n      0x00\n        /* \"#utility.yul\":5661:5665   */\n      0x80\n        /* \"#utility.yul\":5656:5659   */\n      dup4\n        /* \"#utility.yul\":5652:5666   */\n      add\n        /* \"#utility.yul\":5748:5752   */\n      0x00\n        /* \"#utility.yul\":5741:5746   */\n      dup4\n        /* \"#utility.yul\":5737:5753   */\n      add\n        /* \"#utility.yul\":5731:5754   */\n      mload\n        /* \"#utility.yul\":5767:5830   */\n      tag_266\n        /* \"#utility.yul\":5824:5828   */\n      0x00\n        /* \"#utility.yul\":5819:5822   */\n      dup7\n        /* \"#utility.yul\":5815:5829   */\n      add\n        /* \"#utility.yul\":5801:5813   */\n      dup3\n        /* \"#utility.yul\":5767:5830   */\n      tag_171\n      jump\t// in\n    tag_266:\n        /* \"#utility.yul\":5676:5840   */\n      pop\n        /* \"#utility.yul\":5924:5928   */\n      0x20\n        /* \"#utility.yul\":5917:5922   */\n      dup4\n        /* \"#utility.yul\":5913:5929   */\n      add\n        /* \"#utility.yul\":5907:5930   */\n      mload\n        /* \"#utility.yul\":5943:6006   */\n      tag_267\n        /* \"#utility.yul\":6000:6004   */\n      0x20\n        /* \"#utility.yul\":5995:5998   */\n      dup7\n        /* \"#utility.yul\":5991:6005   */\n      add\n        /* \"#utility.yul\":5977:5989   */\n      dup3\n        /* \"#utility.yul\":5943:6006   */\n      tag_172\n      jump\t// in\n    tag_267:\n        /* \"#utility.yul\":5850:6016   */\n      pop\n        /* \"#utility.yul\":6103:6107   */\n      0x40\n        /* \"#utility.yul\":6096:6101   */\n      dup4\n        /* \"#utility.yul\":6092:6108   */\n      add\n        /* \"#utility.yul\":6086:6109   */\n      mload\n        /* \"#utility.yul\":6122:6185   */\n      tag_268\n        /* \"#utility.yul\":6179:6183   */\n      0x40\n        /* \"#utility.yul\":6174:6177   */\n      dup7\n        /* \"#utility.yul\":6170:6184   */\n      add\n        /* \"#utility.yul\":6156:6168   */\n      dup3\n        /* \"#utility.yul\":6122:6185   */\n      tag_172\n      jump\t// in\n    tag_268:\n        /* \"#utility.yul\":6026:6195   */\n      pop\n        /* \"#utility.yul\":6279:6283   */\n      0x60\n        /* \"#utility.yul\":6272:6277   */\n      dup4\n        /* \"#utility.yul\":6268:6284   */\n      add\n        /* \"#utility.yul\":6262:6285   */\n      mload\n        /* \"#utility.yul\":6332:6335   */\n      dup5\n        /* \"#utility.yul\":6326:6330   */\n      dup3\n        /* \"#utility.yul\":6322:6336   */\n      sub\n        /* \"#utility.yul\":6315:6319   */\n      0x60\n        /* \"#utility.yul\":6310:6313   */\n      dup7\n        /* \"#utility.yul\":6306:6320   */\n      add\n        /* \"#utility.yul\":6299:6337   */\n      mstore\n        /* \"#utility.yul\":6358:6431   */\n      tag_269\n        /* \"#utility.yul\":6426:6430   */\n      dup3\n        /* \"#utility.yul\":6412:6424   */\n      dup3\n        /* \"#utility.yul\":6358:6431   */\n      tag_174\n      jump\t// in\n    tag_269:\n        /* \"#utility.yul\":6350:6431   */\n      swap2\n      pop\n        /* \"#utility.yul\":6205:6442   */\n      pop\n        /* \"#utility.yul\":6459:6463   */\n      dup1\n        /* \"#utility.yul\":6452:6463   */\n      swap2\n      pop\n        /* \"#utility.yul\":5630:6469   */\n      pop\n        /* \"#utility.yul\":5512:6469   */\n      swap3\n      swap2\n      pop\n      pop\n      jump\t// out\n        /* \"#utility.yul\":6475:6739   */\n    tag_176:\n        /* \"#utility.yul\":6598:6608   */\n      0x00\n        /* \"#utility.yul\":6633:6733   */\n      tag_271\n        /* \"#utility.yul\":6729:6732   */\n      dup4\n        /* \"#utility.yul\":6721:6727   */\n      dup4\n        /* \"#utility.yul\":6633:6733   */\n      tag_175\n      jump\t// in\n    tag_271:\n        /* \"#utility.yul\":6619:6733   */\n      swap1\n      pop\n        /* \"#utility.yul\":6475:6739   */\n      swap3\n      swap2\n      pop\n      pop\n      jump\t// out\n        /* \"#utility.yul\":6745:6885   */\n    tag_177:\n        /* \"#utility.yul\":6842:6846   */\n      0x00\n        /* \"#utility.yul\":6874:6878   */\n      0x20\n        /* \"#utility.yul\":6869:6872   */\n      dup3\n        /* \"#utility.yul\":6865:6879   */\n      add\n        /* \"#utility.yul\":6857:6879   */\n      swap1\n      pop\n        /* \"#utility.yul\":6745:6885   */\n      swap2\n      swap1\n      pop\n      jump\t// out\n        /* \"#utility.yul\":6985:8112   */\n    tag_178:\n        /* \"#utility.yul\":7158:7161   */\n      0x00\n        /* \"#utility.yul\":7187:7268   */\n      tag_274\n        /* \"#utility.yul\":7262:7267   */\n      dup3\n        /* \"#utility.yul\":7187:7268   */\n      tag_168\n      jump\t// in\n    tag_274:\n        /* \"#utility.yul\":7284:7397   */\n      tag_275\n        /* \"#utility.yul\":7390:7396   */\n      dup2\n        /* \"#utility.yul\":7385:7388   */\n      dup6\n        /* \"#utility.yul\":7284:7397   */\n      tag_169\n      jump\t// in\n    tag_275:\n        /* \"#utility.yul\":7277:7397   */\n      swap4\n      pop\n        /* \"#utility.yul\":7423:7426   */\n      dup4\n        /* \"#utility.yul\":7468:7472   */\n      0x20\n        /* \"#utility.yul\":7460:7466   */\n      dup3\n        /* \"#utility.yul\":7456:7473   */\n      mul\n        /* \"#utility.yul\":7451:7454   */\n      dup6\n        /* \"#utility.yul\":7447:7474   */\n      add\n        /* \"#utility.yul\":7498:7581   */\n      tag_276\n        /* \"#utility.yul\":7575:7580   */\n      dup6\n        /* \"#utility.yul\":7498:7581   */\n      tag_170\n      jump\t// in\n    tag_276:\n        /* \"#utility.yul\":7604:7611   */\n      dup1\n        /* \"#utility.yul\":7635:7636   */\n      0x00\n        /* \"#utility.yul\":7620:8067   */\n    tag_277:\n        /* \"#utility.yul\":7645:7651   */\n      dup6\n        /* \"#utility.yul\":7642:7643   */\n      dup2\n        /* \"#utility.yul\":7639:7652   */\n      lt\n        /* \"#utility.yul\":7620:8067   */\n      iszero\n      tag_279\n      jumpi\n        /* \"#utility.yul\":7716:7725   */\n      dup5\n        /* \"#utility.yul\":7710:7714   */\n      dup5\n        /* \"#utility.yul\":7706:7726   */\n      sub\n        /* \"#utility.yul\":7701:7704   */\n      dup10\n        /* \"#utility.yul\":7694:7727   */\n      mstore\n        /* \"#utility.yul\":7767:7773   */\n      dup2\n        /* \"#utility.yul\":7761:7774   */\n      mload\n        /* \"#utility.yul\":7795:7913   */\n      tag_280\n        /* \"#utility.yul\":7908:7912   */\n      dup6\n        /* \"#utility.yul\":7893:7906   */\n      dup3\n        /* \"#utility.yul\":7795:7913   */\n      tag_176\n      jump\t// in\n    tag_280:\n        /* \"#utility.yul\":7787:7913   */\n      swap5\n      pop\n        /* \"#utility.yul\":7936:8023   */\n      tag_281\n        /* \"#utility.yul\":8016:8022   */\n      dup4\n        /* \"#utility.yul\":7936:8023   */\n      tag_177\n      jump\t// in\n    tag_281:\n        /* \"#utility.yul\":7926:8023   */\n      swap3\n      pop\n        /* \"#utility.yul\":8052:8056   */\n      0x20\n        /* \"#utility.yul\":8047:8050   */\n      dup11\n        /* \"#utility.yul\":8043:8057   */\n      add\n        /* \"#utility.yul\":8036:8057   */\n      swap10\n      pop\n        /* \"#utility.yul\":7680:8067   */\n      pop\n        /* \"#utility.yul\":7667:7668   */\n      0x01\n        /* \"#utility.yul\":7664:7665   */\n      dup2\n        /* \"#utility.yul\":7660:7669   */\n      add\n        /* \"#utility.yul\":7655:7669   */\n      swap1\n      pop\n        /* \"#utility.yul\":7620:8067   */\n      jump(tag_277)\n    tag_279:\n        /* \"#utility.yul\":7624:7638   */\n      pop\n        /* \"#utility.yul\":8083:8087   */\n      dup3\n        /* \"#utility.yul\":8076:8087   */\n      swap8\n      pop\n        /* \"#utility.yul\":8103:8106   */\n      dup8\n        /* \"#utility.yul\":8096:8106   */\n      swap6\n      pop\n        /* \"#utility.yul\":7163:8112   */\n      pop\n      pop\n      pop\n      pop\n      pop\n        /* \"#utility.yul\":6985:8112   */\n      swap3\n      swap2\n      pop\n      pop\n      jump\t// out\n        /* \"#utility.yul\":8118:8599   */\n    tag_67:\n        /* \"#utility.yul\":8315:8319   */\n      0x00\n        /* \"#utility.yul\":8353:8355   */\n      0x20\n        /* \"#utility.yul\":8342:8351   */\n      dup3\n        /* \"#utility.yul\":8338:8356   */\n      add\n        /* \"#utility.yul\":8330:8356   */\n      swap1\n      pop\n        /* \"#utility.yul\":8402:8411   */\n      dup2\n        /* \"#utility.yul\":8396:8400   */\n      dup2\n        /* \"#utility.yul\":8392:8412   */\n      sub\n        /* \"#utility.yul\":8388:8389   */\n      0x00\n        /* \"#utility.yul\":8377:8386   */\n      dup4\n        /* \"#utility.yul\":8373:8390   */\n      add\n        /* \"#utility.yul\":8366:8413   */\n      mstore\n        /* \"#utility.yul\":8430:8592   */\n      tag_283\n        /* \"#utility.yul\":8587:8591   */\n      dup2\n        /* \"#utility.yul\":8578:8584   */\n      dup5\n        /* \"#utility.yul\":8430:8592   */\n      tag_178\n      jump\t// in\n    tag_283:\n        /* \"#utility.yul\":8422:8592   */\n      swap1\n      pop\n        /* \"#utility.yul\":8118:8599   */\n      swap3\n      swap2\n      pop\n      pop\n      jump\t// out\n        /* \"#utility.yul\":8605:8775   */\n    tag_179:\n        /* \"#utility.yul\":8745:8767   */\n      0x496e73756666696369656e742062616c616e6365000000000000000000000000\n        /* \"#utility.yul\":8741:8742   */\n      0x00\n        /* \"#utility.yul\":8733:8739   */\n      dup3\n        /* \"#utility.yul\":8729:8743   */\n      add\n        /* \"#utility.yul\":8722:8768   */\n      mstore\n        /* \"#utility.yul\":8605:8775   */\n      pop\n      jump\t// out\n        /* \"#utility.yul\":8781:9147   */\n    tag_180:\n        /* \"#utility.yul\":8923:8926   */\n      0x00\n        /* \"#utility.yul\":8944:9011   */\n      tag_286\n        /* \"#utility.yul\":9008:9010   */\n      0x14\n        /* \"#utility.yul\":9003:9006   */\n      dup4\n        /* \"#utility.yul\":8944:9011   */\n      tag_164\n      jump\t// in\n    tag_286:\n        /* \"#utility.yul\":8937:9011   */\n      swap2\n      pop\n        /* \"#utility.yul\":9020:9113   */\n      tag_287\n        /* \"#utility.yul\":9109:9112   */\n      dup3\n        /* \"#utility.yul\":9020:9113   */\n      tag_179\n      jump\t// in\n    tag_287:\n        /* \"#utility.yul\":9138:9140   */\n      0x20\n        /* \"#utility.yul\":9133:9136   */\n      dup3\n        /* \"#utility.yul\":9129:9141   */\n      add\n        /* \"#utility.yul\":9122:9141   */\n      swap1\n      pop\n        /* \"#utility.yul\":8781:9147   */\n      swap2\n      swap1\n      pop\n      jump\t// out\n        /* \"#utility.yul\":9153:9572   */\n    tag_74:\n        /* \"#utility.yul\":9319:9323   */\n      0x00\n        /* \"#utility.yul\":9357:9359   */\n      0x20\n        /* \"#utility.yul\":9346:9355   */\n      dup3\n        /* \"#utility.yul\":9342:9360   */\n      add\n        /* \"#utility.yul\":9334:9360   */\n      swap1\n      pop\n        /* \"#utility.yul\":9406:9415   */\n      dup2\n        /* \"#utility.yul\":9400:9404   */\n      dup2\n        /* \"#utility.yul\":9396:9416   */\n      sub\n        /* \"#utility.yul\":9392:9393   */\n      0x00\n        /* \"#utility.yul\":9381:9390   */\n      dup4\n        /* \"#utility.yul\":9377:9394   */\n      add\n        /* \"#utility.yul\":9370:9417   */\n      mstore\n        /* \"#utility.yul\":9434:9565   */\n      tag_289\n        /* \"#utility.yul\":9560:9564   */\n      dup2\n        /* \"#utility.yul\":9434:9565   */\n      tag_180\n      jump\t// in\n    tag_289:\n        /* \"#utility.yul\":9426:9565   */\n      swap1\n      pop\n        /* \"#utility.yul\":9153:9572   */\n      swap2\n      swap1\n      pop\n      jump\t// out\n        /* \"#utility.yul\":9578:9758   */\n    tag_181:\n        /* \"#utility.yul\":9626:9703   */\n      0x4e487b7100000000000000000000000000000000000000000000000000000000\n        /* \"#utility.yul\":9623:9624   */\n      0x00\n        /* \"#utility.yul\":9616:9704   */\n      mstore\n        /* \"#utility.yul\":9723:9727   */\n      0x11\n        /* \"#utility.yul\":9720:9721   */\n      0x04\n        /* \"#utility.yul\":9713:9728   */\n      mstore\n        /* \"#utility.yul\":9747:9751   */\n      0x24\n        /* \"#utility.yul\":9744:9745   */\n      0x00\n        /* \"#utility.yul\":9737:9752   */\n      revert\n        /* \"#utility.yul\":9764:9955   */\n    tag_76:\n        /* \"#utility.yul\":9804:9807   */\n      0x00\n        /* \"#utility.yul\":9823:9843   */\n      tag_292\n        /* \"#utility.yul\":9841:9842   */\n      dup3\n        /* \"#utility.yul\":9823:9843   */\n      tag_151\n      jump\t// in\n    tag_292:\n        /* \"#utility.yul\":9818:9843   */\n      swap2\n      pop\n        /* \"#utility.yul\":9857:9877   */\n      tag_293\n        /* \"#utility.yul\":9875:9876   */\n      dup4\n        /* \"#utility.yul\":9857:9877   */\n      tag_151\n      jump\t// in\n    tag_293:\n        /* \"#utility.yul\":9852:9877   */\n      swap3\n      pop\n        /* \"#utility.yul\":9900:9901   */\n      dup3\n        /* \"#utility.yul\":9897:9898   */\n      dup3\n        /* \"#utility.yul\":9893:9902   */\n      add\n        /* \"#utility.yul\":9886:9902   */\n      swap1\n      pop\n        /* \"#utility.yul\":9921:9924   */\n      dup1\n        /* \"#utility.yul\":9918:9919   */\n      dup3\n        /* \"#utility.yul\":9915:9925   */\n      gt\n        /* \"#utility.yul\":9912:9948   */\n      iszero\n      tag_294\n      jumpi\n        /* \"#utility.yul\":9928:9946   */\n      tag_295\n      tag_181\n      jump\t// in\n    tag_295:\n        /* \"#utility.yul\":9912:9948   */\n    tag_294:\n        /* \"#utility.yul\":9764:9955   */\n      swap3\n      swap2\n      pop\n      pop\n      jump\t// out\n        /* \"#utility.yul\":9961:10130   */\n    tag_182:\n        /* \"#utility.yul\":10101:10122   */\n      0x5769746864726177616c20746f6f20736f6f6e00000000000000000000000000\n        /* \"#utility.yul\":10097:10098   */\n      0x00\n        /* \"#utility.yul\":10089:10095   */\n      dup3\n        /* \"#utility.yul\":10085:10099   */\n      add\n        /* \"#utility.yul\":10078:10123   */\n      mstore\n        /* \"#utility.yul\":9961:10130   */\n      pop\n      jump\t// out\n        /* \"#utility.yul\":10136:10502   */\n    tag_183:\n        /* \"#utility.yul\":10278:10281   */\n      0x00\n        /* \"#utility.yul\":10299:10366   */\n      tag_298\n        /* \"#utility.yul\":10363:10365   */\n      0x13\n        /* \"#utility.yul\":10358:10361   */\n      dup4\n        /* \"#utility.yul\":10299:10366   */\n      tag_164\n      jump\t// in\n    tag_298:\n        /* \"#utility.yul\":10292:10366   */\n      swap2\n      pop\n        /* \"#utility.yul\":10375:10468   */\n      tag_299\n        /* \"#utility.yul\":10464:10467   */\n      dup3\n        /* \"#utility.yul\":10375:10468   */\n      tag_182\n      jump\t// in\n    tag_299:\n        /* \"#utility.yul\":10493:10495   */\n      0x20\n        /* \"#utility.yul\":10488:10491   */\n      dup3\n        /* \"#utility.yul\":10484:10496   */\n      add\n        /* \"#utility.yul\":10477:10496   */\n      swap1\n      pop\n        /* \"#utility.yul\":10136:10502   */\n      swap2\n      swap1\n      pop\n      jump\t// out\n        /* \"#utility.yul\":10508:10927   */\n    tag_79:\n        /* \"#utility.yul\":10674:10678   */\n      0x00\n        /* \"#utility.yul\":10712:10714   */\n      0x20\n        /* \"#utility.yul\":10701:10710   */\n      dup3\n        /* \"#utility.yul\":10697:10715   */\n      add\n        /* \"#utility.yul\":10689:10715   */\n      swap1\n      pop\n        /* \"#utility.yul\":10761:10770   */\n      dup2\n        /* \"#utility.yul\":10755:10759   */\n      dup2\n        /* \"#utility.yul\":10751:10771   */\n      sub\n        /* \"#utility.yul\":10747:10748   */\n      0x00\n        /* \"#utility.yul\":10736:10745   */\n      dup4\n        /* \"#utility.yul\":10732:10749   */\n      add\n        /* \"#utility.yul\":10725:10772   */\n      mstore\n        /* \"#utility.yul\":10789:10920   */\n      tag_301\n        /* \"#utility.yul\":10915:10919   */\n      dup2\n        /* \"#utility.yul\":10789:10920   */\n      tag_183\n      jump\t// in\n    tag_301:\n        /* \"#utility.yul\":10781:10920   */\n      swap1\n      pop\n        /* \"#utility.yul\":10508:10927   */\n      swap2\n      swap1\n      pop\n      jump\t// out\n        /* \"#utility.yul\":10933:11127   */\n    tag_81:\n        /* \"#utility.yul\":10973:10977   */\n      0x00\n        /* \"#utility.yul\":10993:11013   */\n      tag_303\n        /* \"#utility.yul\":11011:11012   */\n      dup3\n        /* \"#utility.yul\":10993:11013   */\n      tag_151\n      jump\t// in\n    tag_303:\n        /* \"#utility.yul\":10988:11013   */\n      swap2\n      pop\n        /* \"#utility.yul\":11027:11047   */\n      tag_304\n        /* \"#utility.yul\":11045:11046   */\n      dup4\n        /* \"#utility.yul\":11027:11047   */\n      tag_151\n      jump\t// in\n    tag_304:\n        /* \"#utility.yul\":11022:11047   */\n      swap3\n      pop\n        /* \"#utility.yul\":11071:11072   */\n      dup3\n        /* \"#utility.yul\":11068:11069   */\n      dup3\n        /* \"#utility.yul\":11064:11073   */\n      sub\n        /* \"#utility.yul\":11056:11073   */\n      swap1\n      pop\n        /* \"#utility.yul\":11095:11096   */\n      dup2\n        /* \"#utility.yul\":11089:11093   */\n      dup2\n        /* \"#utility.yul\":11086:11097   */\n      gt\n        /* \"#utility.yul\":11083:11120   */\n      iszero\n      tag_305\n      jumpi\n        /* \"#utility.yul\":11100:11118   */\n      tag_306\n      tag_181\n      jump\t// in\n    tag_306:\n        /* \"#utility.yul\":11083:11120   */\n    tag_305:\n        /* \"#utility.yul\":10933:11127   */\n      swap3\n      swap2\n      pop\n      pop\n      jump\t// out\n        /* \"#utility.yul\":11133:11313   */\n    tag_120:\n        /* \"#utility.yul\":11181:11258   */\n      0x4e487b7100000000000000000000000000000000000000000000000000000000\n        /* \"#utility.yul\":11178:11179   */\n      0x00\n        /* \"#utility.yul\":11171:11259   */\n      mstore\n        /* \"#utility.yul\":11278:11282   */\n      0x41\n        /* \"#utility.yul\":11275:11276   */\n      0x04\n        /* \"#utility.yul\":11268:11283   */\n      mstore\n        /* \"#utility.yul\":11302:11306   */\n      0x24\n        /* \"#utility.yul\":11299:11300   */\n      0x00\n        /* \"#utility.yul\":11292:11307   */\n      revert\n        /* \"#utility.yul\":11319:11499   */\n    tag_184:\n        /* \"#utility.yul\":11367:11444   */\n      0x4e487b7100000000000000000000000000000000000000000000000000000000\n        /* \"#utility.yul\":11364:11365   */\n      0x00\n        /* \"#utility.yul\":11357:11445   */\n      mstore\n        /* \"#utility.yul\":11464:11468   */\n      0x22\n        /* \"#utility.yul\":11461:11462   */\n      0x04\n        /* \"#utility.yul\":11454:11469   */\n      mstore\n        /* \"#utility.yul\":11488:11492   */\n      0x24\n        /* \"#utility.yul\":11485:11486   */\n      0x00\n        /* \"#utility.yul\":11478:11493   */\n      revert\n        /* \"#utility.yul\":11505:11825   */\n    tag_98:\n        /* \"#utility.yul\":11549:11555   */\n      0x00\n        /* \"#utility.yul\":11586:11587   */\n      0x02\n        /* \"#utility.yul\":11580:11584   */\n      dup3\n        /* \"#utility.yul\":11576:11588   */\n      div\n        /* \"#utility.yul\":11566:11588   */\n      swap1\n      pop\n        /* \"#utility.yul\":11633:11634   */\n      0x01\n        /* \"#utility.yul\":11627:11631   */\n      dup3\n        /* \"#utility.yul\":11623:11635   */\n      and\n        /* \"#utility.yul\":11654:11672   */\n      dup1\n        /* \"#utility.yul\":11644:11725   */\n      tag_310\n      jumpi\n        /* \"#utility.yul\":11710:11714   */\n      0x7f\n        /* \"#utility.yul\":11702:11708   */\n      dup3\n        /* \"#utility.yul\":11698:11715   */\n      and\n        /* \"#utility.yul\":11688:11715   */\n      swap2\n      pop\n        /* \"#utility.yul\":11644:11725   */\n    tag_310:\n        /* \"#utility.yul\":11772:11774   */\n      0x20\n        /* \"#utility.yul\":11764:11770   */\n      dup3\n        /* \"#utility.yul\":11761:11775   */\n      lt\n        /* \"#utility.yul\":11741:11759   */\n      dup2\n        /* \"#utility.yul\":11738:11776   */\n      sub\n        /* \"#utility.yul\":11735:11819   */\n      tag_311\n      jumpi\n        /* \"#utility.yul\":11791:11809   */\n      tag_312\n      tag_184\n      jump\t// in\n    tag_312:\n        /* \"#utility.yul\":11735:11819   */\n    tag_311:\n        /* \"#utility.yul\":11556:11825   */\n      pop\n        /* \"#utility.yul\":11505:11825   */\n      swap2\n      swap1\n      pop\n      jump\t// out\n        /* \"#utility.yul\":11831:11972   */\n    tag_185:\n        /* \"#utility.yul\":11880:11884   */\n      0x00\n        /* \"#utility.yul\":11903:11906   */\n      dup2\n        /* \"#utility.yul\":11895:11906   */\n      swap1\n      pop\n        /* \"#utility.yul\":11926:11929   */\n      dup2\n        /* \"#utility.yul\":11923:11924   */\n      0x00\n        /* \"#utility.yul\":11916:11930   */\n      mstore\n        /* \"#utility.yul\":11960:11964   */\n      0x20\n        /* \"#utility.yul\":11957:11958   */\n      0x00\n        /* \"#utility.yul\":11947:11965   */\n      keccak256\n        /* \"#utility.yul\":11939:11965   */\n      swap1\n      pop\n        /* \"#utility.yul\":11831:11972   */\n      swap2\n      swap1\n      pop\n      jump\t// out\n        /* \"#utility.yul\":11978:12071   */\n    tag_186:\n        /* \"#utility.yul\":12015:12021   */\n      0x00\n        /* \"#utility.yul\":12062:12064   */\n      0x20\n        /* \"#utility.yul\":12057:12059   */\n      0x1f\n        /* \"#utility.yul\":12050:12055   */\n      dup4\n        /* \"#utility.yul\":12046:12060   */\n      add\n        /* \"#utility.yul\":12042:12065   */\n      div\n        /* \"#utility.yul\":12032:12065   */\n      swap1\n      pop\n        /* \"#utility.yul\":11978:12071   */\n      swap2\n      swap1\n      pop\n      jump\t// out\n        /* \"#utility.yul\":12077:12184   */\n    tag_187:\n        /* \"#utility.yul\":12121:12129   */\n      0x00\n        /* \"#utility.yul\":12171:12176   */\n      dup3\n        /* \"#utility.yul\":12165:12169   */\n      dup3\n        /* \"#utility.yul\":12161:12177   */\n      shl\n        /* \"#utility.yul\":12140:12177   */\n      swap1\n      pop\n        /* \"#utility.yul\":12077:12184   */\n      swap3\n      swap2\n      pop\n      pop\n      jump\t// out\n        /* \"#utility.yul\":12190:12583   */\n    tag_188:\n        /* \"#utility.yul\":12259:12265   */\n      0x00\n        /* \"#utility.yul\":12309:12310   */\n      0x08\n        /* \"#utility.yul\":12297:12307   */\n      dup4\n        /* \"#utility.yul\":12293:12311   */\n      mul\n        /* \"#utility.yul\":12332:12429   */\n      tag_317\n        /* \"#utility.yul\":12362:12428   */\n      0xffffffffffffffffffffffffffffffffffffffffffffffffffffffffffffffff\n        /* \"#utility.yul\":12351:12360   */\n      dup3\n        /* \"#utility.yul\":12332:12429   */\n      tag_187\n      jump\t// in\n    tag_317:\n        /* \"#utility.yul\":12450:12489   */\n      tag_318\n        /* \"#utility.yul\":12480:12488   */\n      dup7\n        /* \"#utility.yul\":12469:12478   */\n      dup4\n        /* \"#utility.yul\":12450:12489   */\n      tag_187\n      jump\t// in\n    tag_318:\n        /* \"#utility.yul\":12438:12489   */\n      swap6\n      pop\n        /* \"#utility.yul\":12522:12526   */\n      dup1\n        /* \"#utility.yul\":12518:12527   */\n      not\n        /* \"#utility.yul\":12511:12516   */\n      dup5\n        /* \"#utility.yul\":12507:12528   */\n      and\n        /* \"#utility.yul\":12498:12528   */\n      swap4\n      pop\n        /* \"#utility.yul\":12571:12575   */\n      dup1\n        /* \"#utility.yul\":12561:12569   */\n      dup7\n        /* \"#utility.yul\":12557:12576   */\n      and\n        /* \"#utility.yul\":12550:12555   */\n      dup5\n        /* \"#utility.yul\":12547:12577   */\n      or\n        /* \"#utility.yul\":12537:12577   */\n      swap3\n      pop\n        /* \"#utility.yul\":12266:12583   */\n      pop\n      pop\n        /* \"#utility.yul\":12190:12583   */\n      swap4\n      swap3\n      pop\n      pop\n      pop\n      jump\t// out\n        /* \"#utility.yul\":12589:12649   */\n    tag_189:\n        /* \"#utility.yul\":12617:12620   */\n      0x00\n        /* \"#utility.yul\":12638:12643   */\n      dup2\n        /* \"#utility.yul\":12631:12643   */\n      swap1\n      pop\n        /* \"#utility.yul\":12589:12649   */\n      swap2\n      swap1\n      pop\n      jump\t// out\n        /* \"#utility.yul\":12655:12797   */\n    tag_190:\n        /* \"#utility.yul\":12705:12714   */\n      0x00\n        /* \"#utility.yul\":12738:12791   */\n      tag_321\n        /* \"#utility.yul\":12756:12790   */\n      tag_322\n        /* \"#utility.yul\":12765:12789   */\n      tag_323\n        /* \"#utility.yul\":12783:12788   */\n      dup5\n        /* \"#utility.yul\":12765:12789   */\n      tag_151\n      jump\t// in\n    tag_323:\n        /* \"#utility.yul\":12756:12790   */\n      tag_189\n      jump\t// in\n    tag_322:\n        /* \"#utility.yul\":12738:12791   */\n      tag_151\n      jump\t// in\n    tag_321:\n        /* \"#utility.yul\":12725:12791   */\n      swap1\n      pop\n        /* \"#utility.yul\":12655:12797   */\n      swap2\n      swap1\n      pop\n      jump\t// out\n        /* \"#utility.yul\":12803:12878   */\n    tag_191:\n        /* \"#utility.yul\":12846:12849   */\n      0x00\n        /* \"#utility.yul\":12867:12872   */\n      dup2\n        /* \"#utility.yul\":12860:12872   */\n      swap1\n      pop\n        /* \"#utility.yul\":12803:12878   */\n      swap2\n      swap1\n      pop\n      jump\t// out\n        /* \"#utility.yul\":12884:13153   */\n    tag_192:\n        /* \"#utility.yul\":12994:13033   */\n      tag_326\n        /* \"#utility.yul\":13025:13032   */\n      dup4\n        /* \"#utility.yul\":12994:13033   */\n      tag_190\n      jump\t// in\n    tag_326:\n        /* \"#utility.yul\":13055:13146   */\n      tag_327\n        /* \"#utility.yul\":13104:13145   */\n      tag_328\n        /* \"#utility.yul\":13128:13144   */\n      dup3\n        /* \"#utility.yul\":13104:13145   */\n      tag_191\n      jump\t// in\n    tag_328:\n        /* \"#utility.yul\":13096:13102   */\n      dup5\n        /* \"#utility.yul\":13089:13093   */\n      dup5\n        /* \"#utility.yul\":13083:13094   */\n      sload\n        /* \"#utility.yul\":13055:13146   */\n      tag_188\n      jump\t// in\n    tag_327:\n        /* \"#utility.yul\":13049:13053   */\n      dup3\n        /* \"#utility.yul\":13042:13147   */\n      sstore\n        /* \"#utility.yul\":12960:13153   */\n      pop\n        /* \"#utility.yul\":12884:13153   */\n      pop\n      pop\n      pop\n      jump\t// out\n        /* \"#utility.yul\":13159:13232   */\n    tag_193:\n        /* \"#utility.yul\":13204:13207   */\n      0x00\n        /* \"#utility.yul\":13225:13226   */\n      0x00\n        /* \"#utility.yul\":13218:13226   */\n      swap1\n      pop\n        /* \"#utility.yul\":13159:13232   */\n      swap1\n      jump\t// out\n        /* \"#utility.yul\":13238:13427   */\n    tag_194:\n        /* \"#utility.yul\":13315:13347   */\n      tag_331\n      tag_193\n      jump\t// in\n    tag_331:\n        /* \"#utility.yul\":13356:13421   */\n      tag_332\n        /* \"#utility.yul\":13414:13420   */\n      dup2\n        /* \"#utility.yul\":13406:13412   */\n      dup5\n        /* \"#utility.yul\":13400:13404   */\n      dup5\n        /* \"#utility.yul\":13356:13421   */\n      tag_192\n      jump\t// in\n    tag_332:\n        /* \"#utility.yul\":13291:13427   */\n      pop\n        /* \"#utility.yul\":13238:13427   */\n      pop\n      pop\n      jump\t// out\n        /* \"#utility.yul\":13433:13619   */\n    tag_195:\n        /* \"#utility.yul\":13493:13613   */\n    tag_334:\n        /* \"#utility.yul\":13510:13513   */\n      dup2\n        /* \"#utility.yul\":13503:13508   */\n      dup2\n        /* \"#utility.yul\":13500:13514   */\n      lt\n        /* \"#utility.yul\":13493:13613   */\n      iszero\n      tag_336\n      jumpi\n        /* \"#utility.yul\":13564:13603   */\n      tag_337\n        /* \"#utility.yul\":13601:13602   */\n      0x00\n        /* \"#utility.yul\":13594:13599   */\n      dup3\n        /* \"#utility.yul\":13564:13603   */\n      tag_194\n      jump\t// in\n    tag_337:\n        /* \"#utility.yul\":13537:13538   */\n      0x01\n        /* \"#utility.yul\":13530:13535   */\n      dup2\n        /* \"#utility.yul\":13526:13539   */\n      add\n        /* \"#utility.yul\":13517:13539   */\n      swap1\n      pop\n        /* \"#utility.yul\":13493:13613   */\n      jump(tag_334)\n    tag_336:\n        /* \"#utility.yul\":13433:13619   */\n      pop\n      pop\n      jump\t// out\n        /* \"#utility.yul\":13625:14168   */\n    tag_196:\n        /* \"#utility.yul\":13726:13728   */\n      0x1f\n        /* \"#utility.yul\":13721:13724   */\n      dup3\n        /* \"#utility.yul\":13718:13729   */\n      gt\n        /* \"#utility.yul\":13715:14161   */\n      iszero\n      tag_339\n      jumpi\n        /* \"#utility.yul\":13760:13798   */\n      tag_340\n        /* \"#utility.yul\":13792:13797   */\n      dup2\n        /* \"#utility.yul\":13760:13798   */\n      tag_185\n      jump\t// in\n    tag_340:\n        /* \"#utility.yul\":13844:13873   */\n      tag_341\n        /* \"#utility.yul\":13862:13872   */\n      dup5\n        /* \"#utility.yul\":13844:13873   */\n      tag_186\n      jump\t// in\n    tag_341:\n        /* \"#utility.yul\":13834:13842   */\n      dup2\n        /* \"#utility.yul\":13830:13874   */\n      add\n        /* \"#utility.yul\":14027:14029   */\n      0x20\n        /* \"#utility.yul\":14015:14025   */\n      dup6\n        /* \"#utility.yul\":14012:14030   */\n      lt\n        /* \"#utility.yul\":14009:14058   */\n      iszero\n      tag_342\n      jumpi\n        /* \"#utility.yul\":14048:14056   */\n      dup2\n        /* \"#utility.yul\":14033:14056   */\n      swap1\n      pop\n        /* \"#utility.yul\":14009:14058   */\n    tag_342:\n        /* \"#utility.yul\":14071:14151   */\n      tag_343\n        /* \"#utility.yul\":14127:14149   */\n      tag_344\n        /* \"#utility.yul\":14145:14148   */\n      dup6\n        /* \"#utility.yul\":14127:14149   */\n      tag_186\n      jump\t// in\n    tag_344:\n        /* \"#utility.yul\":14117:14125   */\n      dup4\n        /* \"#utility.yul\":14113:14150   */\n      add\n        /* \"#utility.yul\":14100:14111   */\n      dup3\n        /* \"#utility.yul\":14071:14151   */\n      tag_195\n      jump\t// in\n    tag_343:\n        /* \"#utility.yul\":13730:14161   */\n      pop\n      pop\n        /* \"#utility.yul\":13715:14161   */\n    tag_339:\n        /* \"#utility.yul\":13625:14168   */\n      pop\n      pop\n      pop\n      jump\t// out\n        /* \"#utility.yul\":14174:14291   */\n    tag_197:\n        /* \"#utility.yul\":14228:14236   */\n      0x00\n        /* \"#utility.yul\":14278:14283   */\n      dup3\n        /* \"#utility.yul\":14272:14276   */\n      dup3\n        /* \"#utility.yul\":14268:14284   */\n      shr\n        /* \"#utility.yul\":14247:14284   */\n      swap1\n      pop\n        /* \"#utility.yul\":14174:14291   */\n      swap3\n      swap2\n      pop\n      pop\n      jump\t// out\n        /* \"#utility.yul\":14297:14466   */\n    tag_198:\n        /* \"#utility.yul\":14341:14347   */\n      0x00\n        /* \"#utility.yul\":14374:14425   */\n      tag_347\n        /* \"#utility.yul\":14422:14423   */\n      0x00\n        /* \"#utility.yul\":14418:14424   */\n      not\n        /* \"#utility.yul\":14410:14415   */\n      dup5\n        /* \"#utility.yul\":14407:14408   */\n      0x08\n        /* \"#utility.yul\":14403:14416   */\n      mul\n        /* \"#utility.yul\":14374:14425   */\n      tag_197\n      jump\t// in\n    tag_347:\n        /* \"#utility.yul\":14370:14426   */\n      not\n        /* \"#utility.yul\":14455:14459   */\n      dup1\n        /* \"#utility.yul\":14449:14453   */\n      dup4\n        /* \"#utility.yul\":14445:14460   */\n      and\n        /* \"#utility.yul\":14435:14460   */\n      swap2\n      pop\n        /* \"#utility.yul\":14348:14466   */\n      pop\n        /* \"#utility.yul\":14297:14466   */\n      swap3\n      swap2\n      pop\n      pop\n      jump\t// out\n        /* \"#utility.yul\":14471:14766   */\n    tag_199:\n        /* \"#utility.yul\":14547:14551   */\n      0x00\n        /* \"#utility.yul\":14693:14722   */\n      tag_349\n        /* \"#utility.yul\":14718:14721   */\n      dup4\n        /* \"#utility.yul\":14712:14716   */\n      dup4\n        /* \"#utility.yul\":14693:14722   */\n      tag_198\n      jump\t// in\n    tag_349:\n        /* \"#utility.yul\":14685:14722   */\n      swap2\n      pop\n        /* \"#utility.yul\":14755:14758   */\n      dup3\n        /* \"#utility.yul\":14752:14753   */\n      0x02\n        /* \"#utility.yul\":14748:14759   */\n      mul\n        /* \"#utility.yul\":14742:14746   */\n      dup3\n        /* \"#utility.yul\":14739:14760   */\n      or\n        /* \"#utility.yul\":14731:14760   */\n      swap1\n      pop\n        /* \"#utility.yul\":14471:14766   */\n      swap3\n      swap2\n      pop\n      pop\n      jump\t// out\n        /* \"#utility.yul\":14771:16166   */\n    tag_86:\n        /* \"#utility.yul\":14888:14925   */\n      tag_351\n        /* \"#utility.yul\":14921:14924   */\n      dup3\n        /* \"#utility.yul\":14888:14925   */\n      tag_163\n      jump\t// in\n    tag_351:\n        /* \"#utility.yul\":14990:15008   */\n      0xffffffffffffffff\n        /* \"#utility.yul\":14982:14988   */\n      dup2\n        /* \"#utility.yul\":14979:15009   */\n      gt\n        /* \"#utility.yul\":14976:15032   */\n      iszero\n      tag_352\n      jumpi\n        /* \"#utility.yul\":15012:15030   */\n      tag_353\n      tag_120\n      jump\t// in\n    tag_353:\n        /* \"#utility.yul\":14976:15032   */\n    tag_352:\n        /* \"#utility.yul\":15056:15094   */\n      tag_354\n        /* \"#utility.yul\":15088:15092   */\n      dup3\n        /* \"#utility.yul\":15082:15093   */\n      sload\n        /* \"#utility.yul\":15056:15094   */\n      tag_98\n      jump\t// in\n    tag_354:\n        /* \"#utility.yul\":15141:15208   */\n      tag_355\n        /* \"#utility.yul\":15201:15207   */\n      dup3\n        /* \"#utility.yul\":15193:15199   */\n      dup3\n        /* \"#utility.yul\":15187:15191   */\n      dup6\n        /* \"#utility.yul\":15141:15208   */\n      tag_196\n      jump\t// in\n    tag_355:\n        /* \"#utility.yul\":15235:15236   */\n      0x00\n        /* \"#utility.yul\":15259:15263   */\n      0x20\n        /* \"#utility.yul\":15246:15263   */\n      swap1\n      pop\n        /* \"#utility.yul\":15291:15293   */\n      0x1f\n        /* \"#utility.yul\":15283:15289   */\n      dup4\n        /* \"#utility.yul\":15280:15294   */\n      gt\n        /* \"#utility.yul\":15308:15309   */\n      0x01\n        /* \"#utility.yul\":15303:15921   */\n      dup2\n      eq\n      tag_357\n      jumpi\n        /* \"#utility.yul\":15965:15966   */\n      0x00\n        /* \"#utility.yul\":15982:15988   */\n      dup5\n        /* \"#utility.yul\":15979:16056   */\n      iszero\n      tag_358\n      jumpi\n        /* \"#utility.yul\":16031:16040   */\n      dup3\n        /* \"#utility.yul\":16026:16029   */\n      dup8\n        /* \"#utility.yul\":16022:16041   */\n      add\n        /* \"#utility.yul\":16016:16042   */\n      mload\n        /* \"#utility.yul\":16007:16042   */\n      swap1\n      pop\n        /* \"#utility.yul\":15979:16056   */\n    tag_358:\n        /* \"#utility.yul\":16082:16149   */\n      tag_359\n        /* \"#utility.yul\":16142:16148   */\n      dup6\n        /* \"#utility.yul\":16135:16140   */\n      dup3\n        /* \"#utility.yul\":16082:16149   */\n      tag_199\n      jump\t// in\n    tag_359:\n        /* \"#utility.yul\":16076:16080   */\n      dup7\n        /* \"#utility.yul\":16069:16150   */\n      sstore\n        /* \"#utility.yul\":15938:16160   */\n      pop\n        /* \"#utility.yul\":15273:16160   */\n      jump(tag_356)\n        /* \"#utility.yul\":15303:15921   */\n    tag_357:\n        /* \"#utility.yul\":15355:15359   */\n      0x1f\n        /* \"#utility.yul\":15351:15360   */\n      not\n        /* \"#utility.yul\":15343:15349   */\n      dup5\n        /* \"#utility.yul\":15339:15361   */\n      and\n        /* \"#utility.yul\":15389:15426   */\n      tag_360\n        /* \"#utility.yul\":15421:15425   */\n      dup7\n        /* \"#utility.yul\":15389:15426   */\n      tag_185\n      jump\t// in\n    tag_360:\n        /* \"#utility.yul\":15448:15449   */\n      0x00\n        /* \"#utility.yul\":15462:15670   */\n    tag_361:\n        /* \"#utility.yul\":15476:15483   */\n      dup3\n        /* \"#utility.yul\":15473:15474   */\n      dup2\n        /* \"#utility.yul\":15470:15484   */\n      lt\n        /* \"#utility.yul\":15462:15670   */\n      iszero\n      tag_363\n      jumpi\n        /* \"#utility.yul\":15555:15564   */\n      dup5\n        /* \"#utility.yul\":15550:15553   */\n      dup10\n        /* \"#utility.yul\":15546:15565   */\n      add\n        /* \"#utility.yul\":15540:15566   */\n      mload\n        /* \"#utility.yul\":15532:15538   */\n      dup3\n        /* \"#utility.yul\":15525:15567   */\n      sstore\n        /* \"#utility.yul\":15606:15607   */\n      0x01\n        /* \"#utility.yul\":15598:15604   */\n      dup3\n        /* \"#utility.yul\":15594:15608   */\n      add\n        /* \"#utility.yul\":15584:15608   */\n      swap2\n      pop\n        /* \"#utility.yul\":15653:15655   */\n      0x20\n        /* \"#utility.yul\":15642:15651   */\n      dup6\n        /* \"#utility.yul\":15638:15656   */\n      add\n        /* \"#utility.yul\":15625:15656   */\n      swap5\n      pop\n        /* \"#utility.yul\":15499:15503   */\n      0x20\n        /* \"#utility.yul\":15496:15497   */\n      dup2\n        /* \"#utility.yul\":15492:15504   */\n      add\n        /* \"#utility.yul\":15487:15504   */\n      swap1\n      pop\n        /* \"#utility.yul\":15462:15670   */\n      jump(tag_361)\n    tag_363:\n        /* \"#utility.yul\":15698:15704   */\n      dup7\n        /* \"#utility.yul\":15689:15696   */\n      dup4\n        /* \"#utility.yul\":15686:15705   */\n      lt\n        /* \"#utility.yul\":15683:15862   */\n      iszero\n      tag_364\n      jumpi\n        /* \"#utility.yul\":15756:15765   */\n      dup5\n        /* \"#utility.yul\":15751:15754   */\n      dup10\n        /* \"#utility.yul\":15747:15766   */\n      add\n        /* \"#utility.yul\":15741:15767   */\n      mload\n        /* \"#utility.yul\":15799:15847   */\n      tag_365\n        /* \"#utility.yul\":15841:15845   */\n      0x1f\n        /* \"#utility.yul\":15833:15839   */\n      dup10\n        /* \"#utility.yul\":15829:15846   */\n      and\n        /* \"#utility.yul\":15818:15827   */\n      dup3\n        /* \"#utility.yul\":15799:15847   */\n      tag_198\n      jump\t// in\n    tag_365:\n        /* \"#utility.yul\":15791:15797   */\n      dup4\n        /* \"#utility.yul\":15784:15848   */\n      sstore\n        /* \"#utility.yul\":15706:15862   */\n      pop\n        /* \"#utility.yul\":15683:15862   */\n    tag_364:\n        /* \"#utility.yul\":15908:15909   */\n      0x01\n        /* \"#utility.yul\":15904:15905   */\n      0x02\n        /* \"#utility.yul\":15896:15902   */\n      dup9\n        /* \"#utility.yul\":15892:15906   */\n      mul\n        /* \"#utility.yul\":15888:15910   */\n      add\n        /* \"#utility.yul\":15882:15886   */\n      dup9\n        /* \"#utility.yul\":15875:15911   */\n      sstore\n        /* \"#utility.yul\":15310:15921   */\n      pop\n      pop\n      pop\n        /* \"#utility.yul\":15273:16160   */\n    tag_356:\n      pop\n        /* \"#utility.yul\":14863:16166   */\n      pop\n      pop\n      pop\n        /* \"#utility.yul\":14771:16166   */\n      pop\n      pop\n      jump\t// out\n        /* \"#utility.yul\":16172:16504   */\n    tag_88:\n        /* \"#utility.yul\":16293:16297   */\n      0x00\n        /* \"#utility.yul\":16331:16333   */\n      0x40\n        /* \"#utility.yul\":16320:16329   */\n      dup3\n        /* \"#utility.yul\":16316:16334   */\n      add\n        /* \"#utility.yul\":16308:16334   */\n      swap1\n      pop\n        /* \"#utility.yul\":16344:16415   */\n      tag_367\n        /* \"#utility.yul\":16412:16413   */\n      0x00\n        /* \"#utility.yul\":16401:16410   */\n      dup4\n        /* \"#utility.yul\":16397:16414   */\n      add\n        /* \"#utility.yul\":16388:16394   */\n      dup6\n        /* \"#utility.yul\":16344:16415   */\n      tag_152\n      jump\t// in\n    tag_367:\n        /* \"#utility.yul\":16425:16497   */\n      tag_368\n        /* \"#utility.yul\":16493:16495   */\n      0x20\n        /* \"#utility.yul\":16482:16491   */\n      dup4\n        /* \"#utility.yul\":16478:16496   */\n      add\n        /* \"#utility.yul\":16469:16475   */\n      dup5\n        /* \"#utility.yul\":16425:16497   */\n      tag_152\n      jump\t// in\n    tag_368:\n        /* \"#utility.yul\":16172:16504   */\n      swap4\n      swap3\n      pop\n      pop\n      pop\n      jump\t// out\n        /* \"#utility.yul\":16510:16684   */\n    tag_200:\n        /* \"#utility.yul\":16650:16676   */\n      0x4f6e6c79206f776e65722063616e2063616c6c20746869730000000000000000\n        /* \"#utility.yul\":16646:16647   */\n      0x00\n        /* \"#utility.yul\":16638:16644   */\n      dup3\n        /* \"#utility.yul\":16634:16648   */\n      add\n        /* \"#utility.yul\":16627:16677   */\n      mstore\n        /* \"#utility.yul\":16510:16684   */\n      pop\n      jump\t// out\n        /* \"#utility.yul\":16690:17056   */\n    tag_201:\n        /* \"#utility.yul\":16832:16835   */\n      0x00\n        /* \"#utility.yul\":16853:16920   */\n      tag_371\n        /* \"#utility.yul\":16917:16919   */\n      0x18\n        /* \"#utility.yul\":16912:16915   */\n      dup4\n        /* \"#utility.yul\":16853:16920   */\n      tag_164\n      jump\t// in\n    tag_371:\n        /* \"#utility.yul\":16846:16920   */\n      swap2\n      pop\n        /* \"#utility.yul\":16929:17022   */\n      tag_372\n        /* \"#utility.yul\":17018:17021   */\n      dup3\n        /* \"#utility.yul\":16929:17022   */\n      tag_200\n      jump\t// in\n    tag_372:\n        /* \"#utility.yul\":17047:17049   */\n      0x20\n        /* \"#utility.yul\":17042:17045   */\n      dup3\n        /* \"#utility.yul\":17038:17050   */\n      add\n        /* \"#utility.yul\":17031:17050   */\n      swap1\n      pop\n        /* \"#utility.yul\":16690:17056   */\n      swap2\n      swap1\n      pop\n      jump\t// out\n        /* \"#utility.yul\":17062:17481   */\n    tag_92:\n        /* \"#utility.yul\":17228:17232   */\n      0x00\n        /* \"#utility.yul\":17266:17268   */\n      0x20\n        /* \"#utility.yul\":17255:17264   */\n      dup3\n        /* \"#utility.yul\":17251:17269   */\n      add\n        /* \"#utility.yul\":17243:17269   */\n      swap1\n      pop\n        /* \"#utility.yul\":17315:17324   */\n      dup2\n        /* \"#utility.yul\":17309:17313   */\n      dup2\n        /* \"#utility.yul\":17305:17325   */\n      sub\n        /* \"#utility.yul\":17301:17302   */\n      0x00\n        /* \"#utility.yul\":17290:17299   */\n      dup4\n        /* \"#utility.yul\":17286:17303   */\n      add\n        /* \"#utility.yul\":17279:17326   */\n      mstore\n        /* \"#utility.yul\":17343:17474   */\n      tag_374\n        /* \"#utility.yul\":17469:17473   */\n      dup2\n        /* \"#utility.yul\":17343:17474   */\n      tag_201\n      jump\t// in\n    tag_374:\n        /* \"#utility.yul\":17335:17474   */\n      swap1\n      pop\n        /* \"#utility.yul\":17062:17481   */\n      swap2\n      swap1\n      pop\n      jump\t// out\n        /* \"#utility.yul\":17487:17667   */\n    tag_113:\n        /* \"#utility.yul\":17535:17612   */\n      0x4e487b7100000000000000000000000000000000000000000000000000000000\n        /* \"#utility.yul\":17532:17533   */\n      0x00\n        /* \"#utility.yul\":17525:17613   */\n      mstore\n        /* \"#utility.yul\":17632:17636   */\n      0x32\n        /* \"#utility.yul\":17629:17630   */\n      0x04\n        /* \"#utility.yul\":17622:17637   */\n      mstore\n        /* \"#utility.yul\":17656:17660   */\n      0x24\n        /* \"#utility.yul\":17653:17654   */\n      0x00\n        /* \"#utility.yul\":17646:17661   */\n      revert\n        /* \"#utility.yul\":17673:17906   */\n    tag_117:\n        /* \"#utility.yul\":17712:17715   */\n      0x00\n        /* \"#utility.yul\":17735:17759   */\n      tag_377\n        /* \"#utility.yul\":17753:17758   */\n      dup3\n        /* \"#utility.yul\":17735:17759   */\n      tag_151\n      jump\t// in\n    tag_377:\n        /* \"#utility.yul\":17726:17759   */\n      swap2\n      pop\n        /* \"#utility.yul\":17781:17847   */\n      0xffffffffffffffffffffffffffffffffffffffffffffffffffffffffffffffff\n        /* \"#utility.yul\":17774:17779   */\n      dup3\n        /* \"#utility.yul\":17771:17848   */\n      sub\n        /* \"#utility.yul\":17768:17871   */\n      tag_378\n      jumpi\n        /* \"#utility.yul\":17851:17869   */\n      tag_379\n      tag_181\n      jump\t// in\n    tag_379:\n        /* \"#utility.yul\":17768:17871   */\n    tag_378:\n        /* \"#utility.yul\":17898:17899   */\n      0x01\n        /* \"#utility.yul\":17891:17896   */\n      dup3\n        /* \"#utility.yul\":17887:17900   */\n      add\n        /* \"#utility.yul\":17880:17900   */\n      swap1\n      pop\n        /* \"#utility.yul\":17673:17906   */\n      swap2\n      swap1\n      pop\n      jump\t// out\n        /* \"#utility.yul\":17912:18084   */\n    tag_202:\n        /* \"#utility.yul\":18052:18076   */\n      0x4465706f73697420616d6f756e7420746f6f206c6f7700000000000000000000\n        /* \"#utility.yul\":18048:18049   */\n      0x00\n        /* \"#utility.yul\":18040:18046   */\n      dup3\n        /* \"#utility.yul\":18036:18050   */\n      add\n        /* \"#utility.yul\":18029:18077   */\n      mstore\n        /* \"#utility.yul\":17912:18084   */\n      pop\n      jump\t// out\n        /* \"#utility.yul\":18090:18456   */\n    tag_203:\n        /* \"#utility.yul\":18232:18235   */\n      0x00\n        /* \"#utility.yul\":18253:18320   */\n      tag_382\n        /* \"#utility.yul\":18317:18319   */\n      0x16\n        /* \"#utility.yul\":18312:18315   */\n      dup4\n        /* \"#utility.yul\":18253:18320   */\n      tag_164\n      jump\t// in\n    tag_382:\n        /* \"#utility.yul\":18246:18320   */\n      swap2\n      pop\n        /* \"#utility.yul\":18329:18422   */\n      tag_383\n        /* \"#utility.yul\":18418:18421   */\n      dup3\n        /* \"#utility.yul\":18329:18422   */\n      tag_202\n      jump\t// in\n    tag_383:\n        /* \"#utility.yul\":18447:18449   */\n      0x20\n        /* \"#utility.yul\":18442:18445   */\n      dup3\n        /* \"#utility.yul\":18438:18450   */\n      add\n        /* \"#utility.yul\":18431:18450   */\n      swap1\n      pop\n        /* \"#utility.yul\":18090:18456   */\n      swap2\n      swap1\n      pop\n      jump\t// out\n        /* \"#utility.yul\":18462:18881   */\n    tag_146:\n        /* \"#utility.yul\":18628:18632   */\n      0x00\n        /* \"#utility.yul\":18666:18668   */\n      0x20\n        /* \"#utility.yul\":18655:18664   */\n      dup3\n        /* \"#utility.yul\":18651:18669   */\n      add\n        /* \"#utility.yul\":18643:18669   */\n      swap1\n      pop\n        /* \"#utility.yul\":18715:18724   */\n      dup2\n        /* \"#utility.yul\":18709:18713   */\n      dup2\n        /* \"#utility.yul\":18705:18725   */\n      sub\n        /* \"#utility.yul\":18701:18702   */\n      0x00\n        /* \"#utility.yul\":18690:18699   */\n      dup4\n        /* \"#utility.yul\":18686:18703   */\n      add\n        /* \"#utility.yul\":18679:18726   */\n      mstore\n        /* \"#utility.yul\":18743:18874   */\n      tag_385\n        /* \"#utility.yul\":18869:18873   */\n      dup2\n        /* \"#utility.yul\":18743:18874   */\n      tag_203\n      jump\t// in\n    tag_385:\n        /* \"#utility.yul\":18735:18874   */\n      swap1\n      pop\n        /* \"#utility.yul\":18462:18881   */\n      swap2\n      swap1\n      pop\n      jump\t// out\n\n    auxdata: 0xa2646970667358221220272a0b3425d2c9afb7274684ec3eaa629dfa4b9703f4b0a3ef11702ada1d3b1664736f6c634300081e0033\n}\n",
				"bytecode": {
					"linkReferences": {},
					"object": "608060405234801561000f575f5ffd5b5060405161188a38038061188a833981810160405281019061003191906100bd565b3360015f6101000a81548173ffffffffffffffffffffffffffffffffffffffff021916908373ffffffffffffffffffffffffffffffffffffffff160217905550816002819055508060038190555050506100fb565b5f5ffd5b5f819050919050565b61009c8161008a565b81146100a6575f5ffd5b50565b5f815190506100b781610093565b92915050565b5f5f604083850312156100d3576100d2610086565b5b5f6100e0858286016100a9565b92505060206100f1858286016100a9565b9150509250929050565b611782806101085f395ff3fe6080604052600436106100a6575f3560e01c80638da5cb5b116100635780638da5cb5b146101c85780638fcc9cfb146101f25780639ace38c21461021a578063ae04d45d14610259578063b76d4fc314610281578063d0e30db0146102ab576100a6565b80630d668087146100aa57806312065fe0146100d457806327e235e3146100fe5780632e1a7d4d1461013a57806341b3d185146101625780634de5120e1461018c575b5f5ffd5b3480156100b5575f5ffd5b506100be6102b5565b6040516100cb9190610e0b565b60405180910390f35b3480156100df575f5ffd5b506100e86102bb565b6040516100f59190610e0b565b60405180910390f35b348015610109575f5ffd5b50610124600480360381019061011f9190610e82565b6102fe565b6040516101319190610e0b565b60405180910390f35b348015610145575f5ffd5b50610160600480360381019061015b9190610ed7565b610312565b005b34801561016d575f5ffd5b5061017661064d565b6040516101839190610e0b565b60405180910390f35b348015610197575f5ffd5b506101b260048036038101906101ad9190610e82565b610653565b6040516101bf9190610e0b565b60405180910390f35b3480156101d3575f5ffd5b506101dc610668565b6040516101e99190610f11565b60405180910390f35b3480156101fd575f5ffd5b5061021860048036038101906102139190610ed7565b61068d565b005b348015610225575f5ffd5b50610240600480360381019061023b9190610ed7565b610761565b6040516102509493929190610f9a565b60405180910390f35b348015610264575f5ffd5b5061027f600480360381019061027a9190610ed7565b610841565b005b34801561028c575f5ffd5b506102956108da565b6040516102a29190611165565b60405180910390f35b6102b3610bcb565b005b60035481565b5f5f5f3373ffffffffffffffffffffffffffffffffffffffff1673ffffffffffffffffffffffffffffffffffffffff1681526020019081526020015f2054905090565b5f602052805f5260405f205f915090505481565b805f5f3373ffffffffffffffffffffffffffffffffffffffff1673ffffffffffffffffffffffffffffffffffffffff1681526020019081526020015f20541015610391576040517f08c379a0000000000000000000000000000000000000000000000000000000008152600401610388906111cf565b60405180910390fd5b60035460045f3373ffffffffffffffffffffffffffffffffffffffff1673ffffffffffffffffffffffffffffffffffffffff1681526020019081526020015f20546103dc919061121a565b42101561041e576040517f08c379a000000000000000000000000000000000000000000000000000000000815260040161041590611297565b60405180910390fd5b805f5f3373ffffffffffffffffffffffffffffffffffffffff1673ffffffffffffffffffffffffffffffffffffffff1681526020019081526020015f205f82825461046991906112b5565b925050819055504260045f3373ffffffffffffffffffffffffffffffffffffffff1673ffffffffffffffffffffffffffffffffffffffff1681526020019081526020015f20819055503373ffffffffffffffffffffffffffffffffffffffff166108fc8290811502906040515f60405180830381858888f193505050501580156104f5573d5f5f3e3d5ffd5b50600560405180608001604052803373ffffffffffffffffffffffffffffffffffffffff1681526020018381526020014281526020016040518060400160405280600881526020017f7769746864726177000000000000000000000000000000000000000000000000815250815250908060018154018082558091505060019003905f5260205f2090600402015f909190919091505f820151815f015f6101000a81548173ffffffffffffffffffffffffffffffffffffffff021916908373ffffffffffffffffffffffffffffffffffffffff160217905550602082015181600101556040820151816002015560608201518160030190816105f79190611512565b5050503373ffffffffffffffffffffffffffffffffffffffff167f92ccf450a286a957af52509bc1c9939d1a6a481783e142e41e2499f0bb66ebc682426040516106429291906115e1565b60405180910390a250565b60025481565b6004602052805f5260405f205f915090505481565b60015f9054906101000a900473ffffffffffffffffffffffffffffffffffffffff1681565b60015f9054906101000a900473ffffffffffffffffffffffffffffffffffffffff1673ffffffffffffffffffffffffffffffffffffffff163373ffffffffffffffffffffffffffffffffffffffff161461071c576040517f08c379a000000000000000000000000000000000000000000000000000000000815260040161071390611652565b60405180910390fd5b7fcacd94bd1e7bb1185c816a740d9439bc8eff8159f6f4ffad8d306b5aca2ebd926002548260405161074f9291906115e1565b60405180910390a18060028190555050565b60058181548110610770575f80fd5b905f5260205f2090600402015f91509050805f015f9054906101000a900473ffffffffffffffffffffffffffffffffffffffff16908060010154908060020154908060030180546107c090611342565b80601f01602080910402602001604051908101604052809291908181526020018280546107ec90611342565b80156108375780601f1061080e57610100808354040283529160200191610837565b820191905f5260205f20905b81548152906001019060200180831161081a57829003601f168201915b5050505050905084565b60015f9054906101000a900473ffffffffffffffffffffffffffffffffffffffff1673ffffffffffffffffffffffffffffffffffffffff163373ffffffffffffffffffffffffffffffffffffffff16146108d0576040517f08c379a00000000000000000000000000000000000000000000000000000000081526004016108c790611652565b60405180910390fd5b8060038190555050565b60605f5f90505f5f90505b600580549050811015610982573373ffffffffffffffffffffffffffffffffffffffff166005828154811061091d5761091c611670565b5b905f5260205f2090600402015f015f9054906101000a900473ffffffffffffffffffffffffffffffffffffffff1673ffffffffffffffffffffffffffffffffffffffff16036109755781806109719061169d565b9250505b80806001019150506108e5565b505f8167ffffffffffffffff81111561099e5761099d6112e8565b5b6040519080825280602002602001820160405280156109d757816020015b6109c4610db8565b8152602001906001900390816109bc5790505b5090505f5f90505f5f90505b600580549050811015610bc1573373ffffffffffffffffffffffffffffffffffffffff1660058281548110610a1b57610a1a611670565b5b905f5260205f2090600402015f015f9054906101000a900473ffffffffffffffffffffffffffffffffffffffff1673ffffffffffffffffffffffffffffffffffffffff1603610bb45760058181548110610a7857610a77611670565b5b905f5260205f2090600402016040518060800160405290815f82015f9054906101000a900473ffffffffffffffffffffffffffffffffffffffff1673ffffffffffffffffffffffffffffffffffffffff1673ffffffffffffffffffffffffffffffffffffffff1681526020016001820154815260200160028201548152602001600382018054610b0790611342565b80601f0160208091040260200160405190810160405280929190818152602001828054610b3390611342565b8015610b7e5780601f10610b5557610100808354040283529160200191610b7e565b820191905f5260205f20905b815481529060010190602001808311610b6157829003601f168201915b505050505081525050838381518110610b9a57610b99611670565b5b60200260200101819052508180610bb09061169d565b9250505b80806001019150506109e3565b5081935050505090565b600254341015610c10576040517f08c379a0000000000000000000000000000000000000000000000000000000008152600401610c079061172e565b60405180910390fd5b345f5f3373ffffffffffffffffffffffffffffffffffffffff1673ffffffffffffffffffffffffffffffffffffffff1681526020019081526020015f205f828254610c5b919061121a565b92505081905550600560405180608001604052803373ffffffffffffffffffffffffffffffffffffffff1681526020013481526020014281526020016040518060400160405280600781526020017f6465706f73697400000000000000000000000000000000000000000000000000815250815250908060018154018082558091505060019003905f5260205f2090600402015f909190919091505f820151815f015f6101000a81548173ffffffffffffffffffffffffffffffffffffffff021916908373ffffffffffffffffffffffffffffffffffffffff16021790555060208201518160010155604082015181600201556060820151816003019081610d639190611512565b5050503373ffffffffffffffffffffffffffffffffffffffff167f73a19dd210f1a7f902193214c0ee91dd35ee5b4d920cba8d519eca65a7b488ca3442604051610dae9291906115e1565b60405180910390a2565b60405180608001604052805f73ffffffffffffffffffffffffffffffffffffffff1681526020015f81526020015f8152602001606081525090565b5f819050919050565b610e0581610df3565b82525050565b5f602082019050610e1e5f830184610dfc565b92915050565b5f5ffd5b5f73ffffffffffffffffffffffffffffffffffffffff82169050919050565b5f610e5182610e28565b9050919050565b610e6181610e47565b8114610e6b575f5ffd5b50565b5f81359050610e7c81610e58565b92915050565b5f60208284031215610e9757610e96610e24565b5b5f610ea484828501610e6e565b91505092915050565b610eb681610df3565b8114610ec0575f5ffd5b50565b5f81359050610ed181610ead565b92915050565b5f60208284031215610eec57610eeb610e24565b5b5f610ef984828501610ec3565b91505092915050565b610f0b81610e47565b82525050565b5f602082019050610f245f830184610f02565b92915050565b5f81519050919050565b5f82825260208201905092915050565b8281835e5f83830152505050565b5f601f19601f8301169050919050565b5f610f6c82610f2a565b610f768185610f34565b9350610f86818560208601610f44565b610f8f81610f52565b840191505092915050565b5f608082019050610fad5f830187610f02565b610fba6020830186610dfc565b610fc76040830185610dfc565b8181036060830152610fd98184610f62565b905095945050505050565b5f81519050919050565b5f82825260208201905092915050565b5f819050602082019050919050565b61101681610e47565b82525050565b61102581610df3565b82525050565b5f82825260208201905092915050565b5f61104582610f2a565b61104f818561102b565b935061105f818560208601610f44565b61106881610f52565b840191505092915050565b5f608083015f8301516110885f86018261100d565b50602083015161109b602086018261101c565b5060408301516110ae604086018261101c565b50606083015184820360608601526110c6828261103b565b9150508091505092915050565b5f6110de8383611073565b905092915050565b5f602082019050919050565b5f6110fc82610fe4565b6111068185610fee565b93508360208202850161111885610ffe565b805f5b85811015611153578484038952815161113485826110d3565b945061113f836110e6565b925060208a0199505060018101905061111b565b50829750879550505050505092915050565b5f6020820190508181035f83015261117d81846110f2565b905092915050565b7f496e73756666696369656e742062616c616e63650000000000000000000000005f82015250565b5f6111b9601483610f34565b91506111c482611185565b602082019050919050565b5f6020820190508181035f8301526111e6816111ad565b9050919050565b7f4e487b71000000000000000000000000000000000000000000000000000000005f52601160045260245ffd5b5f61122482610df3565b915061122f83610df3565b9250828201905080821115611247576112466111ed565b5b92915050565b7f5769746864726177616c20746f6f20736f6f6e000000000000000000000000005f82015250565b5f611281601383610f34565b915061128c8261124d565b602082019050919050565b5f6020820190508181035f8301526112ae81611275565b9050919050565b5f6112bf82610df3565b91506112ca83610df3565b92508282039050818111156112e2576112e16111ed565b5b92915050565b7f4e487b71000000000000000000000000000000000000000000000000000000005f52604160045260245ffd5b7f4e487b71000000000000000000000000000000000000000000000000000000005f52602260045260245ffd5b5f600282049050600182168061135957607f821691505b60208210810361136c5761136b611315565b5b50919050565b5f819050815f5260205f209050919050565b5f6020601f8301049050919050565b5f82821b905092915050565b5f600883026113ce7fffffffffffffffffffffffffffffffffffffffffffffffffffffffffffffffff82611393565b6113d88683611393565b95508019841693508086168417925050509392505050565b5f819050919050565b5f61141361140e61140984610df3565b6113f0565b610df3565b9050919050565b5f819050919050565b61142c836113f9565b6114406114388261141a565b84845461139f565b825550505050565b5f5f905090565b611457611448565b611462818484611423565b505050565b5b818110156114855761147a5f8261144f565b600181019050611468565b5050565b601f8211156114ca5761149b81611372565b6114a484611384565b810160208510156114b3578190505b6114c76114bf85611384565b830182611467565b50505b505050565b5f82821c905092915050565b5f6114ea5f19846008026114cf565b1980831691505092915050565b5f61150283836114db565b9150826002028217905092915050565b61151b82610f2a565b67ffffffffffffffff811115611534576115336112e8565b5b61153e8254611342565b611549828285611489565b5f60209050601f83116001811461157a575f8415611568578287015190505b61157285826114f7565b8655506115d9565b601f19841661158886611372565b5f5b828110156115af5784890151825560018201915060208501945060208101905061158a565b868310156115cc57848901516115c8601f8916826114db565b8355505b6001600288020188555050505b505050505050565b5f6040820190506115f45f830185610dfc565b6116016020830184610dfc565b9392505050565b7f4f6e6c79206f776e65722063616e2063616c6c207468697300000000000000005f82015250565b5f61163c601883610f34565b915061164782611608565b602082019050919050565b5f6020820190508181035f83015261166981611630565b9050919050565b7f4e487b71000000000000000000000000000000000000000000000000000000005f52603260045260245ffd5b5f6116a782610df3565b91507fffffffffffffffffffffffffffffffffffffffffffffffffffffffffffffffff82036116d9576116d86111ed565b5b600182019050919050565b7f4465706f73697420616d6f756e7420746f6f206c6f77000000000000000000005f82015250565b5f611718601683610f34565b9150611723826116e4565b602082019050919050565b5f6020820190508181035f8301526117458161170c565b905091905056fea2646970667358221220272a0b3425d2c9afb7274684ec3eaa629dfa4b9703f4b0a3ef11702ada1d3b1664736f6c634300081e0033",
					"opcodes": "PUSH1 0x80 PUSH1 0x40 MSTORE CALLVALUE DUP1 ISZERO PUSH2 0xF JUMPI PUSH0 PUSH0 REVERT JUMPDEST POP PUSH1 0x40 MLOAD PUSH2 0x188A CODESIZE SUB DUP1 PUSH2 0x188A DUP4 CODECOPY DUP2 DUP2 ADD PUSH1 0x40 MSTORE DUP2 ADD SWAP1 PUSH2 0x31 SWAP2 SWAP1 PUSH2 0xBD JUMP JUMPDEST CALLER PUSH1 0x1 PUSH0 PUSH2 0x100 EXP DUP2 SLOAD DUP2 PUSH20 0xFFFFFFFFFFFFFFFFFFFFFFFFFFFFFFFFFFFFFFFF MUL NOT AND SWAP1 DUP4 PUSH20 0xFFFFFFFFFFFFFFFFFFFFFFFFFFFFFFFFFFFFFFFF AND MUL OR SWAP1 SSTORE POP DUP2 PUSH1 0x2 DUP2 SWAP1 SSTORE POP DUP1 PUSH1 0x3 DUP2 SWAP1 SSTORE POP POP POP PUSH2 0xFB JUMP JUMPDEST PUSH0 PUSH0 REVERT JUMPDEST PUSH0 DUP2 SWAP1 POP SWAP2 SWAP1 POP JUMP JUMPDEST PUSH2 0x9C DUP2 PUSH2 0x8A JUMP JUMPDEST DUP2 EQ PUSH2 0xA6 JUMPI PUSH0 PUSH0 REVERT JUMPDEST POP JUMP JUMPDEST PUSH0 DUP2 MLOAD SWAP1 POP PUSH2 0xB7 DUP2 PUSH2 0x93 JUMP JUMPDEST SWAP3 SWAP2 POP POP JUMP JUMPDEST PUSH0 PUSH0 PUSH1 0x40 DUP4 DUP6 SUB SLT ISZERO PUSH2 0xD3 JUMPI PUSH2 0xD2 PUSH2 0x86 JUMP JUMPDEST JUMPDEST PUSH0 PUSH2 0xE0 DUP6 DUP3 DUP7 ADD PUSH2 0xA9 JUMP JUMPDEST SWAP3 POP POP PUSH1 0x20 PUSH2 0xF1 DUP6 DUP3 DUP7 ADD PUSH2 0xA9 JUMP JUMPDEST SWAP2 POP POP SWAP3 POP SWAP3 SWAP1 POP JUMP JUMPDEST PUSH2 0x1782 DUP1 PUSH2 0x108 PUSH0 CODECOPY PUSH0 RETURN INVALID PUSH1 0x80 PUSH1 0x40 MSTORE PUSH1 0x4 CALLDATASIZE LT PUSH2 0xA6 JUMPI PUSH0 CALLDATALOAD PUSH1 0xE0 SHR DUP1 PUSH4 0x8DA5CB5B GT PUSH2 0x63 JUMPI DUP1 PUSH4 0x8DA5CB5B EQ PUSH2 0x1C8 JUMPI DUP1 PUSH4 0x8FCC9CFB EQ PUSH2 0x1F2 JUMPI DUP1 PUSH4 0x9ACE38C2 EQ PUSH2 0x21A JUMPI DUP1 PUSH4 0xAE04D45D EQ PUSH2 0x259 JUMPI DUP1 PUSH4 0xB76D4FC3 EQ PUSH2 0x281 JUMPI DUP1 PUSH4 0xD0E30DB0 EQ PUSH2 0x2AB JUMPI PUSH2 0xA6 JUMP JUMPDEST DUP1 PUSH4 0xD668087 EQ PUSH2 0xAA JUMPI DUP1 PUSH4 0x12065FE0 EQ PUSH2 0xD4 JUMPI DUP1 PUSH4 0x27E235E3 EQ PUSH2 0xFE JUMPI DUP1 PUSH4 0x2E1A7D4D EQ PUSH2 0x13A JUMPI DUP1 PUSH4 0x41B3D185 EQ PUSH2 0x162 JUMPI DUP1 PUSH4 0x4DE5120E EQ PUSH2 0x18C JUMPI JUMPDEST PUSH0 PUSH0 REVERT JUMPDEST CALLVALUE DUP1 ISZERO PUSH2 0xB5 JUMPI PUSH0 PUSH0 REVERT JUMPDEST POP PUSH2 0xBE PUSH2 0x2B5 JUMP JUMPDEST PUSH1 0x40 MLOAD PUSH2 0xCB SWAP2 SWAP1 PUSH2 0xE0B JUMP JUMPDEST PUSH1 0x40 MLOAD DUP1 SWAP2 SUB SWAP1 RETURN JUMPDEST CALLVALUE DUP1 ISZERO PUSH2 0xDF JUMPI PUSH0 PUSH0 REVERT JUMPDEST POP PUSH2 0xE8 PUSH2 0x2BB JUMP JUMPDEST PUSH1 0x40 MLOAD PUSH2 0xF5 SWAP2 SWAP1 PUSH2 0xE0B JUMP JUMPDEST PUSH1 0x40 MLOAD DUP1 SWAP2 SUB SWAP1 RETURN JUMPDEST CALLVALUE DUP1 ISZERO PUSH2 0x109 JUMPI PUSH0 PUSH0 REVERT JUMPDEST POP PUSH2 0x124 PUSH1 0x4 DUP1 CALLDATASIZE SUB DUP2 ADD SWAP1 PUSH2 0x11F SWAP2 SWAP1 PUSH2 0xE82 JUMP JUMPDEST PUSH2 0x2FE JUMP JUMPDEST PUSH1 0x40 MLOAD PUSH2 0x131 SWAP2 SWAP1 PUSH2 0xE0B JUMP JUMPDEST PUSH1 0x40 MLOAD DUP1 SWAP2 SUB SWAP1 RETURN JUMPDEST CALLVALUE DUP1 ISZERO PUSH2 0x145 JUMPI PUSH0 PUSH0 REVERT JUMPDEST POP PUSH2 0x160 PUSH1 0x4 DUP1 CALLDATASIZE SUB DUP2 ADD SWAP1 PUSH2 0x15B SWAP2 SWAP1 PUSH2 0xED7 JUMP JUMPDEST PUSH2 0x312 JUMP JUMPDEST STOP JUMPDEST CALLVALUE DUP1 ISZERO PUSH2 0x16D JUMPI PUSH0 PUSH0 REVERT JUMPDEST POP PUSH2 0x176 PUSH2 0x64D JUMP JUMPDEST PUSH1 0x40 MLOAD PUSH2 0x183 SWAP2 SWAP1 PUSH2 0xE0B JUMP JUMPDEST PUSH1 0x40 MLOAD DUP1 SWAP2 SUB SWAP1 RETURN JUMPDEST CALLVALUE DUP1 ISZERO PUSH2 0x197 JUMPI PUSH0 PUSH0 REVERT JUMPDEST POP PUSH2 0x1B2 PUSH1 0x4 DUP1 CALLDATASIZE SUB DUP2 ADD SWAP1 PUSH2 0x1AD SWAP2 SWAP1 PUSH2 0xE82 JUMP JUMPDEST PUSH2 0x653 JUMP JUMPDEST PUSH1 0x40 MLOAD PUSH2 0x1BF SWAP2 SWAP1 PUSH2 0xE0B JUMP JUMPDEST PUSH1 0x40 MLOAD DUP1 SWAP2 SUB SWAP1 RETURN JUMPDEST CALLVALUE DUP1 ISZERO PUSH2 0x1D3 JUMPI PUSH0 PUSH0 REVERT JUMPDEST POP PUSH2 0x1DC PUSH2 0x668 JUMP JUMPDEST PUSH1 0x40 MLOAD PUSH2 0x1E9 SWAP2 SWAP1 PUSH2 0xF11 JUMP JUMPDEST PUSH1 0x40 MLOAD DUP1 SWAP2 SUB SWAP1 RETURN JUMPDEST CALLVALUE DUP1 ISZERO PUSH2 0x1FD JUMPI PUSH0 PUSH0 REVERT JUMPDEST POP PUSH2 0x218 PUSH1 0x4 DUP1 CALLDATASIZE SUB DUP2 ADD SWAP1 PUSH2 0x213 SWAP2 SWAP1 PUSH2 0xED7 JUMP JUMPDEST PUSH2 0x68D JUMP JUMPDEST STOP JUMPDEST CALLVALUE DUP1 ISZERO PUSH2 0x225 JUMPI PUSH0 PUSH0 REVERT JUMPDEST POP PUSH2 0x240 PUSH1 0x4 DUP1 CALLDATASIZE SUB DUP2 ADD SWAP1 PUSH2 0x23B SWAP2 SWAP1 PUSH2 0xED7 JUMP JUMPDEST PUSH2 0x761 JUMP JUMPDEST PUSH1 0x40 MLOAD PUSH2 0x250 SWAP5 SWAP4 SWAP3 SWAP2 SWAP1 PUSH2 0xF9A JUMP JUMPDEST PUSH1 0x40 MLOAD DUP1 SWAP2 SUB SWAP1 RETURN JUMPDEST CALLVALUE DUP1 ISZERO PUSH2 0x264 JUMPI PUSH0 PUSH0 REVERT JUMPDEST POP PUSH2 0x27F PUSH1 0x4 DUP1 CALLDATASIZE SUB DUP2 ADD SWAP1 PUSH2 0x27A SWAP2 SWAP1 PUSH2 0xED7 JUMP JUMPDEST PUSH2 0x841 JUMP JUMPDEST STOP JUMPDEST CALLVALUE DUP1 ISZERO PUSH2 0x28C JUMPI PUSH0 PUSH0 REVERT JUMPDEST POP PUSH2 0x295 PUSH2 0x8DA JUMP JUMPDEST PUSH1 0x40 MLOAD PUSH2 0x2A2 SWAP2 SWAP1 PUSH2 0x1165 JUMP JUMPDEST PUSH1 0x40 MLOAD DUP1 SWAP2 SUB SWAP1 RETURN JUMPDEST PUSH2 0x2B3 PUSH2 0xBCB JUMP JUMPDEST STOP JUMPDEST PUSH1 0x3 SLOAD DUP2 JUMP JUMPDEST PUSH0 PUSH0 PUSH0 CALLER PUSH20 0xFFFFFFFFFFFFFFFFFFFFFFFFFFFFFFFFFFFFFFFF AND PUSH20 0xFFFFFFFFFFFFFFFFFFFFFFFFFFFFFFFFFFFFFFFF AND DUP2 MSTORE PUSH1 0x20 ADD SWAP1 DUP2 MSTORE PUSH1 0x20 ADD PUSH0 KECCAK256 SLOAD SWAP1 POP SWAP1 JUMP JUMPDEST PUSH0 PUSH1 0x20 MSTORE DUP1 PUSH0 MSTORE PUSH1 0x40 PUSH0 KECCAK256 PUSH0 SWAP2 POP SWAP1 POP SLOAD DUP2 JUMP JUMPDEST DUP1 PUSH0 PUSH0 CALLER PUSH20 0xFFFFFFFFFFFFFFFFFFFFFFFFFFFFFFFFFFFFFFFF AND PUSH20 0xFFFFFFFFFFFFFFFFFFFFFFFFFFFFFFFFFFFFFFFF AND DUP2 MSTORE PUSH1 0x20 ADD SWAP1 DUP2 MSTORE PUSH1 0x20 ADD PUSH0 KECCAK256 SLOAD LT ISZERO PUSH2 0x391 JUMPI PUSH1 0x40 MLOAD PUSH32 0x8C379A000000000000000000000000000000000000000000000000000000000 DUP2 MSTORE PUSH1 0x4 ADD PUSH2 0x388 SWAP1 PUSH2 0x11CF JUMP JUMPDEST PUSH1 0x40 MLOAD DUP1 SWAP2 SUB SWAP1 REVERT JUMPDEST PUSH1 0x3 SLOAD PUSH1 0x4 PUSH0 CALLER PUSH20 0xFFFFFFFFFFFFFFFFFFFFFFFFFFFFFFFFFFFFFFFF AND PUSH20 0xFFFFFFFFFFFFFFFFFFFFFFFFFFFFFFFFFFFFFFFF AND DUP2 MSTORE PUSH1 0x20 ADD SWAP1 DUP2 MSTORE PUSH1 0x20 ADD PUSH0 KECCAK256 SLOAD PUSH2 0x3DC SWAP2 SWAP1 PUSH2 0x121A JUMP JUMPDEST TIMESTAMP LT ISZERO PUSH2 0x41E JUMPI PUSH1 0x40 MLOAD PUSH32 0x8C379A000000000000000000000000000000000000000000000000000000000 DUP2 MSTORE PUSH1 0x4 ADD PUSH2 0x415 SWAP1 PUSH2 0x1297 JUMP JUMPDEST PUSH1 0x40 MLOAD DUP1 SWAP2 SUB SWAP1 REVERT JUMPDEST DUP1 PUSH0 PUSH0 CALLER PUSH20 0xFFFFFFFFFFFFFFFFFFFFFFFFFFFFFFFFFFFFFFFF AND PUSH20 0xFFFFFFFFFFFFFFFFFFFFFFFFFFFFFFFFFFFFFFFF AND DUP2 MSTORE PUSH1 0x20 ADD SWAP1 DUP2 MSTORE PUSH1 0x20 ADD PUSH0 KECCAK256 PUSH0 DUP3 DUP3 SLOAD PUSH2 0x469 SWAP2 SWAP1 PUSH2 0x12B5 JUMP JUMPDEST SWAP3 POP POP DUP2 SWAP1 SSTORE POP TIMESTAMP PUSH1 0x4 PUSH0 CALLER PUSH20 0xFFFFFFFFFFFFFFFFFFFFFFFFFFFFFFFFFFFFFFFF AND PUSH20 0xFFFFFFFFFFFFFFFFFFFFFFFFFFFFFFFFFFFFFFFF AND DUP2 MSTORE PUSH1 0x20 ADD SWAP1 DUP2 MSTORE PUSH1 0x20 ADD PUSH0 KECCAK256 DUP2 SWAP1 SSTORE POP CALLER PUSH20 0xFFFFFFFFFFFFFFFFFFFFFFFFFFFFFFFFFFFFFFFF AND PUSH2 0x8FC DUP3 SWAP1 DUP2 ISZERO MUL SWAP1 PUSH1 0x40 MLOAD PUSH0 PUSH1 0x40 MLOAD DUP1 DUP4 SUB DUP2 DUP6 DUP9 DUP9 CALL SWAP4 POP POP POP POP ISZERO DUP1 ISZERO PUSH2 0x4F5 JUMPI RETURNDATASIZE PUSH0 PUSH0 RETURNDATACOPY RETURNDATASIZE PUSH0 REVERT JUMPDEST POP PUSH1 0x5 PUSH1 0x40 MLOAD DUP1 PUSH1 0x80 ADD PUSH1 0x40 MSTORE DUP1 CALLER PUSH20 0xFFFFFFFFFFFFFFFFFFFFFFFFFFFFFFFFFFFFFFFF AND DUP2 MSTORE PUSH1 0x20 ADD DUP4 DUP2 MSTORE PUSH1 0x20 ADD TIMESTAMP DUP2 MSTORE PUSH1 0x20 ADD PUSH1 0x40 MLOAD DUP1 PUSH1 0x40 ADD PUSH1 0x40 MSTORE DUP1 PUSH1 0x8 DUP2 MSTORE PUSH1 0x20 ADD PUSH32 0x7769746864726177000000000000000000000000000000000000000000000000 DUP2 MSTORE POP DUP2 MSTORE POP SWAP1 DUP1 PUSH1 0x1 DUP2 SLOAD ADD DUP1 DUP3 SSTORE DUP1 SWAP2 POP POP PUSH1 0x1 SWAP1 SUB SWAP1 PUSH0 MSTORE PUSH1 0x20 PUSH0 KECCAK256 SWAP1 PUSH1 0x4 MUL ADD PUSH0 SWAP1 SWAP2 SWAP1 SWAP2 SWAP1 SWAP2 POP PUSH0 DUP3 ADD MLOAD DUP2 PUSH0 ADD PUSH0 PUSH2 0x100 EXP DUP2 SLOAD DUP2 PUSH20 0xFFFFFFFFFFFFFFFFFFFFFFFFFFFFFFFFFFFFFFFF MUL NOT AND SWAP1 DUP4 PUSH20 0xFFFFFFFFFFFFFFFFFFFFFFFFFFFFFFFFFFFFFFFF AND MUL OR SWAP1 SSTORE POP PUSH1 0x20 DUP3 ADD MLOAD DUP2 PUSH1 0x1 ADD SSTORE PUSH1 0x40 DUP3 ADD MLOAD DUP2 PUSH1 0x2 ADD SSTORE PUSH1 0x60 DUP3 ADD MLOAD DUP2 PUSH1 0x3 ADD SWAP1 DUP2 PUSH2 0x5F7 SWAP2 SWAP1 PUSH2 0x1512 JUMP JUMPDEST POP POP POP CALLER PUSH20 0xFFFFFFFFFFFFFFFFFFFFFFFFFFFFFFFFFFFFFFFF AND PUSH32 0x92CCF450A286A957AF52509BC1C9939D1A6A481783E142E41E2499F0BB66EBC6 DUP3 TIMESTAMP PUSH1 0x40 MLOAD PUSH2 0x642 SWAP3 SWAP2 SWAP1 PUSH2 0x15E1 JUMP JUMPDEST PUSH1 0x40 MLOAD DUP1 SWAP2 SUB SWAP1 LOG2 POP JUMP JUMPDEST PUSH1 0x2 SLOAD DUP2 JUMP JUMPDEST PUSH1 0x4 PUSH1 0x20 MSTORE DUP1 PUSH0 MSTORE PUSH1 0x40 PUSH0 KECCAK256 PUSH0 SWAP2 POP SWAP1 POP SLOAD DUP2 JUMP JUMPDEST PUSH1 0x1 PUSH0 SWAP1 SLOAD SWAP1 PUSH2 0x100 EXP SWAP1 DIV PUSH20 0xFFFFFFFFFFFFFFFFFFFFFFFFFFFFFFFFFFFFFFFF AND DUP2 JUMP JUMPDEST PUSH1 0x1 PUSH0 SWAP1 SLOAD SWAP1 PUSH2 0x100 EXP SWAP1 DIV PUSH20 0xFFFFFFFFFFFFFFFFFFFFFFFFFFFFFFFFFFFFFFFF AND PUSH20 0xFFFFFFFFFFFFFFFFFFFFFFFFFFFFFFFFFFFFFFFF AND CALLER PUSH20 0xFFFFFFFFFFFFFFFFFFFFFFFFFFFFFFFFFFFFFFFF AND EQ PUSH2 0x71C JUMPI PUSH1 0x40 MLOAD PUSH32 0x8C379A000000000000000000000000000000000000000000000000000000000 DUP2 MSTORE PUSH1 0x4 ADD PUSH2 0x713 SWAP1 PUSH2 0x1652 JUMP JUMPDEST PUSH1 0x40 MLOAD DUP1 SWAP2 SUB SWAP1 REVERT JUMPDEST PUSH32 0xCACD94BD1E7BB1185C816A740D9439BC8EFF8159F6F4FFAD8D306B5ACA2EBD92 PUSH1 0x2 SLOAD DUP3 PUSH1 0x40 MLOAD PUSH2 0x74F SWAP3 SWAP2 SWAP1 PUSH2 0x15E1 JUMP JUMPDEST PUSH1 0x40 MLOAD DUP1 SWAP2 SUB SWAP1 LOG1 DUP1 PUSH1 0x2 DUP2 SWAP1 SSTORE POP POP JUMP JUMPDEST PUSH1 0x5 DUP2 DUP2 SLOAD DUP2 LT PUSH2 0x770 JUMPI PUSH0 DUP1 REVERT JUMPDEST SWAP1 PUSH0 MSTORE PUSH1 0x20 PUSH0 KECCAK256 SWAP1 PUSH1 0x4 MUL ADD PUSH0 SWAP2 POP SWAP1 POP DUP1 PUSH0 ADD PUSH0 SWAP1 SLOAD SWAP1 PUSH2 0x100 EXP SWAP1 DIV PUSH20 0xFFFFFFFFFFFFFFFFFFFFFFFFFFFFFFFFFFFFFFFF AND SWAP1 DUP1 PUSH1 0x1 ADD SLOAD SWAP1 DUP1 PUSH1 0x2 ADD SLOAD SWAP1 DUP1 PUSH1 0x3 ADD DUP1 SLOAD PUSH2 0x7C0 SWAP1 PUSH2 0x1342 JUMP JUMPDEST DUP1 PUSH1 0x1F ADD PUSH1 0x20 DUP1 SWAP2 DIV MUL PUSH1 0x20 ADD PUSH1 0x40 MLOAD SWAP1 DUP2 ADD PUSH1 0x40 MSTORE DUP1 SWAP3 SWAP2 SWAP1 DUP2 DUP2 MSTORE PUSH1 0x20 ADD DUP3 DUP1 SLOAD PUSH2 0x7EC SWAP1 PUSH2 0x1342 JUMP JUMPDEST DUP1 ISZERO PUSH2 0x837 JUMPI DUP1 PUSH1 0x1F LT PUSH2 0x80E JUMPI PUSH2 0x100 DUP1 DUP4 SLOAD DIV MUL DUP4 MSTORE SWAP2 PUSH1 0x20 ADD SWAP2 PUSH2 0x837 JUMP JUMPDEST DUP3 ADD SWAP2 SWAP1 PUSH0 MSTORE PUSH1 0x20 PUSH0 KECCAK256 SWAP1 JUMPDEST DUP2 SLOAD DUP2 MSTORE SWAP1 PUSH1 0x1 ADD SWAP1 PUSH1 0x20 ADD DUP1 DUP4 GT PUSH2 0x81A JUMPI DUP3 SWAP1 SUB PUSH1 0x1F AND DUP3 ADD SWAP2 JUMPDEST POP POP POP POP POP SWAP1 POP DUP5 JUMP JUMPDEST PUSH1 0x1 PUSH0 SWAP1 SLOAD SWAP1 PUSH2 0x100 EXP SWAP1 DIV PUSH20 0xFFFFFFFFFFFFFFFFFFFFFFFFFFFFFFFFFFFFFFFF AND PUSH20 0xFFFFFFFFFFFFFFFFFFFFFFFFFFFFFFFFFFFFFFFF AND CALLER PUSH20 0xFFFFFFFFFFFFFFFFFFFFFFFFFFFFFFFFFFFFFFFF AND EQ PUSH2 0x8D0 JUMPI PUSH1 0x40 MLOAD PUSH32 0x8C379A000000000000000000000000000000000000000000000000000000000 DUP2 MSTORE PUSH1 0x4 ADD PUSH2 0x8C7 SWAP1 PUSH2 0x1652 JUMP JUMPDEST PUSH1 0x40 MLOAD DUP1 SWAP2 SUB SWAP1 REVERT JUMPDEST DUP1 PUSH1 0x3 DUP2 SWAP1 SSTORE POP POP JUMP JUMPDEST PUSH1 0x60 PUSH0 PUSH0 SWAP1 POP PUSH0 PUSH0 SWAP1 POP JUMPDEST PUSH1 0x5 DUP1 SLOAD SWAP1 POP DUP2 LT ISZERO PUSH2 0x982 JUMPI CALLER PUSH20 0xFFFFFFFFFFFFFFFFFFFFFFFFFFFFFFFFFFFFFFFF AND PUSH1 0x5 DUP3 DUP2 SLOAD DUP2 LT PUSH2 0x91D JUMPI PUSH2 0x91C PUSH2 0x1670 JUMP JUMPDEST JUMPDEST SWAP1 PUSH0 MSTORE PUSH1 0x20 PUSH0 KECCAK256 SWAP1 PUSH1 0x4 MUL ADD PUSH0 ADD PUSH0 SWAP1 SLOAD SWAP1 PUSH2 0x100 EXP SWAP1 DIV PUSH20 0xFFFFFFFFFFFFFFFFFFFFFFFFFFFFFFFFFFFFFFFF AND PUSH20 0xFFFFFFFFFFFFFFFFFFFFFFFFFFFFFFFFFFFFFFFF AND SUB PUSH2 0x975 JUMPI DUP2 DUP1 PUSH2 0x971 SWAP1 PUSH2 0x169D JUMP JUMPDEST SWAP3 POP POP JUMPDEST DUP1 DUP1 PUSH1 0x1 ADD SWAP2 POP POP PUSH2 0x8E5 JUMP JUMPDEST POP PUSH0 DUP2 PUSH8 0xFFFFFFFFFFFFFFFF DUP2 GT ISZERO PUSH2 0x99E JUMPI PUSH2 0x99D PUSH2 0x12E8 JUMP JUMPDEST JUMPDEST PUSH1 0x40 MLOAD SWAP1 DUP1 DUP3 MSTORE DUP1 PUSH1 0x20 MUL PUSH1 0x20 ADD DUP3 ADD PUSH1 0x40 MSTORE DUP1 ISZERO PUSH2 0x9D7 JUMPI DUP2 PUSH1 0x20 ADD JUMPDEST PUSH2 0x9C4 PUSH2 0xDB8 JUMP JUMPDEST DUP2 MSTORE PUSH1 0x20 ADD SWAP1 PUSH1 0x1 SWAP1 SUB SWAP1 DUP2 PUSH2 0x9BC JUMPI SWAP1 POP JUMPDEST POP SWAP1 POP PUSH0 PUSH0 SWAP1 POP PUSH0 PUSH0 SWAP1 POP JUMPDEST PUSH1 0x5 DUP1 SLOAD SWAP1 POP DUP2 LT ISZERO PUSH2 0xBC1 JUMPI CALLER PUSH20 0xFFFFFFFFFFFFFFFFFFFFFFFFFFFFFFFFFFFFFFFF AND PUSH1 0x5 DUP3 DUP2 SLOAD DUP2 LT PUSH2 0xA1B JUMPI PUSH2 0xA1A PUSH2 0x1670 JUMP JUMPDEST JUMPDEST SWAP1 PUSH0 MSTORE PUSH1 0x20 PUSH0 KECCAK256 SWAP1 PUSH1 0x4 MUL ADD PUSH0 ADD PUSH0 SWAP1 SLOAD SWAP1 PUSH2 0x100 EXP SWAP1 DIV PUSH20 0xFFFFFFFFFFFFFFFFFFFFFFFFFFFFFFFFFFFFFFFF AND PUSH20 0xFFFFFFFFFFFFFFFFFFFFFFFFFFFFFFFFFFFFFFFF AND SUB PUSH2 0xBB4 JUMPI PUSH1 0x5 DUP2 DUP2 SLOAD DUP2 LT PUSH2 0xA78 JUMPI PUSH2 0xA77 PUSH2 0x1670 JUMP JUMPDEST JUMPDEST SWAP1 PUSH0 MSTORE PUSH1 0x20 PUSH0 KECCAK256 SWAP1 PUSH1 0x4 MUL ADD PUSH1 0x40 MLOAD DUP1 PUSH1 0x80 ADD PUSH1 0x40 MSTORE SWAP1 DUP2 PUSH0 DUP3 ADD PUSH0 SWAP1 SLOAD SWAP1 PUSH2 0x100 EXP SWAP1 DIV PUSH20 0xFFFFFFFFFFFFFFFFFFFFFFFFFFFFFFFFFFFFFFFF AND PUSH20 0xFFFFFFFFFFFFFFFFFFFFFFFFFFFFFFFFFFFFFFFF AND PUSH20 0xFFFFFFFFFFFFFFFFFFFFFFFFFFFFFFFFFFFFFFFF AND DUP2 MSTORE PUSH1 0x20 ADD PUSH1 0x1 DUP3 ADD SLOAD DUP2 MSTORE PUSH1 0x20 ADD PUSH1 0x2 DUP3 ADD SLOAD DUP2 MSTORE PUSH1 0x20 ADD PUSH1 0x3 DUP3 ADD DUP1 SLOAD PUSH2 0xB07 SWAP1 PUSH2 0x1342 JUMP JUMPDEST DUP1 PUSH1 0x1F ADD PUSH1 0x20 DUP1 SWAP2 DIV MUL PUSH1 0x20 ADD PUSH1 0x40 MLOAD SWAP1 DUP2 ADD PUSH1 0x40 MSTORE DUP1 SWAP3 SWAP2 SWAP1 DUP2 DUP2 MSTORE PUSH1 0x20 ADD DUP3 DUP1 SLOAD PUSH2 0xB33 SWAP1 PUSH2 0x1342 JUMP JUMPDEST DUP1 ISZERO PUSH2 0xB7E JUMPI DUP1 PUSH1 0x1F LT PUSH2 0xB55 JUMPI PUSH2 0x100 DUP1 DUP4 SLOAD DIV MUL DUP4 MSTORE SWAP2 PUSH1 0x20 ADD SWAP2 PUSH2 0xB7E JUMP JUMPDEST DUP3 ADD SWAP2 SWAP1 PUSH0 MSTORE PUSH1 0x20 PUSH0 KECCAK256 SWAP1 JUMPDEST DUP2 SLOAD DUP2 MSTORE SWAP1 PUSH1 0x1 ADD SWAP1 PUSH1 0x20 ADD DUP1 DUP4 GT PUSH2 0xB61 JUMPI DUP3 SWAP1 SUB PUSH1 0x1F AND DUP3 ADD SWAP2 JUMPDEST POP POP POP POP POP DUP2 MSTORE POP POP DUP4 DUP4 DUP2 MLOAD DUP2 LT PUSH2 0xB9A JUMPI PUSH2 0xB99 PUSH2 0x1670 JUMP JUMPDEST JUMPDEST PUSH1 0x20 MUL PUSH1 0x20 ADD ADD DUP2 SWAP1 MSTORE POP DUP2 DUP1 PUSH2 0xBB0 SWAP1 PUSH2 0x169D JUMP JUMPDEST SWAP3 POP POP JUMPDEST DUP1 DUP1 PUSH1 0x1 ADD SWAP2 POP POP PUSH2 0x9E3 JUMP JUMPDEST POP DUP2 SWAP4 POP POP POP POP SWAP1 JUMP JUMPDEST PUSH1 0x2 SLOAD CALLVALUE LT ISZERO PUSH2 0xC10 JUMPI PUSH1 0x40 MLOAD PUSH32 0x8C379A000000000000000000000000000000000000000000000000000000000 DUP2 MSTORE PUSH1 0x4 ADD PUSH2 0xC07 SWAP1 PUSH2 0x172E JUMP JUMPDEST PUSH1 0x40 MLOAD DUP1 SWAP2 SUB SWAP1 REVERT JUMPDEST CALLVALUE PUSH0 PUSH0 CALLER PUSH20 0xFFFFFFFFFFFFFFFFFFFFFFFFFFFFFFFFFFFFFFFF AND PUSH20 0xFFFFFFFFFFFFFFFFFFFFFFFFFFFFFFFFFFFFFFFF AND DUP2 MSTORE PUSH1 0x20 ADD SWAP1 DUP2 MSTORE PUSH1 0x20 ADD PUSH0 KECCAK256 PUSH0 DUP3 DUP3 SLOAD PUSH2 0xC5B SWAP2 SWAP1 PUSH2 0x121A JUMP JUMPDEST SWAP3 POP POP DUP2 SWAP1 SSTORE POP PUSH1 0x5 PUSH1 0x40 MLOAD DUP1 PUSH1 0x80 ADD PUSH1 0x40 MSTORE DUP1 CALLER PUSH20 0xFFFFFFFFFFFFFFFFFFFFFFFFFFFFFFFFFFFFFFFF AND DUP2 MSTORE PUSH1 0x20 ADD CALLVALUE DUP2 MSTORE PUSH1 0x20 ADD TIMESTAMP DUP2 MSTORE PUSH1 0x20 ADD PUSH1 0x40 MLOAD DUP1 PUSH1 0x40 ADD PUSH1 0x40 MSTORE DUP1 PUSH1 0x7 DUP2 MSTORE PUSH1 0x20 ADD PUSH32 0x6465706F73697400000000000000000000000000000000000000000000000000 DUP2 MSTORE POP DUP2 MSTORE POP SWAP1 DUP1 PUSH1 0x1 DUP2 SLOAD ADD DUP1 DUP3 SSTORE DUP1 SWAP2 POP POP PUSH1 0x1 SWAP1 SUB SWAP1 PUSH0 MSTORE PUSH1 0x20 PUSH0 KECCAK256 SWAP1 PUSH1 0x4 MUL ADD PUSH0 SWAP1 SWAP2 SWAP1 SWAP2 SWAP1 SWAP2 POP PUSH0 DUP3 ADD MLOAD DUP2 PUSH0 ADD PUSH0 PUSH2 0x100 EXP DUP2 SLOAD DUP2 PUSH20 0xFFFFFFFFFFFFFFFFFFFFFFFFFFFFFFFFFFFFFFFF MUL NOT AND SWAP1 DUP4 PUSH20 0xFFFFFFFFFFFFFFFFFFFFFFFFFFFFFFFFFFFFFFFF AND MUL OR SWAP1 SSTORE POP PUSH1 0x20 DUP3 ADD MLOAD DUP2 PUSH1 0x1 ADD SSTORE PUSH1 0x40 DUP3 ADD MLOAD DUP2 PUSH1 0x2 ADD SSTORE PUSH1 0x60 DUP3 ADD MLOAD DUP2 PUSH1 0x3 ADD SWAP1 DUP2 PUSH2 0xD63 SWAP2 SWAP1 PUSH2 0x1512 JUMP JUMPDEST POP POP POP CALLER PUSH20 0xFFFFFFFFFFFFFFFFFFFFFFFFFFFFFFFFFFFFFFFF AND PUSH32 0x73A19DD210F1A7F902193214C0EE91DD35EE5B4D920CBA8D519ECA65A7B488CA CALLVALUE TIMESTAMP PUSH1 0x40 MLOAD PUSH2 0xDAE SWAP3 SWAP2 SWAP1 PUSH2 0x15E1 JUMP JUMPDEST PUSH1 0x40 MLOAD DUP1 SWAP2 SUB SWAP1 LOG2 JUMP JUMPDEST PUSH1 0x40 MLOAD DUP1 PUSH1 0x80 ADD PUSH1 0x40 MSTORE DUP1 PUSH0 PUSH20 0xFFFFFFFFFFFFFFFFFFFFFFFFFFFFFFFFFFFFFFFF AND DUP2 MSTORE PUSH1 0x20 ADD PUSH0 DUP2 MSTORE PUSH1 0x20 ADD PUSH0 DUP2 MSTORE PUSH1 0x20 ADD PUSH1 0x60 DUP2 MSTORE POP SWAP1 JUMP JUMPDEST PUSH0 DUP2 SWAP1 POP SWAP2 SWAP1 POP JUMP JUMPDEST PUSH2 0xE05 DUP2 PUSH2 0xDF3 JUMP JUMPDEST DUP3 MSTORE POP POP JUMP JUMPDEST PUSH0 PUSH1 0x20 DUP3 ADD SWAP1 POP PUSH2 0xE1E PUSH0 DUP4 ADD DUP5 PUSH2 0xDFC JUMP JUMPDEST SWAP3 SWAP2 POP POP JUMP JUMPDEST PUSH0 PUSH0 REVERT JUMPDEST PUSH0 PUSH20 0xFFFFFFFFFFFFFFFFFFFFFFFFFFFFFFFFFFFFFFFF DUP3 AND SWAP1 POP SWAP2 SWAP1 POP JUMP JUMPDEST PUSH0 PUSH2 0xE51 DUP3 PUSH2 0xE28 JUMP JUMPDEST SWAP1 POP SWAP2 SWAP1 POP JUMP JUMPDEST PUSH2 0xE61 DUP2 PUSH2 0xE47 JUMP JUMPDEST DUP2 EQ PUSH2 0xE6B JUMPI PUSH0 PUSH0 REVERT JUMPDEST POP JUMP JUMPDEST PUSH0 DUP2 CALLDATALOAD SWAP1 POP PUSH2 0xE7C DUP2 PUSH2 0xE58 JUMP JUMPDEST SWAP3 SWAP2 POP POP JUMP JUMPDEST PUSH0 PUSH1 0x20 DUP3 DUP5 SUB SLT ISZERO PUSH2 0xE97 JUMPI PUSH2 0xE96 PUSH2 0xE24 JUMP JUMPDEST JUMPDEST PUSH0 PUSH2 0xEA4 DUP5 DUP3 DUP6 ADD PUSH2 0xE6E JUMP JUMPDEST SWAP2 POP POP SWAP3 SWAP2 POP POP JUMP JUMPDEST PUSH2 0xEB6 DUP2 PUSH2 0xDF3 JUMP JUMPDEST DUP2 EQ PUSH2 0xEC0 JUMPI PUSH0 PUSH0 REVERT JUMPDEST POP JUMP JUMPDEST PUSH0 DUP2 CALLDATALOAD SWAP1 POP PUSH2 0xED1 DUP2 PUSH2 0xEAD JUMP JUMPDEST SWAP3 SWAP2 POP POP JUMP JUMPDEST PUSH0 PUSH1 0x20 DUP3 DUP5 SUB SLT ISZERO PUSH2 0xEEC JUMPI PUSH2 0xEEB PUSH2 0xE24 JUMP JUMPDEST JUMPDEST PUSH0 PUSH2 0xEF9 DUP5 DUP3 DUP6 ADD PUSH2 0xEC3 JUMP JUMPDEST SWAP2 POP POP SWAP3 SWAP2 POP POP JUMP JUMPDEST PUSH2 0xF0B DUP2 PUSH2 0xE47 JUMP JUMPDEST DUP3 MSTORE POP POP JUMP JUMPDEST PUSH0 PUSH1 0x20 DUP3 ADD SWAP1 POP PUSH2 0xF24 PUSH0 DUP4 ADD DUP5 PUSH2 0xF02 JUMP JUMPDEST SWAP3 SWAP2 POP POP JUMP JUMPDEST PUSH0 DUP2 MLOAD SWAP1 POP SWAP2 SWAP1 POP JUMP JUMPDEST PUSH0 DUP3 DUP3 MSTORE PUSH1 0x20 DUP3 ADD SWAP1 POP SWAP3 SWAP2 POP POP JUMP JUMPDEST DUP3 DUP2 DUP4 MCOPY PUSH0 DUP4 DUP4 ADD MSTORE POP POP POP JUMP JUMPDEST PUSH0 PUSH1 0x1F NOT PUSH1 0x1F DUP4 ADD AND SWAP1 POP SWAP2 SWAP1 POP JUMP JUMPDEST PUSH0 PUSH2 0xF6C DUP3 PUSH2 0xF2A JUMP JUMPDEST PUSH2 0xF76 DUP2 DUP6 PUSH2 0xF34 JUMP JUMPDEST SWAP4 POP PUSH2 0xF86 DUP2 DUP6 PUSH1 0x20 DUP7 ADD PUSH2 0xF44 JUMP JUMPDEST PUSH2 0xF8F DUP2 PUSH2 0xF52 JUMP JUMPDEST DUP5 ADD SWAP2 POP POP SWAP3 SWAP2 POP POP JUMP JUMPDEST PUSH0 PUSH1 0x80 DUP3 ADD SWAP1 POP PUSH2 0xFAD PUSH0 DUP4 ADD DUP8 PUSH2 0xF02 JUMP JUMPDEST PUSH2 0xFBA PUSH1 0x20 DUP4 ADD DUP7 PUSH2 0xDFC JUMP JUMPDEST PUSH2 0xFC7 PUSH1 0x40 DUP4 ADD DUP6 PUSH2 0xDFC JUMP JUMPDEST DUP2 DUP2 SUB PUSH1 0x60 DUP4 ADD MSTORE PUSH2 0xFD9 DUP2 DUP5 PUSH2 0xF62 JUMP JUMPDEST SWAP1 POP SWAP6 SWAP5 POP POP POP POP POP JUMP JUMPDEST PUSH0 DUP2 MLOAD SWAP1 POP SWAP2 SWAP1 POP JUMP JUMPDEST PUSH0 DUP3 DUP3 MSTORE PUSH1 0x20 DUP3 ADD SWAP1 POP SWAP3 SWAP2 POP POP JUMP JUMPDEST PUSH0 DUP2 SWAP1 POP PUSH1 0x20 DUP3 ADD SWAP1 POP SWAP2 SWAP1 POP JUMP JUMPDEST PUSH2 0x1016 DUP2 PUSH2 0xE47 JUMP JUMPDEST DUP3 MSTORE POP POP JUMP JUMPDEST PUSH2 0x1025 DUP2 PUSH2 0xDF3 JUMP JUMPDEST DUP3 MSTORE POP POP JUMP JUMPDEST PUSH0 DUP3 DUP3 MSTORE PUSH1 0x20 DUP3 ADD SWAP1 POP SWAP3 SWAP2 POP POP JUMP JUMPDEST PUSH0 PUSH2 0x1045 DUP3 PUSH2 0xF2A JUMP JUMPDEST PUSH2 0x104F DUP2 DUP6 PUSH2 0x102B JUMP JUMPDEST SWAP4 POP PUSH2 0x105F DUP2 DUP6 PUSH1 0x20 DUP7 ADD PUSH2 0xF44 JUMP JUMPDEST PUSH2 0x1068 DUP2 PUSH2 0xF52 JUMP JUMPDEST DUP5 ADD SWAP2 POP POP SWAP3 SWAP2 POP POP JUMP JUMPDEST PUSH0 PUSH1 0x80 DUP4 ADD PUSH0 DUP4 ADD MLOAD PUSH2 0x1088 PUSH0 DUP7 ADD DUP3 PUSH2 0x100D JUMP JUMPDEST POP PUSH1 0x20 DUP4 ADD MLOAD PUSH2 0x109B PUSH1 0x20 DUP7 ADD DUP3 PUSH2 0x101C JUMP JUMPDEST POP PUSH1 0x40 DUP4 ADD MLOAD PUSH2 0x10AE PUSH1 0x40 DUP7 ADD DUP3 PUSH2 0x101C JUMP JUMPDEST POP PUSH1 0x60 DUP4 ADD MLOAD DUP5 DUP3 SUB PUSH1 0x60 DUP7 ADD MSTORE PUSH2 0x10C6 DUP3 DUP3 PUSH2 0x103B JUMP JUMPDEST SWAP2 POP POP DUP1 SWAP2 POP POP SWAP3 SWAP2 POP POP JUMP JUMPDEST PUSH0 PUSH2 0x10DE DUP4 DUP4 PUSH2 0x1073 JUMP JUMPDEST SWAP1 POP SWAP3 SWAP2 POP POP JUMP JUMPDEST PUSH0 PUSH1 0x20 DUP3 ADD SWAP1 POP SWAP2 SWAP1 POP JUMP JUMPDEST PUSH0 PUSH2 0x10FC DUP3 PUSH2 0xFE4 JUMP JUMPDEST PUSH2 0x1106 DUP2 DUP6 PUSH2 0xFEE JUMP JUMPDEST SWAP4 POP DUP4 PUSH1 0x20 DUP3 MUL DUP6 ADD PUSH2 0x1118 DUP6 PUSH2 0xFFE JUMP JUMPDEST DUP1 PUSH0 JUMPDEST DUP6 DUP2 LT ISZERO PUSH2 0x1153 JUMPI DUP5 DUP5 SUB DUP10 MSTORE DUP2 MLOAD PUSH2 0x1134 DUP6 DUP3 PUSH2 0x10D3 JUMP JUMPDEST SWAP5 POP PUSH2 0x113F DUP4 PUSH2 0x10E6 JUMP JUMPDEST SWAP3 POP PUSH1 0x20 DUP11 ADD SWAP10 POP POP PUSH1 0x1 DUP2 ADD SWAP1 POP PUSH2 0x111B JUMP JUMPDEST POP DUP3 SWAP8 POP DUP8 SWAP6 POP POP POP POP POP POP SWAP3 SWAP2 POP POP JUMP JUMPDEST PUSH0 PUSH1 0x20 DUP3 ADD SWAP1 POP DUP2 DUP2 SUB PUSH0 DUP4 ADD MSTORE PUSH2 0x117D DUP2 DUP5 PUSH2 0x10F2 JUMP JUMPDEST SWAP1 POP SWAP3 SWAP2 POP POP JUMP JUMPDEST PUSH32 0x496E73756666696369656E742062616C616E6365000000000000000000000000 PUSH0 DUP3 ADD MSTORE POP JUMP JUMPDEST PUSH0 PUSH2 0x11B9 PUSH1 0x14 DUP4 PUSH2 0xF34 JUMP JUMPDEST SWAP2 POP PUSH2 0x11C4 DUP3 PUSH2 0x1185 JUMP JUMPDEST PUSH1 0x20 DUP3 ADD SWAP1 POP SWAP2 SWAP1 POP JUMP JUMPDEST PUSH0 PUSH1 0x20 DUP3 ADD SWAP1 POP DUP2 DUP2 SUB PUSH0 DUP4 ADD MSTORE PUSH2 0x11E6 DUP2 PUSH2 0x11AD JUMP JUMPDEST SWAP1 POP SWAP2 SWAP1 POP JUMP JUMPDEST PUSH32 0x4E487B7100000000000000000000000000000000000000000000000000000000 PUSH0 MSTORE PUSH1 0x11 PUSH1 0x4 MSTORE PUSH1 0x24 PUSH0 REVERT JUMPDEST PUSH0 PUSH2 0x1224 DUP3 PUSH2 0xDF3 JUMP JUMPDEST SWAP2 POP PUSH2 0x122F DUP4 PUSH2 0xDF3 JUMP JUMPDEST SWAP3 POP DUP3 DUP3 ADD SWAP1 POP DUP1 DUP3 GT ISZERO PUSH2 0x1247 JUMPI PUSH2 0x1246 PUSH2 0x11ED JUMP JUMPDEST JUMPDEST SWAP3 SWAP2 POP POP JUMP JUMPDEST PUSH32 0x5769746864726177616C20746F6F20736F6F6E00000000000000000000000000 PUSH0 DUP3 ADD MSTORE POP JUMP JUMPDEST PUSH0 PUSH2 0x1281 PUSH1 0x13 DUP4 PUSH2 0xF34 JUMP JUMPDEST SWAP2 POP PUSH2 0x128C DUP3 PUSH2 0x124D JUMP JUMPDEST PUSH1 0x20 DUP3 ADD SWAP1 POP SWAP2 SWAP1 POP JUMP JUMPDEST PUSH0 PUSH1 0x20 DUP3 ADD SWAP1 POP DUP2 DUP2 SUB PUSH0 DUP4 ADD MSTORE PUSH2 0x12AE DUP2 PUSH2 0x1275 JUMP JUMPDEST SWAP1 POP SWAP2 SWAP1 POP JUMP JUMPDEST PUSH0 PUSH2 0x12BF DUP3 PUSH2 0xDF3 JUMP JUMPDEST SWAP2 POP PUSH2 0x12CA DUP4 PUSH2 0xDF3 JUMP JUMPDEST SWAP3 POP DUP3 DUP3 SUB SWAP1 POP DUP2 DUP2 GT ISZERO PUSH2 0x12E2 JUMPI PUSH2 0x12E1 PUSH2 0x11ED JUMP JUMPDEST JUMPDEST SWAP3 SWAP2 POP POP JUMP JUMPDEST PUSH32 0x4E487B7100000000000000000000000000000000000000000000000000000000 PUSH0 MSTORE PUSH1 0x41 PUSH1 0x4 MSTORE PUSH1 0x24 PUSH0 REVERT JUMPDEST PUSH32 0x4E487B7100000000000000000000000000000000000000000000000000000000 PUSH0 MSTORE PUSH1 0x22 PUSH1 0x4 MSTORE PUSH1 0x24 PUSH0 REVERT JUMPDEST PUSH0 PUSH1 0x2 DUP3 DIV SWAP1 POP PUSH1 0x1 DUP3 AND DUP1 PUSH2 0x1359 JUMPI PUSH1 0x7F DUP3 AND SWAP2 POP JUMPDEST PUSH1 0x20 DUP3 LT DUP2 SUB PUSH2 0x136C JUMPI PUSH2 0x136B PUSH2 0x1315 JUMP JUMPDEST JUMPDEST POP SWAP2 SWAP1 POP JUMP JUMPDEST PUSH0 DUP2 SWAP1 POP DUP2 PUSH0 MSTORE PUSH1 0x20 PUSH0 KECCAK256 SWAP1 POP SWAP2 SWAP1 POP JUMP JUMPDEST PUSH0 PUSH1 0x20 PUSH1 0x1F DUP4 ADD DIV SWAP1 POP SWAP2 SWAP1 POP JUMP JUMPDEST PUSH0 DUP3 DUP3 SHL SWAP1 POP SWAP3 SWAP2 POP POP JUMP JUMPDEST PUSH0 PUSH1 0x8 DUP4 MUL PUSH2 0x13CE PUSH32 0xFFFFFFFFFFFFFFFFFFFFFFFFFFFFFFFFFFFFFFFFFFFFFFFFFFFFFFFFFFFFFFFF DUP3 PUSH2 0x1393 JUMP JUMPDEST PUSH2 0x13D8 DUP7 DUP4 PUSH2 0x1393 JUMP JUMPDEST SWAP6 POP DUP1 NOT DUP5 AND SWAP4 POP DUP1 DUP7 AND DUP5 OR SWAP3 POP POP POP SWAP4 SWAP3 POP POP POP JUMP JUMPDEST PUSH0 DUP2 SWAP1 POP SWAP2 SWAP1 POP JUMP JUMPDEST PUSH0 PUSH2 0x1413 PUSH2 0x140E PUSH2 0x1409 DUP5 PUSH2 0xDF3 JUMP JUMPDEST PUSH2 0x13F0 JUMP JUMPDEST PUSH2 0xDF3 JUMP JUMPDEST SWAP1 POP SWAP2 SWAP1 POP JUMP JUMPDEST PUSH0 DUP2 SWAP1 POP SWAP2 SWAP1 POP JUMP JUMPDEST PUSH2 0x142C DUP4 PUSH2 0x13F9 JUMP JUMPDEST PUSH2 0x1440 PUSH2 0x1438 DUP3 PUSH2 0x141A JUMP JUMPDEST DUP5 DUP5 SLOAD PUSH2 0x139F JUMP JUMPDEST DUP3 SSTORE POP POP POP POP JUMP JUMPDEST PUSH0 PUSH0 SWAP1 POP SWAP1 JUMP JUMPDEST PUSH2 0x1457 PUSH2 0x1448 JUMP JUMPDEST PUSH2 0x1462 DUP2 DUP5 DUP5 PUSH2 0x1423 JUMP JUMPDEST POP POP POP JUMP JUMPDEST JUMPDEST DUP2 DUP2 LT ISZERO PUSH2 0x1485 JUMPI PUSH2 0x147A PUSH0 DUP3 PUSH2 0x144F JUMP JUMPDEST PUSH1 0x1 DUP2 ADD SWAP1 POP PUSH2 0x1468 JUMP JUMPDEST POP POP JUMP JUMPDEST PUSH1 0x1F DUP3 GT ISZERO PUSH2 0x14CA JUMPI PUSH2 0x149B DUP2 PUSH2 0x1372 JUMP JUMPDEST PUSH2 0x14A4 DUP5 PUSH2 0x1384 JUMP JUMPDEST DUP2 ADD PUSH1 0x20 DUP6 LT ISZERO PUSH2 0x14B3 JUMPI DUP2 SWAP1 POP JUMPDEST PUSH2 0x14C7 PUSH2 0x14BF DUP6 PUSH2 0x1384 JUMP JUMPDEST DUP4 ADD DUP3 PUSH2 0x1467 JUMP JUMPDEST POP POP JUMPDEST POP POP POP JUMP JUMPDEST PUSH0 DUP3 DUP3 SHR SWAP1 POP SWAP3 SWAP2 POP POP JUMP JUMPDEST PUSH0 PUSH2 0x14EA PUSH0 NOT DUP5 PUSH1 0x8 MUL PUSH2 0x14CF JUMP JUMPDEST NOT DUP1 DUP4 AND SWAP2 POP POP SWAP3 SWAP2 POP POP JUMP JUMPDEST PUSH0 PUSH2 0x1502 DUP4 DUP4 PUSH2 0x14DB JUMP JUMPDEST SWAP2 POP DUP3 PUSH1 0x2 MUL DUP3 OR SWAP1 POP SWAP3 SWAP2 POP POP JUMP JUMPDEST PUSH2 0x151B DUP3 PUSH2 0xF2A JUMP JUMPDEST PUSH8 0xFFFFFFFFFFFFFFFF DUP2 GT ISZERO PUSH2 0x1534 JUMPI PUSH2 0x1533 PUSH2 0x12E8 JUMP JUMPDEST JUMPDEST PUSH2 0x153E DUP3 SLOAD PUSH2 0x1342 JUMP JUMPDEST PUSH2 0x1549 DUP3 DUP3 DUP6 PUSH2 0x1489 JUMP JUMPDEST PUSH0 PUSH1 0x20 SWAP1 POP PUSH1 0x1F DUP4 GT PUSH1 0x1 DUP2 EQ PUSH2 0x157A JUMPI PUSH0 DUP5 ISZERO PUSH2 0x1568 JUMPI DUP3 DUP8 ADD MLOAD SWAP1 POP JUMPDEST PUSH2 0x1572 DUP6 DUP3 PUSH2 0x14F7 JUMP JUMPDEST DUP7 SSTORE POP PUSH2 0x15D9 JUMP JUMPDEST PUSH1 0x1F NOT DUP5 AND PUSH2 0x1588 DUP7 PUSH2 0x1372 JUMP JUMPDEST PUSH0 JUMPDEST DUP3 DUP2 LT ISZERO PUSH2 0x15AF JUMPI DUP5 DUP10 ADD MLOAD DUP3 SSTORE PUSH1 0x1 DUP3 ADD SWAP2 POP PUSH1 0x20 DUP6 ADD SWAP5 POP PUSH1 0x20 DUP2 ADD SWAP1 POP PUSH2 0x158A JUMP JUMPDEST DUP7 DUP4 LT ISZERO PUSH2 0x15CC JUMPI DUP5 DUP10 ADD MLOAD PUSH2 0x15C8 PUSH1 0x1F DUP10 AND DUP3 PUSH2 0x14DB JUMP JUMPDEST DUP4 SSTORE POP JUMPDEST PUSH1 0x1 PUSH1 0x2 DUP9 MUL ADD DUP9 SSTORE POP POP POP JUMPDEST POP POP POP POP POP POP JUMP JUMPDEST PUSH0 PUSH1 0x40 DUP3 ADD SWAP1 POP PUSH2 0x15F4 PUSH0 DUP4 ADD DUP6 PUSH2 0xDFC JUMP JUMPDEST PUSH2 0x1601 PUSH1 0x20 DUP4 ADD DUP5 PUSH2 0xDFC JUMP JUMPDEST SWAP4 SWAP3 POP POP POP JUMP JUMPDEST PUSH32 0x4F6E6C79206F776E65722063616E2063616C6C20746869730000000000000000 PUSH0 DUP3 ADD MSTORE POP JUMP JUMPDEST PUSH0 PUSH2 0x163C PUSH1 0x18 DUP4 PUSH2 0xF34 JUMP JUMPDEST SWAP2 POP PUSH2 0x1647 DUP3 PUSH2 0x1608 JUMP JUMPDEST PUSH1 0x20 DUP3 ADD SWAP1 POP SWAP2 SWAP1 POP JUMP JUMPDEST PUSH0 PUSH1 0x20 DUP3 ADD SWAP1 POP DUP2 DUP2 SUB PUSH0 DUP4 ADD MSTORE PUSH2 0x1669 DUP2 PUSH2 0x1630 JUMP JUMPDEST SWAP1 POP SWAP2 SWAP1 POP JUMP JUMPDEST PUSH32 0x4E487B7100000000000000000000000000000000000000000000000000000000 PUSH0 MSTORE PUSH1 0x32 PUSH1 0x4 MSTORE PUSH1 0x24 PUSH0 REVERT JUMPDEST PUSH0 PUSH2 0x16A7 DUP3 PUSH2 0xDF3 JUMP JUMPDEST SWAP2 POP PUSH32 0xFFFFFFFFFFFFFFFFFFFFFFFFFFFFFFFFFFFFFFFFFFFFFFFFFFFFFFFFFFFFFFFF DUP3 SUB PUSH2 0x16D9 JUMPI PUSH2 0x16D8 PUSH2 0x11ED JUMP JUMPDEST JUMPDEST PUSH1 0x1 DUP3 ADD SWAP1 POP SWAP2 SWAP1 POP JUMP JUMPDEST PUSH32 0x4465706F73697420616D6F756E7420746F6F206C6F7700000000000000000000 PUSH0 DUP3 ADD MSTORE POP JUMP JUMPDEST PUSH0 PUSH2 0x1718 PUSH1 0x16 DUP4 PUSH2 0xF34 JUMP JUMPDEST SWAP2 POP PUSH2 0x1723 DUP3 PUSH2 0x16E4 JUMP JUMPDEST PUSH1 0x20 DUP3 ADD SWAP1 POP SWAP2 SWAP1 POP JUMP JUMPDEST PUSH0 PUSH1 0x20 DUP3 ADD SWAP1 POP DUP2 DUP2 SUB PUSH0 DUP4 ADD MSTORE PUSH2 0x1745 DUP2 PUSH2 0x170C JUMP JUMPDEST SWAP1 POP SWAP2 SWAP1 POP JUMP INVALID LOG2 PUSH5 0x6970667358 0x22 SLT KECCAK256 0x27 0x2A SIGNEXTEND CALLVALUE 0x25 0xD2 0xC9 0xAF 0xB7 0x27 CHAINID DUP5 EOFCREATE 0x3E 0xAA PUSH3 0x9DFA4B SWAP8 SUB DELEGATECALL 0xB0 LOG3 0xEF GT PUSH17 0x2ADA1D3B1664736F6C634300081E003300 "
				},
				"gasEstimates": {
					"creation": {
						"codeDepositCost": "1203600",
						"executionCost": "infinite",
						"totalCost": "infinite"
					},
					"external": {
						"balances(address)": "2846",
						"deposit()": "infinite",
						"getBalance()": "2541",
						"getTransactionHistory()": "infinite",
						"lastWithdrawalTime(address)": "2913",
						"lockTime()": "2426",
						"minDeposit()": "2514",
						"owner()": "2508",
						"setLockTime(uint256)": "24750",
						"setMinDeposit(uint256)": "infinite",
						"transactions(uint256)": "infinite",
						"withdraw(uint256)": "infinite"
					}
				},
				"methodIdentifiers": {
					"balances(address)": "27e235e3",
					"deposit()": "d0e30db0",
					"getBalance()": "12065fe0",
					"getTransactionHistory()": "b76d4fc3",
					"lastWithdrawalTime(address)": "4de5120e",
					"lockTime()": "0d668087",
					"minDeposit()": "41b3d185",
					"owner()": "8da5cb5b",
					"setLockTime(uint256)": "ae04d45d",
					"setMinDeposit(uint256)": "8fcc9cfb",
					"transactions(uint256)": "9ace38c2",
					"withdraw(uint256)": "2e1a7d4d"
				}
			},
			"storageLayout": {
				"storage": [
					{
						"astId": 5,
						"contract": "StudentSavingsWallet.sol:StudentSavingsWallet",
						"label": "balances",
						"offset": 0,
						"slot": "0",
						"type": "t_mapping(t_address,t_uint256)"
					},
					{
						"astId": 7,
						"contract": "StudentSavingsWallet.sol:StudentSavingsWallet",
						"label": "owner",
						"offset": 0,
						"slot": "1",
						"type": "t_address"
					},
					{
						"astId": 9,
						"contract": "StudentSavingsWallet.sol:StudentSavingsWallet",
						"label": "minDeposit",
						"offset": 0,
						"slot": "2",
						"type": "t_uint256"
					},
					{
						"astId": 11,
						"contract": "StudentSavingsWallet.sol:StudentSavingsWallet",
						"label": "lockTime",
						"offset": 0,
						"slot": "3",
						"type": "t_uint256"
					},
					{
						"astId": 15,
						"contract": "StudentSavingsWallet.sol:StudentSavingsWallet",
						"label": "lastWithdrawalTime",
						"offset": 0,
						"slot": "4",
						"type": "t_mapping(t_address,t_uint256)"
					},
					{
						"astId": 28,
						"contract": "StudentSavingsWallet.sol:StudentSavingsWallet",
						"label": "transactions",
						"offset": 0,
						"slot": "5",
						"type": "t_array(t_struct(Transaction)24_storage)dyn_storage"
					}
				],
				"types": {
					"t_address": {
						"encoding": "inplace",
						"label": "address",
						"numberOfBytes": "20"
					},
					"t_array(t_struct(Transaction)24_storage)dyn_storage": {
						"base": "t_struct(Transaction)24_storage",
						"encoding": "dynamic_array",
						"label": "struct StudentSavingsWallet.Transaction[]",
						"numberOfBytes": "32"
					},
					"t_mapping(t_address,t_uint256)": {
						"encoding": "mapping",
						"key": "t_address",
						"label": "mapping(address => uint256)",
						"numberOfBytes": "32",
						"value": "t_uint256"
					},
					"t_string_storage": {
						"encoding": "bytes",
						"label": "string",
						"numberOfBytes": "32"
					},
					"t_struct(Transaction)24_storage": {
						"encoding": "inplace",
						"label": "struct StudentSavingsWallet.Transaction",
						"members": [
							{
								"astId": 17,
								"contract": "StudentSavingsWallet.sol:StudentSavingsWallet",
								"label": "user",
								"offset": 0,
								"slot": "0",
								"type": "t_address"
							},
							{
								"astId": 19,
								"contract": "StudentSavingsWallet.sol:StudentSavingsWallet",
								"label": "amount",
								"offset": 0,
								"slot": "1",
								"type": "t_uint256"
							},
							{
								"astId": 21,
								"contract": "StudentSavingsWallet.sol:StudentSavingsWallet",
								"label": "timestamp",
								"offset": 0,
								"slot": "2",
								"type": "t_uint256"
							},
							{
								"astId": 23,
								"contract": "StudentSavingsWallet.sol:StudentSavingsWallet",
								"label": "txType",
								"offset": 0,
								"slot": "3",
								"type": "t_string_storage"
							}
						],
						"numberOfBytes": "128"
					},
					"t_uint256": {
						"encoding": "inplace",
						"label": "uint256",
						"numberOfBytes": "32"
					}
				}
			},
			"userdoc": {
				"kind": "user",
				"methods": {},
				"version": 1
			}
		}
	}
}